:020000040800F2
:100000006814002015020008690F00080D0D000893
:10001000650F0008930600087D1900080000000025
:100020000000000000000000000000008116000831
:100030007108000800000000A5120008F918000867
:100040002F0200082F0200082F0200082F020008CC
:100050002F0200082F0200088D0800082F02000858
:100060002F0200082F0200082F0200082F020008AC
:100070002F0200082F0200082F0200082F0200089C
:100080002F0200082F0200082F0200082F0200088C
:100090002F0200082F0200082F020008A308000802
:1000A0002F0200082F0200082F0200082F0200086C
:1000B0002F0200082F0200082F0200082F0200085C
:1000C0002F0200082F0200082F0200082F0200084C
:1000D0002F0200082F0200082F0200082F0200083C
:1000E000970800082F0200082F0200082F020008BE
:1000F0002F0200082F0200082F0200082F0200081C
:100100002F0200082F0200082F0200082F0200080B
:100110002F0200082F0200082F0200082F020008FB
:100120002F0200082F0200082F0200082F020008EB
:1001300000F002F800F05FF80AA090E8000C82449A
:100140008344AAF10107DA4501D100F054F8AFF277
:10015000090EBAE80F0013F0010F18BFFB1A43F0A5
:1001600001031847E0430000004400000A444FF038
:10017000000C10F8013B13F0070408BF10F8014B06
:100180001D1108BF10F8015B641E05D010F8016B4B
:10019000641E01F8016BF9D113F0080F1EBF10F8AF
:1001A000014BAD1C0C1B09D16D1E58BF01F801CBD2
:1001B000FAD505E014F8016B01F8016B6D1EF9D555
:1001C0009142D6D37047000000230024002500266A
:1001D000103A28BF78C1FBD8520728BF30C148BFAA
:1001E0000B607047642900F07D80002070471FB5C8
:1001F0001FBD10B510BD00F052F91146FFF7F7FF13
:1002000002F0B4F900F070F903B4FFF7F2FF03BC99
:1002100000F074F90948804709480047FEE7FEE707
:10022000FEE7FEE7FEE7FEE7FEE7FEE7FEE7FEE7A6
:1002300004480549054A064B704700001D1900088F
:1002400031010008680E00206814002068100020AA
:10025000681000200FB41CB5074B06AA7B44694602
:100260000090059800F003F90020694600F012F9AB
:100270001CBC5DF814FB0000350200002DE9F041C4
:100280000E460446002020622046E168884730B3CD
:10029000252805D0D4E901219047206A401CF2E7C7
:1002A000E168204600278847050018D0A5F14100E5
:1002B000192802D820354FF40067324629462046D7
:1002C0002760FFF78FFF40B1012804D0F61D26F00C
:1002D00007060836D8E7361DD6E72846DAE7206A4B
:1002E000BDE8F0812DE9F04106460024106875292B
:1002F000314616A510D0AFF30080002802DA404244
:1003000013A507E031688A0701D512A502E0490765
:1003100004D511A5012401E0AFF3008000210A22D9
:1003200006F1240709E0B0FBF2FCB0FBF2F302FB9C
:100330001C00303078541846491C0028F3D123465D
:100340002A463046BDE8F04100F032B80000000017
:100350002D0000002B000000200000004FF00002E4
:1003600000B5134694469646203922BFA0E80C50AB
:10037000A0E80C50B1F12001BFF4F7AF090728BF86
:10038000A0E80C5048BF0CC05DF804EB890028BF02
:1003900040F8042B08BF704748BF20F8022B11F02B
:1003A000804F18BF00F8012B7047704770477047A7
:1003B0002DE9F0470D4699469246044600F124087F
:1003C0000168880604D5E06921F01001216000E091
:1003D0000120A84201DD471B00E00027A1697A192E
:1003E00002EB0900081AA0612078C00602D420465A
:1003F000AFF30080002608E0D4E901211AF80600D6
:100400009047206A401C761C20624E45F4DB207821
:10041000C0060AD52046AFF3008006E0D4E90121EA
:1004200030209047206A401C2062381EA7F1010747
:10043000F4DC07E0D4E9012118F805009047206AB0
:10044000401C2062281EA5F10105F3DC2046AFF315
:1004500000802078000602D50220BDE8F087012048
:10046000FBE7000001694A1C02610878704700B58B
:100470008FB0CDE901310021059105497944CDE9DD
:10048000031011466846FFF7F9FE0FB000BD0000EB
:10049000E5FFFFFF0A6802F8010B0A607047754626
:1004A00000F028F8AE4605006946534620F00700E4
:1004B000854618B020B5FFF7BBFEBDE820404FF0E1
:1004C00000064FF000074FF000084FF0000B21F03E
:1004D0000701AC46ACE8C009ACE8C009ACE8C0090B
:1004E000ACE8C0098D4670470446AFF30080204653
:1004F000FFF78AFE00487047080E002001491820C7
:10050000ABBEFEE726000200704721B1826842F0D0
:100510000102826003E0826822F00102826070477B
:1005200021B1826842F48072826003E0826822F422
:10053000807282607047014600208A6802F00402DF
:100540000AB1012000E000207047014600208A68BF
:1005500002F008020AB1012000E00020704700000C
:1005600030B502460020002350680F4C20400D7922
:100570000C6844EA05242043506090680B4C2040EE
:10058000D1E902542C434D7944EA4504204390605C
:10059000D06A20F470000C7C641EE4B2234340EA6D
:1005A0000350D06230BD0000FFFEF0FFFDF7F1FF09
:1005B000F0B504460D4600200021092D11DDE0684C
:1005C000A5F10A0606EB4607072606FA07F1884357
:1005D000A5F10A0606EB460603FA06F10843E060B9
:1005E0000CE0206905EB4507072606FA07F188436A
:1005F00005EB450603FA06F108432061072A0FDAE6
:10060000606B561E06EB86071F2606FA07F1884325
:10061000561E06EB860605FA06F10843606322E0E3
:100620000D2A0FDA206BD61F06EB86071F2606FA67
:1006300007F18843D61F06EB860605FA06F1084344
:10064000206310E0E06AA2F10D0606EB86071F2684
:1006500006FA07F18843A2F10D0606EB860605FAB5
:1006600006F10843E062F0BD816841F00801816055
:10067000704721B1826842F4A002826003E0826880
:1006800022F4A00282607047816841F00401816019
:10069000704700BFFEE770B5002415E004F1B0011B
:1006A000C8B201F0B5F8102001F0B2F8002001F056
:1006B000AFF8002504E0002001F0E4F8681CC5B2A2
:1006C000842DF8DB601CC4B2082CE7DB70BD21B1BF
:1006D000026842F00102026004E002684FF6FE7315
:1006E0001A4002607047000001684FF6FE72114028
:1006F00001600021016041608160C1604B49884216
:1007000008D14A490839496841F00F01474A083A77
:1007100051608AE045491431884208D1434908397B
:10072000496841F0F001414A083A51607DE03F4993
:100730002831884208D13D490839496841F470613F
:100740003A4A083A516070E038493C31884208D151
:1007500036490839496841F47041344A083A5160D1
:1007600063E032495031884208D13049083949683C
:1007700041F470212D4A083A516056E02B4964310A
:10078000884208D129490839496841F47001274A4B
:10079000083A516049E025497831884208D1234917
:1007A0000839496841F07061204A083A51603CE0DC
:1007B0001F49884206D1011F096841F00F01021F3D
:1007C000116032E01A491431884208D11849091FD2
:1007D000096841F0F001164A121F116025E0144922
:1007E0002831884208D11249091F096841F4706113
:1007F0000F4A121F116018E00D493C31884208D1A0
:100800000B49091F096841F47041094A121F116020
:100810000BE007495031884207D10549091F096893
:1008200041F47021024A121F116070470800024013
:100830000804024010B50022026847F6F0739A439C
:100840000C6A8B6823430C6923434C6923438C69EE
:100850002343CC6923434C6A23438C6A23431A43C2
:100860000260CB6843600B6883604B68C36010BD57
:10087000704700000021044A116000BF0249096866
:100880008842FBD8704700002C00002010B50120E2
:1008900000F00EF810BD10B54FF47C4000F008F8E1
:1008A00010BD10B54FF4FC6000F002F810BD000060
:1008B0000149086070470000140401400149C86004
:1008C000704700000020024030B5044604254FF474
:1008D000302000F089F80546042D17D10C48006936
:1008E00040F002000A49086108464461006940F08E
:1008F000400008614FF4302000F076F805460448C7
:10090000006941F6FD71084001490861284630BD83
:100910000020024004200B49C96801F0010109B11F
:1009200001200EE00749C96801F0040109B1022065
:1009300007E00449C96801F0100109B1032000E093
:1009400004207047002002400348006940F0800006
:10095000014908617047000000200240054909680C
:1009600021F01001034A116011460968014311602A
:10097000704700000020024070B504460D46042672
:10098000F00200F031F80646042E11D10948006942
:1009900040F00100074908612580F00200F024F8CA
:1009A00006460448006941F6FE71084001490861A5
:1009B000304670BD0020024001460020034A106806
:1009C00000F038000843106070470000002002402B
:1009D000024803494860034848607047230167455F
:1009E00000200240AB89EFCD00B502460423FFF79B
:1009F00091FF034603E0FFF78DFF0346521E012BD4
:100A000001D1002AF7D102B90523184600BD000024
:100A100010B588B0044620216846FFF79FFC606847
:100A2000401CF8B10021072001F0E8FC9620FFF7F8
:100A300021FFA18888B2694601F07EFB01F0ECF845
:100A4000684600F093FA20B90021042001F0D6FC9A
:100A500006E00021032001F0D1FC034800F0E4FA95
:100A600001F082FA08B010BD0C00002030B58BB048
:100A70000446202103A8FFF771FC4EA200210520A7
:100A800000F0E6F9012000F04DFA012001F08CFDA4
:100A9000052001F089FD484801F0C2FF464801F0F9
:100AA000ABFF401C00283DD0434800794249C9783B
:100AB000414A9278CDE9002102903F48437802787C
:100AC0003EA103A8FFF7C6FB03AA0121052000F001
:100AD000BFF9052206213DA000F000FA05226021A1
:100AE0003BA000F0FBF91BE001F0B0FA05460C2D2D
:100AF00000D116E00D2D13D1012001F055FD052088
:100B000001F052FD062001F04FFD0021012001F00F
:100B100063FD00BF284801F039FA0028FAD100E04F
:100B2000E2E712E0012001F03FFD052001F03CFD6D
:100B3000062001F039FD0021012001F04DFD00BF2C
:100B40001D4801F023FA0028FAD11B4800F06CFA86
:100B500003A800F00BFAA8B10021012001F04EFC1F
:100B600014A20021052000F073F9012000F0DAF949
:100B700000202070AFF20B10A0604FF4FA60FFF776
:100B800079FE14E0012001F02FFB0021022001F08A
:100B900035FC10A1002001F03FFB002000F0C2F95D
:100BA000012020700C48A060034801F039FF0BB011
:100BB00030BD00004E0000000C00002025643A25E6
:100BC000643A25643A25643A25640000CAC70000E7
:100BD000B7F1000046000000110A00082DE9F041BD
:100BE000024600250026002000230024002791F85B
:100BF00003C00CF00F0591F803C00CF0100CBCF111
:100C0000000F03D091F802C04CEA050591F800C02E
:100C1000BCF1000F31D0146800202BE04FF0010C24
:100C20000CFA00F3B1F800C00CEA03069E4220D192
:100C300083004FF00F0C0CFA03F7BC4305FA03FCDA
:100C40004CEA040491F803C0BCF1280F06D14FF020
:100C5000010C0CFA00FCC2F814C00AE091F803C0C1
:100C6000BCF1480F05D14FF0010C0CFA00FCC2F8A2
:100C700010C0401C0828D1D31460B1F800C0BCF1EA
:100C8000FF0F34DD546800202EE000F1080C4FF017
:100C9000010808FA0CF3B1F800C00CEA03069E4202
:100CA00021D183004FF00F0C0CFA03F7BC4305FA77
:100CB00003FC4CEA040491F803C0BCF1280F05D1F1
:100CC00000F1080C08FA0CF8C2F8148091F803C07F
:100CD000BCF1480F07D100F1080C4FF0010808FAE9
:100CE0000CF8C2F81080401C0828CED35460BDE830
:100CF000F0810246002093680B400BB1012000E018
:100D000000207047416170470161704700BFFEE7F6
:100D100010B500F055FD02211948FFF7F3FFC82078
:100D200000F06CFF02211648FFF7EEFFC82000F02C
:100D300065FFE22000F06CFDA32000F069FDA0201B
:100D400000F066FDC82000F063FD2C2000F060FD7F
:100D50002E2000F05DFD2F2000F05AFD812000F0D4
:100D600057FD192000F054FD242000F051FDAF2064
:100D700000F04EFD402000F04BFDFFF78CFC10BD55
:100D8000000801402DE9F05F06460F4690461C46DC
:100D9000DDF828A04FF0000BE11704EB5171C910EA
:100DA000A4EBC10131B92046E11704EB5171C1F345
:100DB000C70506E02046E11704EB5171C910491C34
:100DC000CDB23D4614E02946304600F0E3FCB14682
:100DD0000AE059460BF1010B1AF8010000F052FD30
:100DE00009F1010000F0FF09C145F2DB681CC5B242
:100DF000A542E8DBBDE8F09F08B50121042000F022
:100E000073FA0121082000F06FFA0720ADF8000006
:100E100010208DF8030003208DF8020069460A486F
:100E2000FFF7DCFEC020ADF8000010208DF80300B5
:100E300003208DF8020069460448FFF7CFFE022127
:100E40000148FFF761FF08BD00080140000C0140A8
:100E50002DE9F04707460D46904600260024A1469E
:100E600034E018F809002038C6B27F2F02DD0027D1
:100E7000681CC5B26806010E384600F077FC0024F5
:100E800007E004EB0611144A505C00F0FBFC601C08
:100E9000C4B2082CF5DB012000EB4500C1B2384696
:100EA00000F064FC002408E004EB061108310A4A53
:100EB000505C00F0E7FC601CC4B2082CF4DB07F1C6
:100EC0000800C7B209F1010000F0FF0918F8090095
:100ED0000028C6D1BDE8F087533F00082DE9F04156
:100EE00005460E461746002417E0285D802808DADC
:100EF000285D3A46314600F095FE06F10800C6B27C
:100F000009E028193A46314600F0DEFE06F11000ED
:100F1000C6B2601CC4B2601CC4B2285D0028E4DC08
:100F2000BDE8F08138B5044614B1012C12D108E0B7
:100F30000A4802234822002100903820FFF722FFB0
:100F400009E0074802234822002100903820FFF7DB
:100F500019FF00E000BF00BF38BD0000920D002067
:100F6000B20D002000BFFEE7704700002DE9F04100
:100F700006460027002410212948FFF7C3FE002160
:100F8000E12001F0F7FD10212648FFF7BBFE2022EB
:100F90003146A02000F050FB10212248FFF7B4FE9C
:100FA00010211F48FFF7B0FE0DE0641C0220FFF780
:100FB00061FC642C07DD4FF4FA60FFF75BFC4FF037
:100FC000FF30BDE8F08120211548FFF792FE01288F
:100FD000EBD014E0072001F0A9FD054629462720A3
:100FE00001F0C8FD0A20FFF745FC641C142C06DD47
:100FF0004FF4FA60FFF73EFC4FF0FF30E1E72021AD
:101000000748FFF776FE0028E4D005F0200000B185
:10101000002705F0100008B14FF0FF373846D0E741
:10102000001001400008014070B5044610211E4820
:10103000FFF768FE0021E12001F09CFD052221461A
:10104000302000F0F9FA052221462A2000F0F4FAB7
:101050000121212001F08EFD0121222001F08AFDD5
:10106000FF21242001F086FD2821252001F082FDAA
:101070000721262001F07EFD2021312001F07AFD9C
:101080000E21202001F076FD10210748FFF73CFEDD
:10109000072001F04BFD05462946272001F06AFD97
:1010A0000A20FFF7E7FB70BD0010014010B50021DA
:1010B0004FF0006000F010F84FF4A06000F002F86C
:1010C00010BD000002490143024A11607047000050
:1010D0000000FA050CED00E0024A0A400243024B10
:1010E0001A60704780FFFF1F08ED00E070B50446EE
:1010F0000D4605F1B001C8B2002100F099F81021A9
:1011000041EA1410002100F093F804F00F0141F0BF
:101110000100002100F08CF870BD00002DE9F041C5
:1011200080460E461546002731464046FFF7DEFF53
:1011300000240AE0124A02EB8511085D012100F04B
:1011400077F8781CC7B2601CC4B2102CF2DB701C9C
:10115000C1B24046FFF7CAFF00240CE06900491CF9
:10116000074A02EB4111085D012100F061F8781C8B
:10117000C7B2601CC4B2102CF0DBBDE8F0810000E7
:10118000D00100202DE9F04106460F46904600258B
:101190000024A8F12000C5B27F2E04DDA6F1800056
:1011A000C6B2B81CC7B239463046FFF79FFF0024CD
:1011B00008E004EB05110F4A505C012100F038F8FB
:1011C000601CC4B2082CF4DB781CC1B23046FFF7B7
:1011D0008DFF002409E004EB05110831054A505C3D
:1011E000012100F025F8601CC4B2082CF3DBBDE837
:1011F000F0810000F02D00082DE9F04104460F4673
:10120000154600260EE0AA5D39462046FFF7BAFFD4
:1012100004F10800C4B2782C02DD0024B81CC7B267
:10122000701CC6B2A85D0028EDD1BDE8F0810000B9
:1012300070B504460E4626B101211848FFF764FD3B
:1012400003E001211548FFF75DFD40211448FFF739
:1012500059FD002517E008211048FFF753FD04F061
:10126000800020B104210D48FFF74EFD03E004216A
:101270000A48FFF747FD08210848FFF745FD6006CB
:10128000040E681CC5B2082DE5DB40210448FFF7B9
:101290003BFD01210148FFF737FD70BD000801400B
:1012A000000C01407047000029B1064A5269024310
:1012B000044B5A6104E0034A52698243014B5A616C
:1012C000704700000010024029B1064A126902432B
:1012D000044B1A6104E0034A12698243014B1A610C
:1012E000704700000010024029B1064A926902438B
:1012F000044B9A6104E0034A92698243014B9A616C
:10130000704700000010024029B1064AD26802432B
:10131000044BDA6004E0034AD2688243014BDA608E
:10132000704700000010024070B500F065F84FF4FF
:10133000803000F0B9F800BF312000F083F80028B9
:10134000FAD01020FFF70AFB0220FFF735FB002040
:1013500000F09EF8002000F0DFF84FF4806000F00D
:10136000CFF84FF4E0114FF4803000F0E7F801209F
:1013700000F0DEF800BF392000F064F80028FAD051
:10138000022000F0E9F800BF00F07AF80828FBD14D
:10139000012141F21D00FFF7A7FF144800684FF438
:1013A0007A72B0FBF2F1B1F1807F00D31DE021F041
:1013B0007F40401E4FF0E022506150170F2200285E
:1013C00007DA13071D0E0A4B00F00F04241F1D55EA
:1013D00003E013071C0E074B1C5400BF00204FF006
:1013E000E02290610720106100BF70BD80010020E5
:1013F00018ED00E000E400E00F48006840F0010054
:101400000D490860084640680C4908400A49486090
:10141000084600680A49084007490860084600680D
:1014200020F4802008600846406820F4FE004860F0
:101430004FF41F0088607047001002400000FFF862
:10144000FFFFF6FE10B501460022002300204A11DE
:10145000012A02D1094C236806E0022A02D1074C76
:10146000236A01E0054C636A01F01F0201249440E5
:101470001C400CB1012000E0002010BD0010024013
:101480000248406800F00C00704700000010024065
:1014900001460020034A506820F0F00008435060E5
:1014A00070470000001002401149096821F48031A2
:1014B0000F4A11601146096821F480211160B0F5CE
:1014C000803F03D0B0F5802F0ED106E008490968AF
:1014D00041F48031064A116007E00549096841F48A
:1014E000A021034A116000E000BF00BF7047000068
:1014F00000100240014908607047000000004242AD
:1015000001460020034A506820F4E0600843506020
:10151000704700000010024001460020034A506856
:1015200020F4605040EAC100506070470010024053
:101530000149086670470000000042420246002050
:10154000044B586820F47C1042EA01031843014B15
:10155000586070470010024001460020034A50685E
:1015600020F0030008435060704700000010024064
:1015700021B1028842F04002028004E002884FF666
:10158000BF731A400280704710B504461148844268
:1015900008D101218014FFF7B7FE0021A014FFF746
:1015A000B3FE16E00C48844208D101210014FFF775
:1015B0008BFE00212014FFF787FE0AE007488442D3
:1015C00007D10121C013FFF77FFE0021E013FFF7D1
:1015D0007BFE10BD0030014000380040003C004060
:1015E0000246002013890B400BB1012000E00020CF
:1015F00070470146888970478181704710B5002285
:10160000028802F441520B884C8823438C88234380
:10161000CC8823430C8923434C8923438C8923435F
:10162000CC8923431A430280838B4FF2FF742340FB
:1016300083830B8A038210BD70B505460C4616469F
:1016400010210D48FFF75EFB29460C48FFF7D4FF39
:1016500001F0ACFA06E014F8011B0848FFF7CCFFD4
:1016600001F0A4FA3000A6F10101CEB2F3D11021AD
:101670000148FFF749FB70BD000801400030014000
:10168000704710B500F002F810BD00000CB5002046
:10169000019000903348006840F480303149086080
:1016A00000BF3048006800F4003000900198401CF2
:1016B0000190009818B90198B0F5A06FF1D12948B0
:1016C000006800F4003010B10120009001E000201B
:1016D00000900098012843D12348006840F0100092
:1016E000214908600846006820F0030008600846A9
:1016F000006840F0020008601A48406819494860D4
:101700000846406848600846406840F48060486089
:101710000846406820F47C1048600846406840F461
:10172000E81048600846006840F08070086000BF1C
:101730000C48006800F000700028F9D009484068A3
:1017400020F00300074948600846406840F0020066
:10175000486000BF0348406800F00C000828F9D139
:101760000CBD0000001002400020024070B504468D
:101770000D4604F00F06102000EB241405F1B00113
:10178000C8B200F045F8204600F042F8304600F0BC
:101790003FF870BD70B504460D46201DC4B204F07C
:1017A0000F06102000EB241405F1B001C8B200F0C0
:1017B0002FF8204600F02CF8304600F029F870BDD4
:1017C00008B501210420FFF78FFD01210820FFF754
:1017D0008BFD0720ADF8000010208DF803000320DA
:1017E0008DF8020069460848FFF7F8F9C020ADF807
:1017F000000010208DF8030003208DF802006946D8
:101800000248FFF7EBF908BD00080140000C014059
:1018100070B5044601211948FFF774FA04211748EE
:10182000FFF770FA40211648FFF76CFA002619E01E
:10183000254640211248FFF765FA04F08000802811
:1018400004D180210E48FFF75FFA03E080210C48A5
:10185000FFF758FA40210A48FFF756FA6806040EC7
:10186000701CC6B2082EE3DB01210448FFF74CFAD6
:1018700004210248FFF748FA70BD0000000801404B
:10188000000C014070B5044601211948FFF73AFAEF
:1018900004211748FFF738FA40211648FFF732FABB
:1018A000002619E0254640211248FFF72BFA04F0E4
:1018B0008000802804D180210E48FFF725FA03E03C
:1018C00080210C48FFF71EFA40210A48FFF71CFA56
:1018D0006806040E701CC6B2082EE3DB0121044822
:1018E000FFF712FA04210248FFF70CFA70BD00005E
:1018F00000080140000C014010B506480068401C7B
:101900000449086004480068401C0349086000F06E
:10191000ADFB10BD280000202C00002010B513489E
:10192000006840F00100114908600846406810490D
:1019300008400E494860084600680E4908400B49B7
:1019400008600846006820F4802008600846406867
:1019500020F4FE0048604FF41F008860FFF791FEFE
:101960004FF000600449086010BD00000010024004
:101970000000FFF8FFFFF6FE08ED00E000BFFEE705
:1019800000B591B001210846FFF78EFC0121480205
:10199000FFF7AAFC0120ADF8000000208DF803003D
:1019A00069463348FFF71AF93248FEF79DFE324880
:1019B00001903248029000200390102004900020F3
:1019C000059080200690400007908000089020201D
:1019D000099000020A9000200B9001A92548FEF70B
:1019E00029FF01212348FEF772FE00200C908DF89C
:1019F000340001208DF835004FF460200E90002057
:101A00000F9001208DF840000CA91B484C38FEF7C0
:101A1000A7FD07230122082117484C38FEF7C8FD0F
:101A2000012115484C38FEF77BFD012112484C3846
:101A3000FEF76BFD10484C38FEF716FE00BF0E484F
:101A40004C38FEF782FD0028F9D10B484C38FEF7E0
:101A50001BFE00BF08484C38FEF76DFD0028F9D189
:101A6000012105484C38FEF704FE11B000BD00000E
:101A7000000C0140080002404C240140D40D00201D
:101A800010B5044611E04FF480610A48FFF73CF9B5
:101A900040F6FF0000F0ACF84FF480610548FFF716
:101AA00031F940F6FF0000F0A3F82000A4F1010492
:101AB000E9D110BD001001402DE9F04704468A46E7
:101AC000914600270025A84600BF605D0D2802D082
:101AD00008F1010831E0B8F1000F09D0B8F1010FA9
:101AE00008D0B8F1020F08D0B8F1030F1CD10DE0F7
:101AF00000261AE0681E265C17E0681E215CA81EFE
:101B0000205C00EB800001EB40060EE0E81E205C4C
:101B100064214843A91E615C01EB810100EB410196
:101B2000681E205C0E1800E000BF00BFFF2E01DC25
:101B300009F807607F1C4FF00008B8F1030F03DCC1
:101B4000052F01DCFF2E0EDD0021052000F056FEE2
:101B50004FF4FA60FEF78EFE052000F025FD6FF0D1
:101B60000100BDE8F0876D1C5FEA0A00AAF1010AD6
:101B7000ABD100BF00BFF4E708B54FF4F850ADF8A3
:101B8000000048208DF8030069461648FFF726F844
:101B90004FF47840ADF8000048208DF80300694606
:101BA0001148FFF71BF84FF47070ADF800004820A3
:101BB0008DF8030069460D48FFF710F84FF4806078
:101BC000ADF8000010208DF8030003208DF802000E
:101BD00069460648FFF702F84FF480610348FFF7B3
:101BE00091F808BD00080140000C014000100140C0
:101BF00000BF0100A0F10100FBD17047014605E0E4
:101C0000002001E0421CD0B21428FBDD0A00A1F143
:101C1000010399B2F4D17047002001490860704770
:101C2000C00100202DE9F05F0646894690464FF03E
:101C30000B0B002508E005EB05102249085CB042BB
:101C400000D103E0681CC5B25D45F4DB00BF5D4513
:101C500036DA2D2E01D03A2E01D1062704E07C2E53
:101C600001D1082700E0082741464846FFF792FDCA
:101C700000240BE005EB051012490844401C10F845
:101C800004A05046FFF7FEFD601CC4B2BC42F1DB6D
:101C900008F10100C1B24846FFF77CFD00240DE0C9
:101CA00005EB051007490844401C04F1080110F831
:101CB00001A05046FFF7E6FD601CC4B2BC42EFDB5A
:101CC000BDE8F09FE03300082DE9F047064688465E
:101CD0001746002512E0307805EB0511204A12F86E
:101CE0001110884208D1707805EB051102EB410113
:101CF0004978884200D103E0681CC5B2242DEAD39C
:101D000000BF39464046FFF745FD00240CE005EBD7
:101D10000510134901EB4000801C10F80490484660
:101D2000FFF7B0FD601CC4B2102CF0DB781CC1B210
:101D30004046FFF72FFD00240EE005EB0510084993
:101D400001EB4000801C04F1100110F8019048469E
:101D5000FFF798FD601CC4B2102CEEDBBDE8F087E5
:101D60009B34000870B504460D46002C00DA70BDA7
:101D70002878002848D00C2C46D1012000F014FC13
:101D8000052000F011FC7348006801281DD100F007
:101D90002BFA022000F028FA032000F025FA042094
:101DA00000F022FA6CA200210520FFF751F86BA188
:101DB000002000F031FA0020664908606849086098
:101DC0000A21062000F032FA1AE062480068B8B929
:101DD000012000F009FA022000F006FA032000F0CA
:101DE00003FA042000F000FA5BA200210520FFF7AF
:101DF0002FF85CA1002000F00FFA0120554908607F
:101E00004FF0FF306860B2E72878012849D1514887
:101E10000068012846D1092C02DD801E6860A6E713
:101E20000E2C3DD2DFE804F0070C11161B20252AEA
:101E30002F3435363738E1B2022000F0F7F930E0C0
:101E4000E1B2032000F0F2F92BE0E1B2042000F04F
:101E5000EDF926E0E1B2052000F0E8F921E0E1B279
:101E6000072000F0E3F91CE0E1B2082000F0DEF901
:101E700017E0E1B2092000F0D9F912E0E1B20A203E
:101E800000F0D4F90DE0E1B2082000F0CFF908E04D
:101E900000BF00BF00BF00BF012000F085FB00E0D5
:101EA00000BF54E02B480068002850D1012000F00A
:101EB0009BF9022000F098F9032000F095F9042026
:101EC00000F092F90020264908600A21062000F05F
:101ED000ADF937E00C2C18D1012000F085F9022073
:101EE00000F082F9032000F07FF9042000F07CF973
:101EF0001CA1002000F090F9012016490860801E06
:101F0000686000201649086031E7601CB8B10A2CEF
:101F100008DA1348006800EB800004EB4000104929
:101F2000086008E00B2C06D10D4800680A21B0FBC0
:101F3000F1F00B490860E1B2062000F077F900F0FB
:101F400085F804460A2CC5D105480068686000BFC2
:101F50000DE7000008000020200000004E000000F7
:101F60002000002046000000012001490860704761
:101F7000C001002010B50246002002E0137858404E
:101F8000521C0B00A1F10101F8D110BD70B505463E
:101F90004FF0FF3600F05AF80446601C00284FD07E
:101FA0000C2C01D1304670BD0A2C2AD1254800687E
:101FB000002810DD0D202449224A12688854214847
:101FC0000068401C1F4908602A46084601681E48F0
:101FD000FFF772FD064600201A49086009E000205C
:101FE0001949184A1268885416480068401C154957
:101FF0000860144800681428F1DB002011490860CB
:102000001AE00B2C0BD10F480068002803DD0D48A7
:102010000068401E00E000200A4908600CE0094802
:102020000068132808DA0848064A126884540548EC
:102030000068401C03490860E1B2062000F0DEFBA6
:102040003046B0E7CC010020F40D00204FF0FF3007
:102050000449096821B1044908680021014A116056
:1020600070470000C4010020C801002010B5002402
:102070005DE004EB44022F4B03EBC202918804EBBA
:10208000440253F83200FEF734FED8BB04EB44029E
:10209000284B03EBC202918804EB440253F8320050
:1020A000FEF727FE012004EB4401224A02EBC101A6
:1020B000C86004EB4400114601EBC0008068401C7E
:1020C00004EB440102EBC101886004EB44001146BB
:1020D00001EBC0008068322828D904EB440001EBF2
:1020E000C000006910B304EB440102EBC101087D9C
:1020F00000F06EFC002004EB44010E4A02EBC1012B
:10210000086113E0FFE7002004EB4401094A02EBF9
:10211000C1018860012004EB440102EBC1010861A8
:10212000002004EB440102EBC101C860641C0E2CCA
:102130009FDB10BD3000002070B506460C460D48F0
:102140000068012802D10220207001E001202070E7
:1021500002206070300AA070E67004212046FFF76C
:1021600009FF2071052502E0002060556D1C202D1F
:10217000FADB70BD080000202DE9F04107460D464E
:10218000904600260024A8F12000C6B27F2F04DD6F
:10219000A7F18000C7B2A81CC5B2681CC1B23846FE
:1021A000FFF7F8FA002407E004EB06110D4A505C33
:1021B000FFF768FB601CC4B2082CF5DB681CC1B2D9
:1021C0003846FFF7E7FA002407E004EB0611054A5A
:1021D000505CFFF757FB601CC4B2082CF5DBBDE870
:1021E000F0810000F02D000870B504461025002C89
:1021F00001DB062C00DD70BD05E0E1B2EA06100E41
:1022000004A2FEF725FE2800A5F10105F5D100BFC7
:10221000F1E700002000000070B504460D462A4694
:1022200021460520FEF714FE70BD000070B505467E
:102230000C46062D02D00120FFF7D6FF0B2D6ED2E3
:10224000DFE805F0AA062F353B415F474D535900A3
:10225000062201210020FEF761FF07220121102044
:10226000FEF75CFF082201212020FEF757FF09221C
:1022700001213020FEF752FF0A2201214020FEF703
:102280004DFF0B2201215020FEF748FF0C220121B7
:102290006020FEF743FF0D2201217020FEF73EFF74
:1022A0007BE0022200213EA0FEF718FE75E002222C
:1022B00000213DA0FEF712FE6FE0022200213CA0AB
:1022C000FEF70CFE69E0022200213BA0FEF706FEAD
:1022D00063E0022200213BA0FEF700FE5DE0022247
:1022E00000213BA0FEF7FAFD57E0022200213BA0AF
:1022F000FEF7F4FD51E0022200213BA0FEF7EEFDC7
:102300004BE00A2C0CD100203B49087008460078AD
:10231000C006010E02225F20FFF784FC3BE03BE099
:102320000B2C1BD134480078C006010E022220205D
:10233000FFF778FC30480078002803DD2E4800784D
:10234000401E00E000202C49087008460078C006B6
:10235000010E02225F20FFF765FC1CE00C2C01D06F
:102360000D2C00D170BD04F13000C4B222480078B9
:10237000C006010E02222046FFF754FC1E480078DA
:10238000401C1D49087008460078C006010E022254
:102390005F20FFF747FC00E000BF00BF00BFE1E7A0
:1023A000B9D8B5C600000000C8ABBAEC0000000008
:1023B000BBC6C9C100000000B6ABCEF7D6B1D0D0C5
:1023C00000000000C4CFB1B1D6B1D0D000000000F1
:1023D000B6ABCEF7D7F3D7AA00000000C4CFB1B197
:1023E000D7F3D7AA00000000CAD6B6AFBFD8D6C66A
:1023F000C8A1CFFB00000000D20D002070B505463B
:102400000C46062D05D00220FFF7EEFE0520FFF753
:10241000EBFE082D7ED2DFE805F086040A10161CBC
:10242000413B0522002141A0FEF758FD7CE005223A
:10243000002141A0FEF752FD76E00522002141A0D7
:10244000FEF74CFD70E00522002141A0FEF746FD9D
:102450006AE00B2205210020FEF760FE0C22052118
:102460001020FEF75BFE122205212020FEF756FE0B
:10247000132205213020FEF751FE142205214020B1
:10248000FEF74CFE152205215020FEF747FE4BE0DB
:102490000522002131A0FEF721FD45E00A2C03D1E1
:1024A0000020314908703DE00B2C1AD12E490978E3
:1024B000C906080E20220521FFF75EFE2A48007893
:1024C000002803DD28480078401E00E0002026494F
:1024D00008700978C906080E20220521FFF74CFE76
:1024E00020E00D2C01D13A2001E004F13000C4B20B
:1024F0001D480078132815DA1B490978C906080E0B
:1025000020220521FFF738FE17480078401C1649A5
:10251000087000E007E00978C906080E20220521AE
:10252000FFF72AFE00E000BF00BF70BDC1ACBDD305
:10253000B2BBB3C9B9A60000C1ACBDD3B3C9B9A67B
:1025400000000000B7A2CBCDCAA7B0DC000000009D
:10255000B7A2CBCDB3C9B9A600000000D5FDD4DA2F
:10256000B7A2CBCD00000000D30D0020FEF7DCFEAB
:10257000FEF79CFD00F072FAFFF7FEFAFEF73CFC56
:10258000FFF7FEF9FEF7C4FB0BE0FFF75FFD044623
:102590000448446001462046FFF7E4FB0148816897
:1025A0008847F2E71400002070B504461025002C7F
:1025B00001DB062C00DD70BD05E0E1B2EA06100E7D
:1025C00004A2FEF719FE2800A5F10105F5D100BF10
:1025D000F1E700002000000070B505460C46062D0E
:1025E00002D00120FFF7E0FF0B2D7BD2DFE805F0E2
:1025F0007A062F3A4550C4657B90A500062201213A
:102600000020FEF78BFD072201211020FEF786FD3A
:10261000082201212020FEF781FD0922012130201E
:10262000FEF77CFD0A2201214020FEF777FD0B22F8
:1026300001215020FEF772FD0C2201216020FEF7DF
:102640006DFD0D2201217020FEF768FDD1E01C22F6
:1026500001210020FEF762FD1D2201211020FEF75E
:102660005DFDC6E0182201210020FEF757FD19226A
:1026700001211020FEF752FDBBE01A2201210020AB
:10268000FEF74CFD1B2201211020FEF747FDB0E0B4
:102690001E2201210020FEF741FD1F2201211020F2
:1026A000FEF73CFD222201212020FEF737FD2322E8
:1026B00001213020FEF732FD9BE020220121002085
:1026C000FEF72CFD212201211020FEF727FD2222FA
:1026D00001212020FEF722FD232201213020FEF7D8
:1026E0001DFD86E084E01E2201210020FEF716FD7C
:1026F0001F2201211020FEF711FD2422012120209C
:10270000FEF70CFD252201213020FEF707FD70E0C9
:10271000202201210020FEF701FD212201211020AD
:10272000FEF7FCFC242201212020FEF7F7FC2522E5
:1027300001213020FEF7F2FC5BE02822012100207D
:10274000FEF7ECFC292201211020FEF7E7FC2A22EB
:1027500001212020FEF7E2FC2B2201213020FEF790
:10276000DDFC2C2201214020FEF7D8FC2D22012186
:102770005020FEF7D3FC3CE00A2C03D100201E4978
:10278000087034E00B2C18D11B490978C8002022AE
:102790000121FFF7F1FC18480078002803DD1648F6
:1027A0000078401E00E00020134908700978C80036
:1027B00020220121FFF7E0FC19E00C2C01D00D2CA8
:1027C00000D170BD04F13000C4B20B490978C800D3
:1027D00020220121FFF7D0FC07480078401C064961
:1027E00008700978C80020220121FFF7C5FC00E02D
:1027F00000BF00BF00BFE4E7900D002070B50546A4
:102800000C46062D05D00520FFF7CEFE0620FFF76B
:10281000CBFE082D7DD2DFE805F0D5041E33485DE0
:10282000927D002205211046FEF778FC0122052149
:102830001020FEF773FC102205212020FEF76EFC0D
:10284000022205213020FEF769FC032205214020E9
:10285000FEF764FCB7E0002205211046FEF75EFC9F
:10286000012205211020FEF759FC0222052120201B
:10287000FEF754FC032205213020FEF74FFCA2E0B6
:102880000E2205210020FEF749FC0F220521102011
:10289000FEF744FC042205212020FEF73FFC052220
:1028A00011463020FEF73AFC8DE00E220521002073
:1028B000FEF734FC0F2205211020FEF72FFC022228
:1028C00005212020FEF72AFC032205213020FEF7F7
:1028D00025FC78E00B2205210020FEF71FFC0C22CE
:1028E00005211020FEF71AFC122205212020FEF7F8
:1028F00015FC132205213020FEF710FC14220521BF
:102900004020FEF70BFC152205215020FEF706FCA7
:1029100059E057E0262205210020FEF7FFFB272281
:1029200005211020FEF7FAFB0E2205212020FEF7DC
:10293000F5FB0F2205213020FEF7F0FB43E00A2CC7
:1029400003D10020214908703BE00B2C1AD11F490C
:102950000978C906080E20220521FEF713FC1B4842
:102960000078002803DD19480078401E00E00020B0
:10297000164908700978C906080E5F220521FEF77E
:1029800001FC1EE00D2C01D13A2001E004F13000E1
:10299000C4B20E480078132813DA0C490978C90626
:1029A000080E22460521FEF7EDFB08480078401C82
:1029B000064908700978C906080E5F220521FEF74E
:1029C000E1FB00E000BF00BF70BD0000910D0020E2
:1029D00010B504460548006838B105480460012078
:1029E000044908606420FFF74BF810BDC0010020C7
:1029F000C8010020C401002010B50346002109E0F1
:102A0000064C34F81120FF2A02DD4FF0FF3010BDD4
:102A10005A54491C0529F3D30020F8E70080000828
:102A200070B5054600240120FEF764FDFDF7D0FFD8
:102A30003420FDF743FF0848FDF746FF06E0295D17
:102A4000054A02EB4400FDF797FF641C052CF6D302
:102A5000FDF77AFF70BD00000080000800B587B068
:102A600042202E49C877E020ADF8180018208DF8D4
:102A70001B0003208DF81A0006A92948FEF7AEF8BE
:102A80001020ADF818008DF81B0003208DF81A00F7
:102A900006A92448FEF7A2F81020ADF818008DF81A
:102AA0001B0003208DF81A0006A91D48FEF796F8B2
:102AB00010211B48FEF728F92020ADF81800482007
:102AC0008DF81B0006A91748FEF788F80020ADF81E
:102AD00004004FF48270ADF806000020ADF8080045
:102AE000ADF80A00ADF80C004FF40070ADF80E0020
:102AF0003820ADF810000020ADF812000720ADF826
:102B000014000948FEF740FD01A90748FEF776FDCD
:102B100001210548FEF72CFD07B000BD9E010020F5
:102B200000080140001001400030014010B504468B
:102B300010210E48FEF7E6F821460D48FEF75CFD31
:102B400000F034F800210A48FEF756FD00BF0121CD
:102B50000748FEF745FD0028F9D010210348FEF78D
:102B6000D3F80348FEF745FDC0B210BD0008014090
:102B70000030014070B504460D4610210948FEF7AB
:102B8000C1F821460848FEF737FD00F00FF8294646
:102B90000548FEF731FD00F009F810210148FEF765
:102BA000B3F870BD000801400030014010B500BF0F
:102BB00002210448FEF714FD0028F9D00320FDF798
:102BC00059FE10BD00300140000000000000000070
:102BD000002F000000000700070000147F147F147E
:102BE00000242A7F2A120062640813230036495504
:102BF000225000000503000000001C2241000000DC
:102C000041221C000014083E08140008083E080871
:102C1000000000A0600000080808080800006060CC
:102C20000000002010080402003E5149453E00000B
:102C3000427F4000004261514946002141454B31ED
:102C4000001814127F10002745454539003C4A49B9
:102C5000493000017109050300364949493600062B
:102C60004949291E00003636000000005636000093
:102C7000000814224100001414141414000041220E
:102C8000140800020151090600324959513E007CE6
:102C90001211127C007F49494936003E41414122D0
:102CA000007F4141221C007F49494941007F0909B9
:102CB0000901003E4149497A007F0808087F000069
:102CC000417F4100002040413F01007F0814224124
:102CD000007F40404040007F020C027F007F0408DC
:102CE000107F003E4141413E007F09090906003E38
:102CF0004151215E007F0919294600464949493161
:102D00000001017F0101003F4040403F001F204083
:102D1000201F003F4038403F006314081463000741
:102D20000870080700615149454300007F41410098
:102D300000552A552A55000041417F000004020138
:102D40000204004040404040000001020400002016
:102D500054545478007F4844443800384444442054
:102D600000384444487F00385454541800087E0901
:102D700001020018A4A4A47C007F080404780000C9
:102D8000447D4000004080847D00007F1028440086
:102D90000000417F4000007C04180478007C080497
:102DA000047800384444443800FC242424180018D3
:102DB000242418FC007C08040408004854545420BF
:102DC00000043F444020003C4040207C001C204048
:102DD000201C003C4030403C004428102844001C8B
:102DE000A0A0A07C004464544C4414141414141483
:102DF00000000000000000000000000000000000D3
:102E0000000000F800000000000000333000000067
:102E100000100C06100C060000000000000000006E
:102E200040C07840C0784000043F04043F040400E0
:102E3000007088FC08300000001820FF211E0000F0
:102E4000F008F000E018000000211C031E211E0005
:102E500000F00888700000001E212324192721108B
:102E600010160E000000000000000000000000002E
:102E7000000000E0180402000000000718204000D5
:102E800000020418E00000000040201807000000C5
:102E9000404080F0804040000202010F0102020029
:102EA000000000F0000000000101011F010101000D
:102EB000000000000000000080B070000000000072
:102EC00000000000000000000001010101010101FB
:102ED0000000000000000000003030000000000092
:102EE0000000000080601804006018060100000067
:102EF00000E010080810E000000F102020100F0064
:102F0000001010F8000000000020203F20200000EA
:102F10000070080808887000003028242221300042
:102F200000300888884830000018202020110E004A
:102F30000000C02010F8000000070424243F2400F3
:102F400000F80888880808000019212020110E00C8
:102F500000E0108888180000000F112020110E00DA
:102F600000380808C83808000000003F00000000D2
:102F70000070880808887000001C222121221C0093
:102F800000E010080810E0000000312222110F00BC
:102F9000000000C0C0000000000000303000000051
:102FA00000000080000000000000806000000000C1
:102FB00000008040201008000001020408102000DA
:102FC0004040404040404000040404040404040025
:102FD00000081020408000000020100804020100BA
:102FE000007048080808F0000000003036010000BA
:102FF000C030C828E810E0000718272423140B006D
:103000000000C038E0000000203C230202273820E6
:1030100008F8888888700000203F202020110E00CA
:10302000C0300808080838000718202020100800C1
:1030300008F808080810E000203F202020100F00AA
:1030400008F88888E8081000203F20202320180076
:1030500008F88888E8081000203F200003000000DE
:10306000C03008080838000007182020221E02007F
:1030700008F808000008F808203F210101213F203E
:10308000000808F8080800000020203F2020000069
:1030900000000808F8080800C08080807F00000059
:1030A00008F888C028180800203F20012638200092
:1030B00008F8080000000000203F202020203000F9
:1030C00008F8F800F8F80800203F003F003F200013
:1030D00008F830C00008F808203F200007183F001B
:1030E000E01008080810E0000F10202020100F004A
:1030F00008F808080808F000203F2101010100003D
:10310000E01008080810E0000F18242438504F0081
:1031100008F8888888887000203F2000030C302041
:1031200000708808080838000038202121221C007F
:10313000180808F8080818000000203F20000000C8
:1031400008F808000008F808001F202020201F00B1
:103150000878880000C83808000007380E01000011
:10316000F80800F80008F800033C0700073C0300DB
:10317000081868808068180820302C03032C302041
:103180000838C800C83808000000203F20000000B0
:1031900010080808C8380800203826212020180008
:1031A000000000FE020202000000007F40404000DC
:1031B000000C30C000000000000000010638C00014
:1031C00000020202FE000000004040407F000000BC
:1031D00000000402020204000000000000000000E1
:1031E00000000000000000008080808080808080DF
:1031F00000020204000000000000000000000000C7
:1032000000008080808000000019242222223F20BC
:1032100008F8008080000000003F112020110E00FF
:103220000000008080800000000E1120202011008E
:10323000000000808088F800000E112020103F2040
:103240000000808080800000001F222222221300C4
:10325000008080F0888888180020203F202000000F
:103260000000808080808000006B949494936000C4
:1032700008F8008080800000203F210000203F20CF
:1032800000809898000000000020203F20200000CF
:10329000000000809898000000C08080807F0000BF
:1032A00008F8000080808000203F24022D3020009C
:1032B000000808F8000000000020203F2020000047
:1032C0008080808080808000203F20003F20003F61
:1032D0008080008080800000203F210000203F206F
:1032E0000000808080800000001F202020201F0020
:1032F000808000808000000080FFA12020110E004F
:103300000000008080808000000E112020A0FF803F
:10331000808080008080800020203F2120000100EC
:103320000000808080808000003324242424190041
:10333000008080E0808000000000001F202000004E
:103340008080000000808000001F202020103F208F
:10335000808080000080808000010E30080601001F
:1033600080800080008080800F300C030C300F00C4
:1033700000808000808080000020312E0E312000EF
:10338000808080000080808080818E70180601001F
:1033900000808080808080000021302C222130003D
:1033A00000000000807C020200000000003F40405E
:1033B00000000000FF00000000000000FF0000000F
:1033C0000002027C800000000040403F000000003E
:1033D00000060101020204040000000000000000D9
:1033E0003100000808FC0000000000040407040489
:1033F000003200000804844438000000060504047C
:10340000040033000008044444B80000000204042F
:10341000040300340000806018FC0000000001017B
:10342000050705003500007C444444840000000288
:103430000404040300360000F04844448000000007
:103440000304040403003700000C0484641C00001F
:1034500000000601000000380000B8444444B800F1
:10346000000003040404030039000038444444F815
:10347000000000000404020100300000F80404040D
:10348000F80000000304040403005F0000000000D3
:103490000000008080808080808080CAC70000009B
:1034A0007F494949494949497F000000008141213C
:1034B0001D214181FF8989898989818100B7F100B6
:1034C000028282422212FA06222242428200000135
:1034D0000100FC44444445444444FC00000100C154
:1034E000AC404042CC000444645C47F4444444048F
:1034F000000040201F2044444444447F444444444A
:1035000000BDD3101010FF1050445465C6446454DD
:103510004440000444827F0182824A562322524E54
:10352000820200B3C90000F8888888880808FF086C
:10353000090AC8080080601F0010201F8040211663
:10354000182641F800B9A6080808F808080810105D
:10355000FF101010F000001030101F088848300EC7
:10356000014080403F0000B2BB00020202028242E2
:10357000F20E428202020200001008040201000062
:10358000FF00000001020C0000B7A2000018161096
:10359000D0B89790909092941000000020108C83E7
:1035A0008041462810284443808000CBCD404042D3
:1035B000CC0088898E88F8888C8B88800000402019
:1035C0001F204050484641424458404000CAA7008E
:1035D00040301E101010FF101010101000000000DE
:1035E000000000000000000000000000000000815A
:1035F000814121110D0301030D1121418181000041
:1036000000000000000000000000000000000000BA
:1036100000B0DC00FE02FA02FE4020D8171010F0C5
:103620001010008047300F106780402116081621C7
:10363000408000D5FD000202C2020202FE828282A8
:1036400082820200004040407F4040407F40404036
:103650004040404000D4DA080888C8380C0B0808FD
:10366000E8080808080800020100FF404141414104
:103670007F414141414000C8AB80804020504844D8
:10368000C3444850204080800000404044444444AB
:103690007F4444444440400000BAEC2030AC6320F6
:1036A0001800040404FC040404000022672212121F
:1036B00012404040407F4040404000BBC6101012C6
:1036C000D2525F52F2525F52D2121010000000002C
:1036D0009F5232121F1232529F00000000C9C100D7
:1036E000F80102000202F20202020202FE000000E1
:1036F000FF00000804030001020C40807F0000B9B5
:10370000D800001011161010F01010141310000043
:10371000008181414121110D030D11214141818120
:1037200000B5C6807000FF201004040404FC0404EB
:10373000040400806018070830000040807F00000B
:10374000000000B6AB0008884828180FE8080808F1
:103750000808080000002011090541817F010105CA
:103760000911200000CEF70202E22222FE222222CC
:10377000FE2222E20202000000FF48444340404093
:10378000434444FF000000C4CF04E4242464A42480
:103790003F24A4642424E4040000FF00080909096C
:1037A0007F09090948807F0000B1B1002020202056
:1037B000FF000000FF4020100800002060201010D3
:1037C000FF0000003F404040407800D6B1000404B4
:1037D000F49494949F949494F40404000040404022
:1037E0007F4A4A4A4A4A4A4A7F40404000D0D00075
:1037F0001088C4330040424242C24242424000026A
:103800000100FF0000000040807F0000000000D7A2
:10381000F30808080888780F080808080808080846
:103820000020104846414141417F414141414040D3
:1038300000D7AAC8B88FE88888404848E85F484859
:10384000484000081808FF040400020B1222D20AA4
:10385000060000D5FD000202C2020202FE82828240
:1038600082820200004040407F4040407F40404014
:103870004040404000D4DA080888C8380C0B0808DB
:10388000E8080808080800020100FF4041414141E2
:103890007F414141414000CAD60000242424242411
:1038A000FC222222232200000002020202024282A3
:1038B0007F0202020202020200B6AF4044C4444446
:1038C00044401010FF101010F00000103C131014B2
:1038D000B840300E014080403F0000BFD8101010AB
:1038E000FF9020984828090E2848A8180002428115
:1038F0007F0040404242427E4242424000D6C640A3
:10390000504E4848FF48484840F80000FF0000007B
:10391000003E0202FF12221E000F40807F0000C8FE
:10392000A10202FE929292FE0206FC040404FC0034
:103930000008180F080804FF048440271827408057
:1039400000CFFB1060020CC000E22C203F2028E6D4
:1039500000000004047C030000FF09090949897F75
:103960000000000000000000000000000000000057
:10397000000000000000F8000000000000003330EC
:1039800000000000100C06100C06000000000000F3
:1039900000000040C07840C0784000043F04043F6D
:1039A000040400007088FC08300000001820FF218B
:1039B0001E0000F008F000E018000000211C031EAB
:1039C000211E0000F00888700000001E2123241929
:1039D00027211010160E000000000000000000005B
:1039E000000000000000E0180402000000000718BA
:1039F00020400000020418E00000000040201807EA
:103A0000000000404080F0804040000202010F01B1
:103A1000020200000000F0000000000101011F018F
:103A2000010100000000000000000080B0700000F4
:103A30000000000000000000000000000101010182
:103A40000101010000000000000000003030000013
:103A500000000000000000806018040060180601EB
:103A600000000000E010080810E000000F10202007
:103A7000100F00001010F8000000000020203F2070
:103A800020000000700808088870000030282422F8
:103A9000213000003008888848300000182020209D
:103AA000110E000000C02010F800000007042424BC
:103AB0003F240000F8088888080800001921202009
:103AC000110E0000E0108888180000000F1120205F
:103AD000110E0000380808C83808000000003F0038
:103AE0000000000070880808887000001C22212156
:103AF000221C0000E010080810E000000031222223
:103B0000110F00000000C0C00000000000003030B5
:103B10000000000000008000000000000080600045
:103B2000000000000080402010080000010204088E
:103B30001020004040404040404000040404040481
:103B40000404000008102040800000002010080439
:103B5000020100007048080808F00000000030363C
:103B6000010000C030C828E810E00007182724230F
:103B7000140B000000C038E0000000203C230202CB
:103B800027382008F8888888700000203F202020EF
:103B9000110E00C03008080808380007182020203F
:103BA00010080008F808080810E000203F20202036
:103BB000100F0008F88888E8081000203F20202314
:103BC00020180008F88888E8081000203F2000032B
:103BD000000000C030080808380000071820202224
:103BE0001E020008F808000008F808203F21010123
:103BF000213F20000808F8080800000020203F208E
:103C000020000000000808F8080800C08080807FBD
:103C100000000008F888C028180800203F2001266E
:103C200038200008F8080000000000203F20202075
:103C300020300008F8F800F8F80800203F003F00A6
:103C40003F200008F830C00008F808203F20000797
:103C5000183F00E01008080810E0000F1020202096
:103C6000100F0008F808080808F000203F210101A3
:103C7000010000E01008080810E0000F18242438A4
:103C8000504F0008F8888888887000203F20000383
:103C90000C302000708808080838000038202121E6
:103CA000221C00180808F8080818000000203F200F
:103CB00000000008F808000008F808001F20202075
:103CC000201F000878880000C83808000007380E58
:103CD000010000F80800F80008F800033C0700079E
:103CE0003C0300081868808068180820302C030303
:103CF0002C30200838C800C83808000000203F20B9
:103D000000000010080808C83808002038262120C4
:103D1000201800000000FE020202000000007F40A8
:103D2000404000000C30C000000000000000010610
:103D300038C00000020202FE000000004040407F48
:103D40000000000000040202020400000000000065
:103D500000000000000000000000008080808080E3
:103D600080808000020204000000000000000000CB
:103D700000000000008080808000000019242222C2
:103D8000223F2008F8008080000000003F11202022
:103D9000110E000000008080800000000E11202025
:103DA000201100000000808088F800000E11202003
:103DB000103F200000808080800000001F2222220F
:103DC000221300008080F0888888180020203F207F
:103DD0002000000000808080808000006B9494941C
:103DE00093600008F8008080800000203F210000E0
:103DF000203F2000809898000000000020203F20F5
:103E0000200000000000809898000000C0808080A2
:103E10007F000008F8000080808000203F24022DF1
:103E2000302000000808F8000000000020203F209B
:103E30002000008080808080808000203F20003F24
:103E400020003F8080008080800000203F21000013
:103E5000203F200000808080800000001F20202064
:103E6000201F00808000808000000080FFA12020B3
:103E7000110E000000008080808000000E112020C4
:103E8000A0FF80808080008080800020203F212053
:103E90000001000000808080808000003324242402
:103EA000241900008080E0808000000000001F20B6
:103EB0002000008080000000808000001F20202063
:103EC000103F20808080000080808000010E30083C
:103ED00006010080800080008080800F300C030C81
:103EE000300F0000808000808080000020312E0E86
:103EF000312000808080000080808080818E70185A
:103F000006010000808080808080000021302C220B
:103F100021300000000000807C0202000000000050
:103F20003F404000000000FF00000000000000FFD4
:103F30000000000002027C800000000040403F00C2
:103F4000000000000601010202040400000000005D
:103F50000000000000000000000000000000000061
:103F6000000000000000F8000000000000003330F6
:103F700000000000100C06100C06000000000000FD
:103F800000000040C07840C0784000043F04043F77
:103F9000040400007088FC08300000001820FF2195
:103FA0001E0000F008F000E018000000211C031EB5
:103FB000211E0000F00888700000001E2123241933
:103FC00027211010160E0000000000000000000065
:103FD000000000000000E0180402000000000718C4
:103FE00020400000020418E00000000040201807F4
:103FF000000000404080F0804040000202010F01BC
:10400000020200000000F0000000000101011F0199
:10401000010100000000000000000080B0700000FE
:10402000000000000000000000000000010101018C
:10403000010101000000000000000000303000001D
:1040400000000000000000806018040060180601F5
:1040500000000000E010080810E000000F10202011
:10406000100F00001010F8000000000020203F207A
:104070002000000070080808887000003028242202
:1040800021300000300888884830000018202020A7
:10409000110E000000C02010F800000007042424C6
:1040A0003F240000F8088888080800001921202013
:1040B000110E0000E0108888180000000F11202069
:1040C000110E0000380808C83808000000003F0042
:1040D0000000000070880808887000001C22212160
:1040E000221C0000E010080810E00000003122222D
:1040F000110F00000000C0C00000000000003030C0
:10410000000000000000800000000000008060004F
:104110000000000000804020100800000102040898
:10412000102000404040404040400004040404048B
:104130000404000008102040800000002010080443
:10414000020100007048080808F000000000303646
:10415000010000C030C828E810E000071827242319
:10416000140B000000C038E0000000203C230202D5
:1041700027382008F8888888700000203F202020F9
:10418000110E00C030080808083800071820202049
:1041900010080008F808080810E000203F20202040
:1041A000100F0008F88888E8081000203F2020231E
:1041B00020180008F88888E8081000203F20000335
:1041C000000000C03008080838000007182020222E
:1041D0001E020008F808000008F808203F2101012D
:1041E000213F20000808F8080800000020203F2098
:1041F00020000000000808F8080800C08080807FC8
:1042000000000008F888C028180800203F20012678
:1042100038200008F8080000000000203F2020207F
:1042200020300008F8F800F8F80800203F003F00B0
:104230003F200008F830C00008F808203F200007A1
:10424000183F00E01008080810E0000F10202020A0
:10425000100F0008F808080808F000203F210101AD
:10426000010000E01008080810E0000F18242438AE
:10427000504F0008F8888888887000203F2000038D
:104280000C302000708808080838000038202121F0
:10429000221C00180808F8080818000000203F2019
:1042A00000000008F808000008F808001F2020207F
:1042B000201F000878880000C83808000007380E62
:1042C000010000F80800F80008F800033C070007A8
:1042D0003C0300081868808068180820302C03030D
:1042E0002C30200838C800C83808000000203F20C3
:1042F00000000010080808C83808002038262120CF
:10430000201800000000FE020202000000007F40B2
:10431000404000000C30C00000000000000001061A
:1043200038C00000020202FE000000004040407F52
:10433000000000000004020202040000000000006F
:1043400000000000000000000000008080808080ED
:1043500080808000020204000000000000000000D5
:1043600000000000008080808000000019242222CC
:10437000223F2008F8008080000000003F1120202C
:10438000110E000000008080800000000E1120202F
:10439000201100000000808088F800000E1120200D
:1043A000103F200000808080800000001F22222219
:1043B000221300008080F0888888180020203F2089
:1043C0002000000000808080808000006B94949426
:1043D00093600008F8008080800000203F210000EA
:1043E000203F2000809898000000000020203F20FF
:1043F000200000000000809898000000C0808080AD
:104400007F000008F8000080808000203F24022DFB
:10441000302000000808F8000000000020203F20A5
:104420002000008080808080808000203F20003F2E
:1044300020003F8080008080800000203F2100001D
:10444000203F200000808080800000001F2020206E
:10445000201F00808000808000000080FFA12020BD
:10446000110E000000008080808000000E112020CE
:10447000A0FF80808080008080800020203F21205D
:10448000000100000080808080800000332424240C
:10449000241900008080E0808000000000001F20C0
:1044A0002000008080000000808000001F2020206D
:1044B000103F20808080000080808000010E300846
:1044C00006010080800080008080800F300C030C8B
:1044D000300F0000808000808080000020312E0E90
:1044E000312000808080000080808080818E701864
:1044F00006010000808080808080000021302C2216
:1045000021300000000000807C020200000000005A
:104510003F404000000000FF00000000000000FFDE
:104520000000000002027C800000000040403F00CC
:104530000000000006010102020404000000000067
:10454000000000006445000800000020D40D0000B9
:104550006C010008244B0008D40D002094060000D4
:10456000C80100088132012D3443101008411AFFA0
:1045700001136D0A021108B51001404029305A029A
:1045800018DA80185A0518390D991839552918392B
:10459000398918511A0818997629186A0B18CA040B
:1045A000186A0918D9486A0618D9786A0318CA100F
:1045B00018420D0A100C786A0C18D930395729188E
:1045C000CA2018399F2918CA40186A0718CA8018C3
:1045D000420A7BA24AD6380E0102030406070809E4
:1045E00034431010010502213769E31AFF01411518
:1045F000404042CC780A0444645C47F44444445B41
:10460000A11D40201F201A2C44447F050111980F42
:10461000101010FF1050445465C644645444C971CE
:104620000010130444827F0182824A562322524E94
:1046300082021BF888010009110808FF08090AC84E
:10464000081480601F000C1110201F8040211618D4
:104650002641F81D080808F804298604121010F0F5
:10466000000F131030101F088848300E01408040A2
:104670003F3C40301EC429010113001012818141CA
:1046800021110D0301030D1121418181180AFE0240
:10469000FA02FE4020D8177F0911422F8047300FC1
:1046A0001067BF06110816214080080F1088681F88
:1046B000C80810C85452D1129408D04016091909DC
:1046C000FF0515FF1292FF04175F807F051701E2B7
:1046D0001CE037804020100C030E10030C3040808B
:1046E0008011158060F807080A1004242425262468
:1046F0002424045B2132FF2BF949010A11F93F4DB3
:104700008080BEA2011ABE0C0114000A1406050422
:1047100004044484443C171010D0FF90100614FE8B
:10472000020202FE1B0403803483601F05113F4018
:104730004078080F11202020FF202080F88040FFC3
:104740002010F0602E30100F08083C0D165F424418
:104750004340111AF8E70C15404040402D48407F77
:1047600040030912210121031E3636000D131816CD
:1047700010D0B897909090929410000F1120108C48
:10478000838041462810284443808015404042CC15
:10479000080A1088898E88F8888C8B882011080D6B
:1047A0001240201F204050484641424458C01A023F
:1047B000011F8242F20E42820901122610080402F1
:1047C0000132FF041201020C100908CC4A49484A80
:1047D000CC1807127F88888482E027FF1212529239
:1047E0007F0A147E20080D111010D0FF90201018A1
:1047F000A744A4145F111B04037C0809110502FDE2
:1048000044444445FDA12C101090010009121010E1
:10481000FF101011161010082060203F1010100714
:1048200011030C102040F8380A4030EF2464484847
:104830007F48040211401601017F21112BFF49011D
:104840000213FF244042CC2C809E920103149E80D0
:10485000080E137F2094844424140F142444848469
:1048600021395D041449497F280A8141211D2141D4
:1048700081FF890103128181000E1202828242228D
:1048800012FA0622224242821301011EFC444444D1
:1048900045041AFC0E0111080F1180804020504879
:1048A00044C3444850204080C11B40403B2B447FC0
:1048B0000503124040172030AC6320181D04040487
:1048C000FC040112180822672212121240012A7FEA
:1048D0000501111809101012D2525F52F20405148A
:1048E000D2121010000A159F5232121F1232529F1C
:1048F00014F801022D0202F202010213FE22FF143B
:10490000080403071401020C40807F080B121011E9
:10491000161010F0101014137E0010118181414107
:1049200021110D030D1121414181811380701CFF64
:104930002010FB2B04FC0509102026601807083006
:1049400009157D199D3808884828180FE8080101C5
:1049500013000E122011090541817F010105091183
:104960002038080202E22222FE22040413E202029C
:10497000000C13FF484443404040434444FF080FA9
:104980001004E4242464A4243F24A4642424E4C064
:104990001112FF1E080909097F040A1348C31A20CF
:1049A0000129590D11FF402010C02E206020101049
:1049B000201A3F840B114078811F04F49494949F33
:1049C000040B11F4047F19354B7F4A011A7F0C0147
:1049D00012151088C4331E40424242C204091020FE
:1049E0001B0201C229480913BD211A08012C88782D
:1049F0000F0729010910C01D10484641012A7F05F3
:104A0000091180080F10C8B88FE88888404848E826
:104A10005F484848201D081808FFD8000813020BFB
:104A20001222D20A0628090202C2020202FE8201F2
:104A300002120219F429F8290429010911C00809F0
:104A40001488C8380C0B0808E8C01302018BFF401B
:104A5000C101132A24010F13FC22222223229F19B1
:104A6000013C42827F080A1002A1000F124044C498
:104A7000444444401010FF101010F0080F11103C77
:104A8000131014B840300E014080403F20193A08FE
:104A90000C109020984828090E2848A81880144225
:104AA000817F1F40404242427E040910C0200C40DA
:104AB000504E4848FF48484840F80214FF10083E4E
:104AC0000202FF12221E0D120F40807FE0000D1225
:104AD000FE929292FE0206FC040404FC08101008E8
:104AE000180F080804FF0484402718274080C015C9
:104AF00060020CC0000813E22C203F2028E61D04B1
:104B0000047C03990E1109090949897F7113F0F09A
:104B10004AFFBD490A4903091D200E428850205012
:044B200088420000C7
:0400000508000131BD
:00000001FF
