:020000040800F2
:1000000038180020150200086D0D0008C90C000802
:10001000690D00089306000855180008000000004C
:10002000000000000000000000000000BD160008F5
:100030003908000800000000E1120008D11700088C
:100040002F0200082F0200082F0200082F020008CC
:100050002F0200082F020008550800082F02000890
:100060002F0200082F0200082F0200082F020008AC
:100070002F0200082F0200082F0200082F0200089C
:100080002F0200082F0200082F0200082F0200088C
:100090002F0200082F0200082F0200086B0800083A
:1000A0002F0200082F0200082F0200082F0200086C
:1000B0002F0200082F0200082F0200082F0200085C
:1000C0002F0200082F0200082F0200082F0200084C
:1000D0002F0200082F0200082F0200082F0200083C
:1000E0005F0800082F0200082F0200082F020008F6
:1000F0002F0200082F0200082F0200082F0200081C
:100100002F0200082F0200082F0200082F0200080B
:100110002F0200082F0200082F0200082F020008FB
:100120002F0200082F0200082F0200082F020008EB
:1001300000F002F800F05FF80AA090E8000C82449A
:100140008344AAF10107DA4501D100F054F8AFF277
:10015000090EBAE80F0013F0010F18BFFB1A43F0A5
:1001600001031847642D0000842D00000A444FF05D
:10017000000C10F8013B13F0070408BF10F8014B06
:100180001D1108BF10F8015B641E05D010F8016B4B
:10019000641E01F8016BF9D113F0080F1EBF10F8AF
:1001A000014BAD1C0C1B09D16D1E58BF01F801CBD2
:1001B000FAD505E014F8016B01F8016B6D1EF9D555
:1001C0009142D6D37047000000230024002500266A
:1001D000103A28BF78C1FBD8520728BF30C148BFAA
:1001E0000B607047642900F07D80002070471FB5C8
:1001F0001FBD10B510BD00F052F91146FFF7F7FF13
:1002000001F0C8FE00F070F903B4FFF7F2FF03BC81
:1002100000F074F90948804709480047FEE7FEE707
:10022000FEE7FEE7FEE7FEE7FEE7FEE7FEE7FEE7A6
:1002300004480549054A064B70470000F5170008B9
:10024000310100083812002038180020381400202E
:10025000381400200FB41CB5074B06AA7B4469462E
:100260000090059800F003F90020694600F012F9AB
:100270001CBC5DF814FB0000350200002DE9F041C4
:100280000E460446002020622046E168884730B3CD
:10029000252805D0D4E901219047206A401CF2E7C7
:1002A000E168204600278847050018D0A5F14100E5
:1002B000192802D820354FF40067324629462046D7
:1002C0002760FFF78FFF40B1012804D0F61D26F00C
:1002D00007060836D8E7361DD6E72846DAE7206A4B
:1002E000BDE8F0812DE9F04106460024106875292B
:1002F000314616A510D0AFF30080002802DA404244
:1003000013A507E031688A0701D512A502E0490765
:1003100004D511A5012401E0AFF3008000210A22D9
:1003200006F1240709E0B0FBF2FCB0FBF2F302FB9C
:100330001C00303078541846491C0028F3D123465D
:100340002A463046BDE8F04100F032B80000000017
:100350002D0000002B000000200000004FF00002E4
:1003600000B5134694469646203922BFA0E80C50AB
:10037000A0E80C50B1F12001BFF4F7AF090728BF86
:10038000A0E80C5048BF0CC05DF804EB890028BF02
:1003900040F8042B08BF704748BF20F8022B11F02B
:1003A000804F18BF00F8012B7047704770477047A7
:1003B0002DE9F0470D4699469246044600F124087F
:1003C0000168880604D5E06921F01001216000E091
:1003D0000120A84201DD471B00E00027A1697A192E
:1003E00002EB0900081AA0612078C00602D420465A
:1003F000AFF30080002608E0D4E901211AF80600D6
:100400009047206A401C761C20624E45F4DB207821
:10041000C0060AD52046AFF3008006E0D4E90121EA
:1004200030209047206A401C2062381EA7F1010747
:10043000F4DC07E0D4E9012118F805009047206AB0
:10044000401C2062281EA5F10105F3DC2046AFF315
:1004500000802078000602D50220BDE8F087012048
:10046000FBE7000001694A1C02610878704700B58B
:100470008FB0CDE901310021059105497944CDE9DD
:10048000031011466846FFF7F9FE0FB000BD0000EB
:10049000E5FFFFFF0A6802F8010B0A607047754626
:1004A00000F028F8AE4605006946534620F00700E4
:1004B000854618B020B5FFF7BBFEBDE820404FF0E1
:1004C00000064FF000074FF000084FF0000B21F03E
:1004D0000701AC46ACE8C009ACE8C009ACE8C0090B
:1004E000ACE8C0098D4670470446AFF30080204653
:1004F000FFF78AFE00487047D811002001491820F4
:10050000ABBEFEE726000200704721B1826842F0D0
:100510000102826003E0826822F00102826070477B
:1005200021B1826842F48072826003E0826822F422
:10053000807282607047014600208A6802F00402DF
:100540000AB1012000E000207047014600208A68BF
:1005500002F008020AB1012000E00020704700000C
:1005600030B502460020002350680F4C20400D7922
:100570000C6844EA05242043506090680B4C2040EE
:10058000D1E902542C434D7944EA4504204390605C
:10059000D06A20F470000C7C641EE4B2234340EA6D
:1005A0000350D06230BD0000FFFEF0FFFDF7F1FF09
:1005B000F0B504460D4600200021092D11DDE0684C
:1005C000A5F10A0606EB4607072606FA07F1884357
:1005D000A5F10A0606EB460603FA06F10843E060B9
:1005E0000CE0206905EB4507072606FA07F188436A
:1005F00005EB450603FA06F108432061072A0FDAE6
:10060000606B561E06EB86071F2606FA07F1884325
:10061000561E06EB860605FA06F10843606322E0E3
:100620000D2A0FDA206BD61F06EB86071F2606FA67
:1006300007F18843D61F06EB860605FA06F1084344
:10064000206310E0E06AA2F10D0606EB86071F2684
:1006500006FA07F18843A2F10D0606EB860605FAB5
:1006600006F10843E062F0BD816841F00801816055
:10067000704721B1826842F4A002826003E0826880
:1006800022F4A00282607047816841F00401816019
:10069000704700BFFEE721B1026842F0010202602C
:1006A00004E002684FF6FE731A40026070470000D3
:1006B00001684FF6FE721140016000210160416047
:1006C0008160C1604B49884208D14A49083949686C
:1006D00041F00F01474A083A51608AE04549143118
:1006E000884208D143490839496841F0F001414A3C
:1006F000083A51607DE03F492831884208D13D49A0
:100700000839496841F470613A4A083A516070E02A
:1007100038493C31884208D136490839496841F4A2
:100720007041344A083A516063E03249503188429E
:1007300008D130490839496841F470212D4A083AF6
:10074000516056E02B496431884208D12949083963
:10075000496841F47001274A083A516049E0254947
:100760007831884208D123490839496841F07061DD
:10077000204A083A51603CE01F49884206D1011FD7
:10078000096841F00F01021F116032E01A4914316B
:10079000884208D11849091F096841F0F001164A3A
:1007A000121F116025E014492831884208D11249EE
:1007B000091F096841F470610F4A121F116018E0A7
:1007C0000D493C31884208D10B49091F096841F4A1
:1007D0007041094A121F11600BE0074950318842ED
:1007E00007D10549091F096841F47021024A121F07
:1007F00011607047080002400804024010B5002252
:10080000026847F6F0739A430C6A8B6823430C69BD
:1008100023434C6923438C692343CC6923434C6AAB
:1008200023438C6A23431A430260CB6843600B68FE
:1008300083604B68C36010BD704700000021044A0C
:10084000116000BF024909688842FBD87047000068
:100850002800002010B5012000F00EF810BD10B5E2
:100860004FF47C4000F008F810BD10B54FF4FC6068
:1008700000F002F810BD0000014908607047000058
:10088000140401400149C860704700000020024084
:1008900030B5044604254FF4302000F089F80546B1
:1008A000042D17D10C48006940F002000A49086184
:1008B00008464461006940F0400008614FF4302070
:1008C00000F076F805460448006941F6FD710840DD
:1008D00001490861284630BD0020024004200B4930
:1008E000C96801F0010109B101200EE00749C9689A
:1008F00001F0040109B1022007E00449C96801F0D0
:10090000100109B1032000E00420704700200240DC
:100910000348006940F08000014908617047000009
:10092000002002400549096821F01001034A1160C6
:100930001146096801431160704700000020024021
:1009400070B504460D460426F00200F031F8064664
:10095000042E11D10948006940F0010007490861DF
:100960002580F00200F024F806460448006941F6AC
:10097000FE71084001490861304670BD0020024008
:1009800001460020034A106800F038000843106058
:1009900070470000002002400248034948600348B5
:1009A000486070472301674500200240AB89EFCDC6
:1009B00000B502460423FFF791FF034603E0FFF76B
:1009C0008DFF0346521E012B01D1002AF7D102B937
:1009D0000523184600BD000010B588B0044620214C
:1009E0006846FFF7BBFC6068401CF8B10021072097
:1009F00001F050FC9620FFF721FFA18888B26946DC
:100A000001F0A8FA01F0DCF8684600F0B1F920B96D
:100A10000021042001F03EFC06E00021032001F04B
:100A200039FC034800F002FA01F0B8F908B010BD33
:100A30000C00002030B58BB00446202103A8FFF73E
:100A40008DFC4DA1002001F0E1FA012001F0E8FA4F
:100A5000022001F0C3FA042001F0C0FA474801F077
:100A600017FD401C00283DD0444800794349C9780F
:100A7000424A9278CDE900210290404843780278BA
:100A80003FA103A8FFF7E6FB03AA0221002000F024
:100A9000D1FB16220621002000F05EFB1722062162
:100AA000702000F059FB1BE001F0EAF905460C2D1F
:100AB00000D116E00D2D13D1022001F08FFA042091
:100AC00001F08CFA062001F089FA0021012001F0E2
:100AD000C7FA00BF294801F073F90028FAD100E0F5
:100AE000E2E712E0022001F079FA042001F076FA40
:100AF000062001F073FA0021012001F0B1FA00BFD5
:100B00001E4801F05DF90028FAD11C4800F08EF96A
:100B100003A800F02DF9B8B10021012001F0BAFBC3
:100B200015A1002001F072FA012001F079FA0220EB
:100B300001F054FA00202070AFF20710A0604FF4CB
:100B4000FA60FFF77BFE14E00021022001F0A2FB17
:100B50000FA1002001F05AFA002001F061FA0220F2
:100B600001F03CFA012020700A48A060034801F01F
:100B7000A3FC0BB030BD00004E0000000C000020B4
:100B800025643A25643A25643A25643A25640000D0
:100B900046000000D90900082DE9F0410246002571
:100BA0000026002000230024002791F803C00CF049
:100BB0000F0591F803C00CF0100CBCF1000F03D02E
:100BC00091F802C04CEA050591F800C0BCF1000F95
:100BD00031D0146800202BE04FF0010C0CFA00F328
:100BE000B1F800C00CEA03069E4220D183004FF00A
:100BF0000F0C0CFA03F7BC4305FA03FC4CEA04049F
:100C000091F803C0BCF1280F06D14FF0010C0CFA8B
:100C100000FCC2F814C00AE091F803C0BCF1480F10
:100C200005D14FF0010C0CFA00FCC2F810C0401CBA
:100C30000828D1D31460B1F800C0BCF1FF0F34DD37
:100C4000546800202EE000F1080C4FF0010808FA6B
:100C50000CF3B1F800C00CEA03069E4221D18300D8
:100C60004FF00F0C0CFA03F7BC4305FA03FC4CEAF7
:100C7000040491F803C0BCF1280F05D100F1080C61
:100C800008FA0CF8C2F8148091F803C0BCF1480FC0
:100C900007D100F1080C4FF0010808FA0CF8C2F86F
:100CA0001080401C0828CED35460BDE8F081024675
:100CB000002093680B400BB1012000E0002070473A
:100CC000416170470161704700BFFEE710B5022126
:100CD0001848FFF7F5FF012000F04CFF012000F05D
:100CE00049FF02211348FFF7EDFFAF2001F0ACFCF4
:100CF000402001F0A9FCA02001F0A6FCA62001F0F4
:100D0000A3FCA42001F0A0FCA22001F09DFCC820BF
:100D100001F09AFC2F2001F097FC242001F094FCB4
:100D2000812001F091FC242001F08EFC024801F0AA
:100D300019F810BD000801409D0D002008B50121E3
:100D4000042000F0EFFA0E20ADF8000010208DF81E
:100D5000030003208DF8020069460248FFF71CFFDC
:100D600008BD00000008014000BFFEE7704700001A
:100D70002DE9F04106460027002410212948FFF7FD
:100D80009FFF0021E12001F041FC10212648FFF7E0
:100D900097FF20223146A02000F06CFC1021224851
:100DA000FFF790FF10211F48FFF78CFF0DE0641C38
:100DB0000220FFF743FD642C07DD4FF4FA60FFF7D4
:100DC0003DFD4FF0FF30BDE8F08120211548FFF7D1
:100DD0006EFF0128EBD014E0072001F0F3FB05467D
:100DE0002946272001F012FC0A20FFF727FD641C8A
:100DF000142C06DD4FF4FA60FFF720FD4FF0FF30B2
:100E0000E1E720210748FFF752FF0028E4D005F072
:100E1000200000B1002705F0100008B14FF0FF37A7
:100E20003846D0E7001001400008014070B5044684
:100E300010211E48FFF744FF0021E12001F0E6FBEE
:100E400005222146302000F015FC052221462A20EB
:100E500000F010FC0121212001F0D8FB012122200B
:100E600001F0D4FBFF21242001F0D0FB2821252014
:100E700001F0CCFB0721262001F0C8FB2021312006
:100E800001F0C4FB0E21202001F0C0FB1021074817
:100E9000FFF718FF072001F095FB0546294627209C
:100EA00001F0B4FB0A20FFF7C9FC70BD001001403F
:100EB00010B500214FF0006000F010F84FF4A06072
:100EC00000F002F810BD000002490143024A11601F
:100ED000704700000000FA050CED00E0024A0A40ED
:100EE0000243024B1A60704780FFFF1F08ED00E0CD
:100EF00070B5002419E004F1B001C8B2002100F07F
:100F0000B5F90021084600F0B1F90021102000F0E9
:100F1000ADF9002505E00121002000F0A7F9681CCB
:100F2000C5B2802DF7DB601CC4B2082CE3DB70BDBA
:100F30002DE9F05F06460F4690461C46DDF828A0D6
:100F40004FF0000BE11704EB5171C910A4EBC10184
:100F500031B92046E11704EB5171C1F3C70506E032
:100F60002046E11704EB5171C910491CCDB23D4632
:100F700015E02946304600F0D7F8B1460BE0594657
:100F80000BF1010B1AF80100012100F06FF909F1D2
:100F9000010000F0FF09C145F1DB681CC5B2A542A4
:100FA000E7DBBDE8F09F000008B50121042000F058
:100FB000B9F90F20ADF8000010208DF803000320D0
:100FC0008DF8020069465648FFF7E6FD0F215448A8
:100FD000FFF778FE4020ADF8000010208DF80300E8
:100FE00003208DF8020069464E48FFF7D5FD4021E9
:100FF0004C48FFF767FE02214948FFF763FE642073
:10100000FFF71CFC02214648FFF75AFE6420FFF759
:1010100015FC02214248FFF755FE0021FD2000F09B
:1010200025F90021122000F021F90021AE2000F066
:101030001DF90021D52000F019F90021A02000F0B1
:1010400015F90021A82000F011F900213F2000F03F
:101050000DF90021D32000F009F90021084600F025
:1010600005F90021402000F001F90021A12000F045
:10107000FDF80021C82000F0F9F80021DA2000F086
:10108000F5F80021022000F0F1F80021084600F0F8
:10109000EDF80021D52000F0E9F80021802000F0D3
:1010A000E5F80021D92000F0E1F80021F12000F05E
:1010B000DDF80021DA2000F0D9F80021122000F03C
:1010C000D5F80021812000F0D1F80021BF2000F0E8
:1010D000CDF80021D92000F0C9F80021252000F02A
:1010E000C5F80021DB2000F0C1F80021342000F019
:1010F000BDF80021A42000F0B9F80021A62000F0DE
:10110000B5F80021AF2000F0B1F80021AF2000F0C9
:10111000ADF8FFF7EDFE0021084600F005F808BD28
:1011200000080140000C014070B504460D4605F171
:10113000B001C8B2002100F099F8102141EA141062
:10114000002100F093F804F00F0141F001000021AC
:1011500000F08CF870BD00002DE9F04180460E468D
:101160001546002731464046FFF7DEFF00240AE01F
:10117000124A02EB8511085D012100F077F8781C16
:10118000C7B2601CC4B2102CF2DB701CC1B2404666
:10119000FFF7CAFF00240CE06900491C074A02EB74
:1011A0004111085D012100F061F8781CC7B2601C94
:1011B000C4B2102CF0DBBDE8F0810000CC010020AF
:1011C0002DE9F04106460F46904600250024A8F17F
:1011D0002000C5B27F2E04DDA6F18000C6B2B81C87
:1011E000C7B239463046FFF79FFF002408E004EB02
:1011F00005110F4A505C012100F038F8601CC4B2A0
:10120000082CF4DB781CC1B23046FFF78DFF0024B8
:1012100009E004EB05110831054A505C012100F09A
:1012200025F8601CC4B2082CF3DBBDE8F081000097
:10123000D82800082DE9F04104460F46154600263F
:101240000EE0AA5D39462046FFF7BAFF04F1080018
:10125000C4B2782C02DD0024B81CC7B2701CC6B220
:10126000A85D0028EDD1BDE8F081000070B504460E
:101270000E4626B101211848FFF724FD03E00121A5
:101280001548FFF71DFD40211448FFF719FD002503
:1012900017E008211048FFF713FD04F0800020B18B
:1012A00004210D48FFF70EFD03E004210A48FFF773
:1012B00007FD08210848FFF705FD6006040E681CBD
:1012C000C5B2082DE5DB40210448FFF7FBFC0121F6
:1012D0000148FFF7F7FC70BD00080140000C014019
:1012E0007047000029B1064A52690243044B5A6113
:1012F00004E0034A52698243014B5A61704700007F
:101300000010024029B1064A12690243044B1A61D7
:1013100004E0034A12698243014B1A6170470000DE
:101320000010024029B1064A92690243044B9A61B7
:1013300004E0034A92698243014B9A6170470000BE
:101340000010024029B1064AD2680243044BDA6019
:1013500004E0034AD2688243014BDA607047000020
:101360000010024070B500F065F84FF4803000F0D6
:10137000B9F800BF312000F083F80028FAD010201F
:10138000FFF7D0FA0220FFF7FBFA002000F09EF8EA
:10139000002000F0DFF84FF4806000F0CFF84FF449
:1013A000E0114FF4803000F0E7F8012000F0DEF8A3
:1013B00000BF392000F064F80028FAD0022000F0C5
:1013C000E9F800BF00F07AF80828FBD1012141F2CA
:1013D0001D00FFF7A7FF144800684FF47A72B0FBB6
:1013E000F2F1B1F1807F00D31DE021F07F40401E7B
:1013F0004FF0E022506150170F22002807DA130740
:101400001D0E0A4B00F00F04241F1D5503E01307A7
:101410001C0E074B1C5400BF00204FF0E0229061CF
:101420000720106100BF70BD7C01002018ED00E0B6
:1014300000E400E00F48006840F001000D4908603A
:10144000084640680C4908400A4948600846006858
:101450000A490840074908600846006820F48020CF
:1014600008600846406820F4FE0048604FF41F0002
:1014700088607047001002400000FFF8FFFFF6FE92
:1014800010B501460022002300204A11012A02D192
:10149000094C236806E0022A02D1074C236A01E0C6
:1014A000054C636A01F01F02012494401C400CB1FA
:1014B000012000E0002010BD0010024002484068FA
:1014C00000F00C00704700000010024001460020B0
:1014D000034A506820F0F000084350607047000055
:1014E000001002401149096821F480310F4A11604F
:1014F0001146096821F480211160B0F5803F03D0C6
:10150000B0F5802F0ED106E00849096841F480311A
:10151000064A116007E00549096841F4A021034A21
:10152000116000E000BF00BF7047000000100240E3
:101530000149086070470000000042420146002057
:10154000034A506820F4E060084350607047000090
:101550000010024001460020034A506820F4605009
:1015600040EAC1005060704700100240014908661F
:10157000704700000000424202460020044B5868B9
:1015800020F47C1042EA01031843014B5860704775
:101590000010024001460020034A506820F003007A
:1015A00008435060704700000010024021B10288DB
:1015B00042F04002028004E002884FF6BF731A40F6
:1015C0000280704710B504461148844208D10121B9
:1015D0008014FFF7B7FE0021A014FFF7B3FE16E05A
:1015E0000C48844208D101210014FFF78BFE002132
:1015F0002014FFF787FE0AE00748844207D1012143
:10160000C013FFF77FFE0021E013FFF77BFE10BD44
:101610000030014000380040003C004002460020FD
:1016200013890B400BB1012000E0002070470146F8
:10163000888970478181704710B50022028802F4C2
:1016400041520B884C8823438C882343CC88234306
:101650000C8923434C8923438C892343CC8923431E
:101660001A430280838B4FF2FF74234083830B8ADB
:10167000038210BD70B505460C46164610210D4874
:10168000FFF71EFB29460C48FFF7D4FF00F0ECFFE4
:1016900006E014F8011B0848FFF7CCFF00F0E4FF58
:1016A0003000A6F10101CEB2F3D110210148FFF7BD
:1016B00009FB70BD0008014000300140704710B5C3
:1016C00000F002F810BD00000CB500200190009061
:1016D0003348006840F480303149086000BF30482A
:1016E000006800F4003000900198401C01900098C0
:1016F00018B90198B0F5A06FF1D12948006800F43D
:10170000003010B10120009001E00020009000980E
:10171000012843D12348006840F0100021490860A7
:101720000846006820F0030008600846006840F0A2
:10173000020008601A484068194948600846406835
:1017400048600846406840F4806048600846406849
:1017500020F47C1048600846406840F4E810486077
:101760000846006840F08070086000BF0C480068C0
:1017700000F000700028F9D00948406820F003000C
:10178000074948600846406840F00200486000BFD2
:101790000348406800F00C000828F9D10CBD000097
:1017A0000010024000200240042808D14FF0E02140
:1017B000096941F004014FF0E022116107E04FF0A8
:1017C000E021096921F004014FF0E0221161704726
:1017D00010B506480068401C0449086004480068C9
:1017E000401C0349086000F05BFB10BD2400002092
:1017F0002800002010B51348006840F0010011498E
:10180000086008464068104908400E49486008468C
:1018100000680E4908400B4908600846006820F43B
:10182000802008600846406820F4FE0048604FF4BD
:101830001F008860FFF743FF4FF000600449086015
:1018400010BD0000001002400000FFF8FFFFF6FE90
:1018500008ED00E000BFFEE700B591B001210846A9
:10186000FFF740FD01214802FFF75CFD0120ADF8C4
:10187000000000208DF8030069463348FFF78CF91B
:101880003248FEF715FF324801903248029000209E
:1018900003901020049000200590802006904000C6
:1018A0000790800008902020099000020A900020F4
:1018B0000B9001A92548FEF7A1FF01212348FEF75F
:1018C000EAFE00200C908DF8340001208DF83500E0
:1018D0004FF460200E9000200F9001208DF8400002
:1018E0000CA91B484C38FEF73BFE072301220821B8
:1018F00017484C38FEF75CFE012115484C38FEF7BE
:101900000FFE012112484C38FEF7FFFD10484C38FD
:10191000FEF7AAFE00BF0E484C38FEF716FE002860
:10192000F9D10B484C38FEF7AFFE00BF08484C38E1
:10193000FEF701FE0028F9D1012105484C38FEF7D9
:1019400098FE11B000BD0000000C014008000240EC
:101950004C240140A411002010B5044611E04FF4BE
:1019600080610A48FFF7AEF940F6FF0000F0DAF8B0
:101970004FF480610548FFF7A3F940F6FF0000F03F
:10198000D1F82000A4F10104E9D110BD00100140FC
:101990002DE9F04704468A46914600270025A846CF
:1019A00000BF605D0D2802D008F1010831E0B8F1F8
:1019B000000F09D0B8F1010F08D0B8F1020F08D01C
:1019C000B8F1030F1CD10DE000261AE0681E265C5A
:1019D00017E0681E215CA81E205C00EB800001EB74
:1019E00040060EE0E81E205C64214843A91E615CAD
:1019F00001EB810100EB4101681E205C0E1800E044
:101A000000BF00BFFF2E01DC09F807607F1C4FF00C
:101A10000008B8F1030F03DC052F01DCFF2E0EDDFB
:101A20000021052000F036FC4FF4FA60FEF706FFB7
:101A3000042000F0D3FA6FF00100BDE8F0876D1CC0
:101A40005FEA0A00AAF1010AABD100BF00BFF4E7C8
:101A500008B54FF4F850ADF8000048208DF80300A9
:101A600069461648FFF798F84FF47840ADF8000043
:101A700048208DF8030069461148FFF78DF84FF4B0
:101A80007070ADF8000048208DF8030069460D48DD
:101A9000FFF782F84FF48060ADF8000010208DF859
:101AA000030003208DF8020069460648FFF774F82A
:101AB0004FF480610348FFF703F908BD00080140B7
:101AC000000C0140001001402DE9F04104460421C2
:101AD0001348FFF7F5F8254608261CE004211048B6
:101AE000FFF7EEF8012000F045F8012000F042F881
:101AF00005F0800727B104210948FFF7E3F803E068
:101B000004210748FFF7DCF804210548FFF7D8F85F
:101B10006806050E761E002EE0DCBDE8F0810000B0
:101B20000008014000BF0100A0F10100FBD1704797
:101B300010B56FF00400FFF737FE0A4800680A4945
:101B4000B0FBF1F0094908700846007800EB40014D
:101B5000C1EBC0104FF6FF7101EAC00004490880D4
:101B600010BD00007C01002000127A009E110020B0
:101B7000A01100200146114A12784A434FF0E02399
:101B80005A6100229A611A46126942F001021A61F2
:101B900000BF4FF0E022106900F001021AB100F41A
:101BA0008032002AF5D04FF0E022126922F00102C3
:101BB0004FF0E0231A6100229A6170479E110020C5
:101BC0000020014908607047BC01002070B5044640
:101BD0000D46002C00DA70BD287838B30C2C25D1C6
:101BE000022000F0FBF9042000F0F8F959480068E1
:101BF00001280DD158A1002000F008FA0020554915
:101C00000860564908600A21062000F029FA09E018
:101C10005048006830B952A1002000F0F7F90120C7
:101C20004C4908604FF0FF306860D4E728780128FD
:101C300045D148480068012842D1092C02DD801EA8
:101C40006860C8E70E2C39D2DFE804F0070C1116E3
:101C50001B20252A2F3031323334E1B2022000F02C
:101C6000FFF92CE0E1B2032000F0FAF927E0E1B23D
:101C7000042000F0F5F922E0E1B2052000F0F0F9CF
:101C80001DE0E1B2072000F0EBF918E0E1B2082016
:101C900000F0E6F913E0E1B2092000F0E1F90EE00E
:101CA000E1B20A2000F0DCF909E000BF00BF00BF8C
:101CB00000BF00BF022000F091F900E000BF46E045
:101CC00024480068F0BB022000F088F9042000F0EE
:101CD00085F90020214908600A21062000F0C0F99A
:101CE0002EE00C2C0FD1022000F078F91CA100206E
:101CF00000F08CF9012017490860801E6860002000
:101D00001649086067E7601CB8B10A2C08DA134866
:101D1000006800EB800004EB40001049086008E018
:101D20000B2C06D10D4800680A21B0FBF1F00B49DD
:101D30000860E1B2062000F093F900F0A1F8044633
:101D40000A2C00E003E0CCD104480068686000BFC2
:101D500041E70000080000204E00000020000020A5
:101D60004600000070B50446B02514E0284600F097
:101D700069FC102000F066FC002000F063FC0026E7
:101D800005E014F8010B00F07DFC701CC6B2802E3B
:101D9000F7DB681CC5B2B92DE8DB70BD0120014935
:101DA00008607047BC01002010B50246002002E028
:101DB00013785840521C0B00A1F10101F8D110BD5D
:101DC00070B505464FF0FF3600F05AF80446601C27
:101DD00000284FD00C2C01D1304670BD0A2C2AD1DE
:101DE00025480068002810DD0D202449224A126889
:101DF000885421480068401C1F4908602A4608464C
:101E000001681E48FFF7C4FD064600201A49086015
:101E100009E000201949184A1268885416480068D9
:101E2000401C15490860144800681428F1DB0020A4
:101E3000114908601AE00B2C0BD10F4800680028EC
:101E400003DD0D480068401E00E000200A490860DC
:101E50000CE009480068132808DA0848064A1268A6
:101E6000845405480068401C03490860E1B206201C
:101E700000F010FA3046B0E7C8010020C41100207D
:101E80004FF0FF300449096821B104490868002176
:101E9000014A116070470000C0010020C401002009
:101EA00010B5002451E004EB4402294B03EBC202BD
:101EB000918804EB440253F83200FEF7F8FE78BB39
:101EC000012004EB4401224A02EBC101C86004EB8B
:101ED0004400114601EBC0008068401C04EB440143
:101EE00002EBC101886004EB4400114601EBC00025
:101EF0008068322828D904EB440001EBC000006957
:101F000010B304EB440102EBC101087D00F0ACFA10
:101F1000002004EB44010E4A02EBC101086113E00A
:101F2000FFE7002004EB4401094A02EBC10188608D
:101F3000012004EB440102EBC1010861002004EB25
:101F4000440102EBC101C860641C0E2CABDB10BD68
:101F50002C00002070B506460C460D48006801288C
:101F600002D10220207001E0012020700220607068
:101F7000300AA070E67004212046FFF715FF20719B
:101F8000052502E0002060556D1C202DFADB70BD98
:101F900008000020FFF7E6F9FEF78AFFFFF7C8FD0B
:101FA00000F0A8FAFFF754FDFEF7FEFFFEF7C6FEAD
:101FB000FEF79EFFFFF750FCFEF788FE0BE0FFF7F1
:101FC0005FFF04460448446001462046FFF7FEFDDB
:101FD000014881688847F2E71400002070B5044684
:101FE0001025002C01DB062C00DD70BD05E0E1B200
:101FF000EA06100E04A2FFF71DF92800A5F101055D
:10200000F5D100BFF1E700002000000070B50546E3
:102010000C46224600212846FFF70CF970BD00004F
:1020200038B5044614B1012C12D108E00A48022345
:102030004822002100903820FEF77AFF09E0074887
:1020400002234822002100903820FEF771FF00E0B3
:1020500000BF00BF38BD00004C0D00206C0D0020FB
:1020600070B505460C46062D02D00220FFF7B6FFDC
:102070000B2D7BD2DFE805F07A062F3A4550C46578
:102080007B90A500062202210020FFF765F80722B9
:1020900002211020FFF760F8082202212020FFF71C
:1020A0005BF8092202213020FFF756F80A220221AC
:1020B0004020FFF751F80B2202215020FFF74CF887
:1020C0000C2202216020FFF747F80D220221702028
:1020D000FFF742F8D9E01C2202210020FFF73CF86C
:1020E0001D2202211020FFF737F8CEE0182202212E
:1020F0000020FFF731F8192202211020FFF72CF8F9
:10210000C3E01A2202210020FFF726F81B22022139
:102110001020FFF721F8B8E01E2202210020FFF76F
:102120001BF81F2202211020FFF716F8222202219D
:102130002020FFF711F8232202213020FFF70CF8AE
:10214000A3E0202202210020FFF706F8212202212D
:102150001020FFF701F8222202212020FEF7FCFFC9
:10216000232202213020FEF7F7FF8EE08CE01E22B2
:1021700002210020FEF7F0FF1F2202211020FEF7AF
:10218000EBFF242202212020FEF7E6FF2522022178
:102190003020FEF7E1FF78E0202202210020FEF748
:1021A000DBFF212202211020FEF7D6FF242202218C
:1021B0002020FEF7D1FF252202213020FEF7CCFFA0
:1021C00063E0282202210020FEF7C6FF2922022117
:1021D0001020FEF7C1FF2A2202212020FEF7BCFFBB
:1021E0002B2202213020FEF7B7FF2C2202214020B3
:1021F000FEF7B2FF2D2202215020FEF7ADFF44E092
:102200000A2C07D10020224908705F220221FEF724
:10221000D7FF38E00B2C1AD11D490978C906080EE2
:1022200020220221FEF7CCFF19480078002803DDA8
:1022300017480078401E00E0002015490870097812
:10224000C906080E5F220221FEF7BAFF1BE00C2C24
:1022500001D00D2C00D170BD04F13000C4B20C4986
:102260000978C906080E22460221FEF7A9FF084890
:102270000078401C064908700978C906080E5F22DC
:102280000221FEF79DFF00E000BF00BF00BFE2E7B4
:102290008C0D002070B505460C46062D05D0042097
:1022A000FFF79CFE0620FFF799FE082D7DD2DFE8A0
:1022B00005F0D5041E33485D927D002204211046AE
:1022C000FEF74AFF012204211020FEF745FF1022ED
:1022D00004212020FEF740FF022204213020FEF7D7
:1022E0003BFF032204214020FEF736FFB7E0002227
:1022F00004211046FEF730FF012204211020FEF7D2
:102300002BFF022204212020FEF726FF03220421B6
:102310003020FEF721FFA2E00E2204210020FEF76C
:102320001BFF0F2204211020FEF716FF0422114686
:102330002020FEF711FF052204213020FEF70CFFBC
:102340008DE00E2204210020FEF706FF0F2204215B
:102350001020FEF701FF022204212020FEF7FCFEE0
:10236000032204213020FEF7F7FE78E00B2204213F
:102370000020FEF7F1FE0C2204211020FEF7ECFEF7
:10238000122204212020FEF7E7FE13220421302030
:10239000FEF7E2FE142204214020FEF7DDFE1522A6
:1023A00004215020FEF7D8FE59E057E026220421F0
:1023B0000020FEF7D1FE272204211020FEF7CCFEDC
:1023C0000E2204212020FEF7C7FE0F220421302018
:1023D000FEF7C2FE43E00A2C03D100202149087019
:1023E0003BE00B2C1AD11F490978C906080E2022A0
:1023F0000421FEF7E5FE1B480078002803DD19489C
:102400000078401E00E00020164908700978C906CF
:10241000080E5F220421FEF7D3FE1EE00D2C01D131
:102420003A2001E004F13000C4B20E4800781328CD
:1024300013DA0C490978C906080E22460421FEF772
:10244000BFFE08480078401C064908700978C90694
:10245000080E5F220421FEF7B3FE00E000BF00BFBC
:1024600070BD00008D0D002010B5044605480068C1
:1024700038B1054804600120044908606420FFF772
:102480006BFA10BDBC010020C4010020C001002077
:1024900010B50346002109E0064C34F81120FF2A4C
:1024A00002DD4FF0FF3010BD5A54491C0529F3D30B
:1024B0000020F8E70080000870B5054600240120E0
:1024C000FFF736F8FEF768FA3420FEF7DBF9084824
:1024D000FEF7DEF906E0295D054A02EB4400FEF74F
:1024E0002FFA641C052CF6D3FEF712FA70BD00001B
:1024F0000080000800B587B042202E49C877E02050
:10250000ADF8180018208DF81B0003208DF81A0074
:1025100006A92948FEF740FB1020ADF818008DF8F9
:102520001B0003208DF81A0006A92448FEF734FB8F
:102530001020ADF818008DF81B0003208DF81A004C
:1025400006A91D48FEF728FB10211B48FEF7BAFB21
:102550002020ADF8180048208DF81B0006A9174868
:10256000FEF71AFB0020ADF804004FF48270ADF8BE
:1025700006000020ADF80800ADF80A00ADF80C0028
:102580004FF40070ADF80E003820ADF810000020B8
:10259000ADF812000720ADF814000948FFF712F853
:1025A00001A90748FFF748F801210548FEF7FEFF9B
:1025B00007B000BD9A010020000801400010014052
:1025C0000030014010B5044610210E48FEF778FB9C
:1025D00021460D48FFF72EF800F046F800210A4882
:1025E000FFF728F800BF01210748FFF717F8002878
:1025F000F9D010210348FEF765FB0348FFF717F8F1
:10260000C0B210BD000801400030014070B5044662
:102610000D4610210948FEF753FB21460848FFF7F5
:1026200009F800F021F829460548FFF703F800F003
:102630001BF810210148FEF745FB70BD0008014062
:10264000003001407047000010B5044604210548E1
:10265000FEF736FB01210348FEF732FB2046FFF769
:1026600033FA10BD0008014010B500BF0221044834
:10267000FEF7D4FF0028F9D00320FEF7DFF810BDE5
:102680000030014010B50446204600F001F810BDAE
:1026900010B5044604210548FEF712FB012103484A
:1026A000FEF70EFB2046FFF70FFA10BD00080140B1
:1026B0000000000000000000002F000000000700E4
:1026C000070000147F147F1400242A7F2A1200625E
:1026D000640813230036495522500000050300000A
:1026E00000001C224100000041221C000014083E92
:1026F00008140008083E0808000000A06000000858
:1027000008080808000060600000002010080402AB
:10271000003E5149453E0000427F40000042615169
:102720004946002141454B31001814127F10002703
:1027300045454539003C4A494930000171090503C6
:1027400000364949493600064949291E00003636F7
:10275000000000005636000000081422410000145A
:102760001414141400004122140800020151090637
:1027700000324959513E007C1211127C007F4949B8
:102780004936003E41414122007F4141221C007FE9
:1027900049494941007F09090901003E4149497AF7
:1027A000007F0808087F0000417F41000020404171
:1027B0003F01007F08142241007F40404040007FDD
:1027C000020C027F007F0408107F003E4141413E21
:1027D000007F09090906003E4151215E007F091969
:1027E00029460046494949310001017F0101003F66
:1027F0004040403F001F2040201F003F4038403FE6
:102800000063140814630007087008070061514949
:10281000454300007F41410000552A552A550000DC
:1028200041417F000004020102040040404040405A
:10283000000001020400002054545478007F4844F2
:10284000443800384444442000384444487F003829
:102850005454541800087E0901020018A4A4A47C52
:10286000007F080404780000447D4000004080841C
:102870007D00007F102844000000417F4000007C64
:1028800004180478007C0804047800384444443870
:1028900000FC242424180018242418FC007C0804BC
:1028A000040800485454542000043F444020003C95
:1028B0004040207C001C2040201C003C4030403C1C
:1028C000004428102844001CA0A0A07C00446454AC
:1028D0004C441414141414140000000000000000F0
:1028E0000000000000000000000000F800000000F0
:1028F000000000333000000000100C06100C060031
:10290000000000000000000040C07840C078400097
:10291000043F04043F040400007088FC08300000F9
:10292000001820FF211E0000F008F000E018000051
:1029300000211C031E211E0000F00888700000000A
:102940001E2123241927211010160E00000000005C
:102950000000000000000000000000E01804020079
:10296000000000071820400000020418E0000000EA
:102970000040201807000000404080F080404000E8
:102980000202010F01020200000000F0000000003E
:102990000101011F01010100000000000000000012
:1029A00080B0700000000000000000000000000087
:1029B0000001010101010101000000000000000010
:1029C00000303000000000000000000080601804AB
:1029D000006018060100000000E010080810E00088
:1029E000000F102020100F00001010F80000000051
:1029F0000020203F20200000007008080888700098
:102A00000030282422213000003008888848300017
:102A10000018202020110E000000C02010F8000037
:102A200000070424243F240000F8088888080800D0
:102A30000019212020110E0000E0108888180000E5
:102A4000000F112020110E0000380808C8380800B7
:102A50000000003F00000000007088080888700037
:102A6000001C222121221C0000E010080810E000B8
:102A70000000312222110F00000000C0C000000041
:102A80000000003030000000000000800000000066
:102A9000000080600000000000008040201008005E
:102AA0000001020408102000404040404040400027
:102AB0000404040404040400000810204080000002
:102AC0000020100804020100007048080808F00007
:102AD0000000003036010000C030C828E810E000D7
:102AE0000718272423140B000000C038E000000062
:102AF000203C23020227382008F8888888700000CC
:102B0000203F202020110E00C0300808080838009F
:102B1000071820202010080008F808080810E00016
:102B2000203F202020100F0008F88888E8081000B7
:102B3000203F20202320180008F88888E80810008B
:102B4000203F200003000000C030080808380000C3
:102B500007182020221E020008F808000008F808C4
:102B6000203F210101213F20000808F8080800004B
:102B70000020203F2020000000000808F80808007E
:102B8000C08080807F00000008F888C028180800F6
:102B9000203F20012638200008F80800000000002F
:102BA000203F20202020300008F8F800F8F8080026
:102BB000203F003F003F200008F830C00008F80820
:102BC000203F200007183F00E01008080810E00030
:102BD0000F10202020100F0008F808080808F00047
:102BE000203F210101010000E01008080810E0006A
:102BF0000F18242438504F0008F8888888887000FF
:102C0000203F2000030C302000708808080838009E
:102C10000038202121221C00180808F80808180094
:102C20000000203F2000000008F808000008F80815
:102C3000001F202020201F000878880000C83808C6
:102C4000000007380E010000F80800F80008F8003E
:102C5000033C0700073C03000818688080681808D8
:102C600020302C03032C30200838C800C838080056
:102C70000000203F2000000010080808C8380800A5
:102C80002038262120201800000000FE0202020049
:102C90000000007F40404000000C30C000000000F9
:102CA000000000010638C00000020202FE00000021
:102CB000004040407F0000000000040202020400C7
:102CC0000000000000000000000000000000000004
:102CD00080808080808080800002020400000000EC
:102CE00000000000000000000000808080800000E4
:102CF0000019242222223F2008F8008080000000D2
:102D0000003F112020110E00000000808080000094
:102D1000000E112020201100000000808088F800A3
:102D2000000E112020103F200000808080800000D5
:102D3000001F222222221300008080F08888881839
:102D40000020203F20200000000080808080800044
:102D5000006B94949493600008F8008080800000D9
:102D6000203F210000203F200080989800000000B4
:102D70000020203F202000000000008098980000E4
:102D800000C08080807F000008F800008080800004
:102D9000203F24022D302000000808F80000000029
:102DA0000020203F202000008080808080808000E4
:102DB000203F20003F20003F808000808080000076
:102DC000203F210000203F20000080808080000004
:102DD000001F202020201F00808000808000000035
:102DE00080FFA12020110E00000000808080800064
:102DF000000E112020A0FF80808080008080800055
:102E000020203F2120000100000080808080800081
:102E10000033242424241900008080E080800000F6
:102E20000000001F20200000808000000080800043
:102E3000001F202020103F208080800000808080A4
:102E400000010E3008060100808000800080808034
:102E50000F300C030C300F00008080008080800059
:102E60000020312E0E312000808080000080808084
:102E700080818E7018060100008080808080800034
:102E80000021302C2221300000000000807C020252
:102E900000000000003F404000000000FF00000074
:102EA00000000000FF0000000002027C8000000023
:102EB0000040403F0000000000060101020204043F
:102EC0000000000000000000E82E000800000020C4
:102ED000A41100006C01000874360008A411002041
:102EE00094060000C801000881F2011AFF011335A1
:102EF0000AD208B51001404029345A0218DA801865
:102F00005A0518A959290B395129183939D97C0A78
:102F10001008306A0B18D9306A0918CA04186A06F2
:102F20001899BA29186A0318CA1018420D0A100C09
:102F3000306A0C18D930399F2918CA2018398729C6
:102F400018CA40186A0718CA8018420A7BA24ABEEB
:102F5000380E010203040607080934431010010566
:102F6000022137398C311AFF014115404042CC789B
:102F70000A0444645C47F44444445BA11D40201FA0
:102F8000201A2C44447F050111980F101010FF10D7
:102F900050445465C644645444C971001013044439
:102FA000827F0182824A562322524E82021BF88877
:102FB000010009110808FF08090AC8081480601FE9
:102FC000000C1110201F80402116182641F81D0802
:102FD0000808F804298604121010F0000F131030AE
:102FE000101F088848300E014080403F3C40301E92
:102FF000C42901011300101281814121110D030127
:10300000030D1121418181180AFE02FA02FE4020BF
:10301000D8177F0911422F8047300F1067BF061164
:103020000816214080080F1088681FC80810C8546F
:1030300052D1129408D04016091909FF0515FF1244
:1030400092FF04175F807F051701E21CE037804084
:1030500020100C030E10030C30408080111580608E
:10306000F807080A100424242526242424045B21BC
:1030700032FF2BF949010A11F93F4D8080BEA201B0
:103080001ABE0C0114000A14060504040444844406
:103090003C171010D0FF90100614FE020202FE1B17
:1030A0000403803483601F05113F404078080F11EE
:1030B000202020FF202080F88040FF2010F0602E8C
:1030C00030100F08083C0D165F42444340111AF8B7
:1030D000E70C15404040402D48407F400309122135
:1030E0000121031E3636000D13181610D0B8979024
:1030F0009090929410000F1120108C8380414628EC
:1031000010284443808015404042CC080A1088892A
:103110008E88F8888C8B882011080D1240201F2083
:103120004050484641424458C01A02011F8242F2B0
:103130000E428209011226100804020132FF041215
:1031400001020C100908CC4A49484ACC1807127FE2
:1031500088888482E027FF121252927F0A147E2010
:10316000080D111010D0FF90201018A744A4145F70
:10317000111B04037C0809110502FD44444445FD6C
:10318000A12C101090010009121010FF1010111640
:103190001010082060203F1010100711030C1020A1
:1031A00040F8380A4030EF246448487F4804021150
:1031B000401601017F21112BFF49010213FF24401A
:1031C00042CC2C809E920103149E80080E137F2017
:1031D00094844424140F142444848421395D0414F9
:1031E00049497F280A8141211D214181FF8901032D
:1031F000128181000E12028282422212FA062222DB
:103200004242821301011EFC44444445041AFC0E50
:103210000111080F1180804020504844C344485099
:10322000204080C11B40403B2B447F05031240409F
:10323000172030AC6320181D040404FC040112188C
:103240000822672212121240012A7F050111180973
:10325000101012D2525F52F2040514D21210100054
:103260000A159F5232121F1232529F14F801022D7A
:103270000202F202010213FE22FF140804030714E3
:1032800001020C40807F080B121011161010F01074
:103290001014137E0010118181414121110D030D85
:1032A0001121414181811380701CFF2010FB2B04F0
:1032B000FC0509102026601807083009157D199DA6
:1032C0003808884828180FE808010113000E12205A
:1032D00011090541817F0101050911203808020209
:1032E000E22222FE22040413E20202000C13FF4831
:1032F0004443404040434444FF080F1004E4242466
:1033000064A4243F24A4642424E4C01112FF1E08F2
:103310000909097F040A1348C31A200129590D110C
:10332000FF402010C02E2060201010201A3F840B78
:10333000114078811F04F49494949F040B11F404B9
:103340007F19354B7F4A011A7F0C0112151088C472
:10335000331E40424242C2040910201B0201C2290E
:10336000480913BD211A08012C88780F0729010983
:1033700010C01D10484641012A7F05091180080F21
:1033800010C8B88FE88888404848E85F4848482017
:103390001D081808FFD8000813020B1222D20A06D3
:1033A00028090202C2020202FE820102120219F47C
:1033B00029F8290429010911C008091488C8380C02
:1033C0000B0808E8C01302018BFF40C101132A2437
:1033D000010F13FC22222223229F19013C42827FEB
:1033E000080A1002A1000F124044C4444444401093
:1033F00010FF101010F0080F11103C131014B840FB
:10340000300E014080403F20193A080C109020985F
:103410004828090E2848A818801442817F1F404080
:103420004242427E040910C0200C40504E4848FFE2
:1034300048484840F80214FF10083E0202FF1222DA
:103440001E0D120F40807FE0000D12FE929292FE40
:103450000206FC040404FC08101008180F080804F5
:10346000FF0484402718274080C01560020CC0006C
:103470000813E22C203F2028E61D04047C03990E4B
:103480001109090949897F7113F0F04AFFBD490A02
:103490004903091D2006948850205088000819C04F
:1034A000406020301808E60838F0C080200C80808A
:1034B000E0E0D0307060307070E80840E0F0F0E09C
:1034C000E080231AC017CAF801DAE02461641E06FE
:1034D000022BE0C00519247C1CFC70723934A60351
:1034E0000F3E7CF0460F1FFDE9012238333030A635
:1034F00006FF1D0E06380AF8FEFF1F0F0303010129
:10350000251907280F03030707070F3F7FFFFFFC5D
:10351000F0E0811866F0FCFFFFFF2976181F0CF819
:10352000F830607F43475CF8FF0F1E3870C7FC819E
:10353000838E5C7870E0C0C08FFFFEF8071BE0F858
:103540002E280BC0E060707030F0F8FC065C281785
:1035500041733286FC7C8E0273414101010206FCFC
:103560007870706060E0C5195B780AFCE4C2028183
:10357000C1E0E2C0C931581083E1F1F3FF7F3F7F22
:103580007CF8F0E1C79FBF801B0F7C3B280CC1CFAC
:10359000FEE08E101D333F1E1C31180E01011C026F
:1035A0002F333F3F1F0F0787EF4F290171180D047D
:1035B0003F67C78FFE1E0626C68203E0380E0183D2
:1035C000C2660606FE9E8FC76F3E083A218010072E
:1035D000078FFFFF070F0F67EFFFF0F83F03180B90
:1035E0000203073F67677F7E7F5F278A03521119B7
:1035F0003319112B073FEA128037011270707010D7
:103600003F80C0E0F0FCFE7C7C1F010747292D15A0
:103610000F3CE080280D071F3F3E3F3F0F0380E037
:10362000380F439139331FFCF0C080810101B12A6A
:1036300080DC395A9BF0FC80911A07013C0302069A
:10364000012C0703030F2B07079C01121809080F11
:103650000606040C0C04292C0D0808FAC947590168
:103660003C060404B11B010301498C6B04061D01D7
:043670008A000000CC
:0400000508000131BD
:00000001FF
