:020000040800F2
:1000000068140020150200086D0F0008110D00088B
:10001000690F000893060008E519000800000000B9
:10002000000000000000000000000000E9160008C9
:1000300071080008000000000D1300086119000895
:100040002F0200082F0200082F0200082F020008CC
:100050002F0200082F0200088D0800082F02000858
:100060002F0200082F0200082F0200082F020008AC
:100070002F0200082F0200082F0200082F0200089C
:100080002F0200082F0200082F0200082F0200088C
:100090002F0200082F0200082F020008A308000802
:1000A0002F0200082F0200082F0200082F0200086C
:1000B0002F0200082F0200082F0200082F0200085C
:1000C0002F0200082F0200082F0200082F0200084C
:1000D0002F0200082F0200082F0200082F0200083C
:1000E000970800082F0200082F0200082F020008BE
:1000F0002F0200082F0200082F0200082F0200081C
:100100002F0200082F0200082F0200082F0200080B
:100110002F0200082F0200082F0200082F020008FB
:100120002F0200082F0200082F0200082F020008EB
:1001300000F002F800F05FF80AA090E8000C82449A
:100140008344AAF10107DA4501D100F054F8AFF277
:10015000090EBAE80F0013F0010F18BFFB1A43F0A5
:1001600001031847A43D0000C43D00000A444FF0BD
:10017000000C10F8013B13F0070408BF10F8014B06
:100180001D1108BF10F8015B641E05D010F8016B4B
:10019000641E01F8016BF9D113F0080F1EBF10F8AF
:1001A000014BAD1C0C1B09D16D1E58BF01F801CBD2
:1001B000FAD505E014F8016B01F8016B6D1EF9D555
:1001C0009142D6D37047000000230024002500266A
:1001D000103A28BF78C1FBD8520728BF30C148BFAA
:1001E0000B607047642900F07D80002070471FB5C8
:1001F0001FBD10B510BD00F052F91146FFF7F7FF13
:1002000001F0B0FF00F070F903B4FFF7F2FF03BC98
:1002100000F074F90948804709480047FEE7FEE707
:10022000FEE7FEE7FEE7FEE7FEE7FEE7FEE7FEE7A6
:1002300004480549054A064B704700008519000827
:1002400031010008680E00206814002068100020AA
:10025000681000200FB41CB5074B06AA7B44694602
:100260000090059800F003F90020694600F012F9AB
:100270001CBC5DF814FB0000350200002DE9F041C4
:100280000E460446002020622046E168884730B3CD
:10029000252805D0D4E901219047206A401CF2E7C7
:1002A000E168204600278847050018D0A5F14100E5
:1002B000192802D820354FF40067324629462046D7
:1002C0002760FFF78FFF40B1012804D0F61D26F00C
:1002D00007060836D8E7361DD6E72846DAE7206A4B
:1002E000BDE8F0812DE9F04106460024106875292B
:1002F000314616A510D0AFF30080002802DA404244
:1003000013A507E031688A0701D512A502E0490765
:1003100004D511A5012401E0AFF3008000210A22D9
:1003200006F1240709E0B0FBF2FCB0FBF2F302FB9C
:100330001C00303078541846491C0028F3D123465D
:100340002A463046BDE8F04100F032B80000000017
:100350002D0000002B000000200000004FF00002E4
:1003600000B5134694469646203922BFA0E80C50AB
:10037000A0E80C50B1F12001BFF4F7AF090728BF86
:10038000A0E80C5048BF0CC05DF804EB890028BF02
:1003900040F8042B08BF704748BF20F8022B11F02B
:1003A000804F18BF00F8012B7047704770477047A7
:1003B0002DE9F0470D4699469246044600F124087F
:1003C0000168880604D5E06921F01001216000E091
:1003D0000120A84201DD471B00E00027A1697A192E
:1003E00002EB0900081AA0612078C00602D420465A
:1003F000AFF30080002608E0D4E901211AF80600D6
:100400009047206A401C761C20624E45F4DB207821
:10041000C0060AD52046AFF3008006E0D4E90121EA
:1004200030209047206A401C2062381EA7F1010747
:10043000F4DC07E0D4E9012118F805009047206AB0
:10044000401C2062281EA5F10105F3DC2046AFF315
:1004500000802078000602D50220BDE8F087012048
:10046000FBE7000001694A1C02610878704700B58B
:100470008FB0CDE901310021059105497944CDE9DD
:10048000031011466846FFF7F9FE0FB000BD0000EB
:10049000E5FFFFFF0A6802F8010B0A607047754626
:1004A00000F028F8AE4605006946534620F00700E4
:1004B000854618B020B5FFF7BBFEBDE820404FF0E1
:1004C00000064FF000074FF000084FF0000B21F03E
:1004D0000701AC46ACE8C009ACE8C009ACE8C0090B
:1004E000ACE8C0098D4670470446AFF30080204653
:1004F000FFF78AFE00487047040E002001491820CB
:10050000ABBEFEE726000200704721B1826842F0D0
:100510000102826003E0826822F00102826070477B
:1005200021B1826842F48072826003E0826822F422
:10053000807282607047014600208A6802F00402DF
:100540000AB1012000E000207047014600208A68BF
:1005500002F008020AB1012000E00020704700000C
:1005600030B502460020002350680F4C20400D7922
:100570000C6844EA05242043506090680B4C2040EE
:10058000D1E902542C434D7944EA4504204390605C
:10059000D06A20F470000C7C641EE4B2234340EA6D
:1005A0000350D06230BD0000FFFEF0FFFDF7F1FF09
:1005B000F0B504460D4600200021092D11DDE0684C
:1005C000A5F10A0606EB4607072606FA07F1884357
:1005D000A5F10A0606EB460603FA06F10843E060B9
:1005E0000CE0206905EB4507072606FA07F188436A
:1005F00005EB450603FA06F108432061072A0FDAE6
:10060000606B561E06EB86071F2606FA07F1884325
:10061000561E06EB860605FA06F10843606322E0E3
:100620000D2A0FDA206BD61F06EB86071F2606FA67
:1006300007F18843D61F06EB860605FA06F1084344
:10064000206310E0E06AA2F10D0606EB86071F2684
:1006500006FA07F18843A2F10D0606EB860605FAB5
:1006600006F10843E062F0BD816841F00801816055
:10067000704721B1826842F4A002826003E0826880
:1006800022F4A00282607047816841F00401816019
:10069000704700BFFEE770B5002415E004F1B0011B
:1006A000C8B201F0E9F8102001F0E6F8002001F0EE
:1006B000E3F8002504E0002001F018F9681CC5B239
:1006C000842DF8DB601CC4B2082CE7DB70BD21B1BF
:1006D000026842F00102026004E002684FF6FE7315
:1006E0001A4002607047000001684FF6FE72114028
:1006F00001600021016041608160C1604B49884216
:1007000008D14A490839496841F00F01474A083A77
:1007100051608AE045491431884208D1434908397B
:10072000496841F0F001414A083A51607DE03F4993
:100730002831884208D13D490839496841F470613F
:100740003A4A083A516070E038493C31884208D151
:1007500036490839496841F47041344A083A5160D1
:1007600063E032495031884208D13049083949683C
:1007700041F470212D4A083A516056E02B4964310A
:10078000884208D129490839496841F47001274A4B
:10079000083A516049E025497831884208D1234917
:1007A0000839496841F07061204A083A51603CE0DC
:1007B0001F49884206D1011F096841F00F01021F3D
:1007C000116032E01A491431884208D11849091FD2
:1007D000096841F0F001164A121F116025E0144922
:1007E0002831884208D11249091F096841F4706113
:1007F0000F4A121F116018E00D493C31884208D1A0
:100800000B49091F096841F47041094A121F116020
:100810000BE007495031884207D10549091F096893
:1008200041F47021024A121F116070470800024013
:100830000804024010B50022026847F6F0739A439C
:100840000C6A8B6823430C6923434C6923438C69EE
:100850002343CC6923434C6A23438C6A23431A43C2
:100860000260CB6843600B6883604B68C36010BD57
:10087000704700000021044A116000BF0249096866
:100880008842FBD8704700002800002010B50120E6
:1008900000F00EF810BD10B54FF47C4000F008F8E1
:1008A00010BD10B54FF4FC6000F002F810BD000060
:1008B0000149086070470000140401400149C86004
:1008C000704700000020024030B5044604254FF474
:1008D000302000F089F80546042D17D10C48006936
:1008E00040F002000A49086108464461006940F08E
:1008F000400008614FF4302000F076F805460448C7
:10090000006941F6FD71084001490861284630BD83
:100910000020024004200B49C96801F0010109B11F
:1009200001200EE00749C96801F0040109B1022065
:1009300007E00449C96801F0100109B1032000E093
:1009400004207047002002400348006940F0800006
:10095000014908617047000000200240054909680C
:1009600021F01001034A116011460968014311602A
:10097000704700000020024070B504460D46042672
:10098000F00200F031F80646042E11D10948006942
:1009900040F00100074908612580F00200F024F8CA
:1009A00006460448006941F6FE71084001490861A5
:1009B000304670BD0020024001460020034A106806
:1009C00000F038000843106070470000002002402B
:1009D000024803494860034848607047230167455F
:1009E00000200240AB89EFCD00B502460423FFF79B
:1009F00091FF034603E0FFF78DFF0346521E012BD4
:100A000001D1002AF7D102B90523184600BD000024
:100A100010B588B0044620216846FFF79FFC606847
:100A2000401CF8B10021072001F016FD9620FFF7C9
:100A300021FFA18888B2694601F074FB01F020F91A
:100A4000684600F095FA20B90021042001F004FD69
:100A500006E00021032001F0FFFC034800F0E6FA65
:100A600001F084FA08B010BD0C00002030B58BB046
:100A70000446202103A8FFF771FC4FA200210520A6
:100A800000F0E8F9012000F04FFA022001F088FBA5
:100A9000042001F085FB494801F0F0FD474801F0D2
:100AA000D9FD401C00283DD0444800794349C9780D
:100AB000424A9278CDE9002102904048437802787A
:100AC0003FA103A8FFF7C6FB03AA0121052000F000
:100AD000C1F9052206213EA000F002FA052260219C
:100AE0003CA000F0FDF91BE001F0B2FA05460C2D28
:100AF00000D116E00D2D13D1022001F051FB04208E
:100B000001F04EFB062001F04BFB0021012001F01B
:100B100089FB00BF294801F03BFA0028FAD100E028
:100B2000E2E712E0022001F03BFB042001F038FB79
:100B3000062001F035FB0021012001F073FB00BF0E
:100B40001E4801F025FA0028FAD11C4800F06EFA80
:100B500003A800F00DFAB8B10021012001F07CFCDF
:100B600015A1002001F034FB012001F03BFB022025
:100B700001F016FB00202070AFF20F10A0604FF4C0
:100B8000FA60FFF777FE14E00021022001F064FC18
:100B900011A1002001F01CFB002001F023FB02202A
:100BA00001F0FEFA012020700C48A060034801F01B
:100BB00065FD0BB030BD00004E0000000C000020B1
:100BC00025643A25643A25643A25643A2564000090
:100BD000CAC70000B7F1000046000000110A000873
:100BE0002DE9F041024600250026002000230024C4
:100BF000002791F803C00CF00F0591F803C00CF02A
:100C0000100CBCF1000F03D091F802C04CEA0505AE
:100C100091F800C0BCF1000F31D0146800202BE027
:100C20004FF0010C0CFA00F3B1F800C00CEA030617
:100C30009E4220D183004FF00F0C0CFA03F7BC4307
:100C400005FA03FC4CEA040491F803C0BCF1280F38
:100C500006D14FF0010C0CFA00FCC2F814C00AE0F7
:100C600091F803C0BCF1480F05D14FF0010C0CFA0C
:100C700000FCC2F810C0401C0828D1D31460B1F8A1
:100C800000C0BCF1FF0F34DD546800202EE000F1FD
:100C9000080C4FF0010808FA0CF3B1F800C00CEA98
:100CA00003069E4221D183004FF00F0C0CFA03F78C
:100CB000BC4305FA03FC4CEA040491F803C0BCF100
:100CC000280F05D100F1080C08FA0CF8C2F81480BE
:100CD00091F803C0BCF1480F07D100F1080C4FF0A8
:100CE000010808FA0CF8C2F81080401C0828CED37E
:100CF0005460BDE8F0810246002093680B400BB1C0
:100D0000012000E000207047416170470161704799
:100D100000BFFEE710B500F087FD02211948FFF77C
:100D2000F3FFC82000F09EFF02211648FFF7EEFFF8
:100D3000C82000F097FFE22000F09EFDA32000F005
:100D40009BFDA02000F098FDC82000F095FD2C2010
:100D500000F092FD2E2000F08FFD2F2000F08CFD82
:100D6000812000F089FD192000F086FD242000F08C
:100D700083FDAF2000F080FD402000F07DFDFFF7F7
:100D80008AFC10BD000801402DE9F05F06460F46C1
:100D900090461C46DDF828A04FF0000BE11704EB4D
:100DA0005171C910A4EBC10131B92046E11704EB20
:100DB0005171C1F3C70506E02046E11704EB5171FC
:100DC000C910491CCDB23D4614E02946304600F01A
:100DD00015FDB1460AE059460BF1010B1AF8010066
:100DE00000F084FD09F1010000F0FF09C145F2DBCC
:100DF000681CC5B2A542E8DBBDE8F09F08B501213B
:100E0000042000F0A5FA0121082000F0A1FA072033
:100E1000ADF8000010208DF8030003208DF80200CB
:100E200069460A48FFF7DCFEC020ADF8000010203C
:100E30008DF8030003208DF8020069460448FFF78F
:100E4000CFFE02210148FFF761FF08BD0008014005
:100E5000000C01402DE9F04707460D46904600265C
:100E60000024A14634E018F809002038C6B27F2FCC
:100E700002DD0027681CC5B26806010E384600F086
:100E8000A9FC002407E004EB0611144A505C00F0B2
:100E90002DFD601CC4B2082CF5DB012000EB4500E1
:100EA000C1B2384600F096FC002408E004EB0611BD
:100EB00008310A4A505C00F019FD601CC4B2082CCD
:100EC000F4DB07F10800C7B209F1010000F0FF09E7
:100ED00018F809000028C6D1BDE8F08718390008C5
:100EE0002DE9F04105460E461746002417E0285D1F
:100EF000802808DA285D3A46314600F0C7FE06F140
:100F00000800C6B209E028193A46314600F010FF41
:100F100006F11000C6B2601CC4B2601CC4B2285DE9
:100F20000028E4DCBDE8F08138B5044614B1012C9A
:100F300012D108E00A4802234822002100903820FC
:100F4000FFF722FF09E00748022348220021009012
:100F50003820FFF719FF00E000BF00BF38BD0000D8
:100F60008E0D0020AE0D002000BFFEE77047000090
:100F70002DE9F04106460027002410212948FFF7FB
:100F8000C3FE0021E12001F023FC10212648FFF7D9
:100F9000BBFE20223146A02000F082FB1021224817
:100FA000FFF7B4FE10211F48FFF7B0FE0DE0641CF0
:100FB0000220FFF75FFC642C07DD4FF4FA60FFF7B7
:100FC00059FC4FF0FF30BDE8F08120211548FFF7B4
:100FD00092FE0128EBD014E0072001F0D5FB054676
:100FE0002946272001F0F4FB0A20FFF743FC641C8C
:100FF000142C06DD4FF4FA60FFF73CFC4FF0FF3095
:10100000E1E720210748FFF776FE0028E4D005F04D
:10101000200000B1002705F0100008B14FF0FF37A5
:101020003846D0E7001001400008014070B5044682
:1010300010211E48FFF768FE0021E12001F0C8FBE7
:1010400005222146302000F02BFB052221462A20D4
:1010500000F026FB0121212001F0BAFB0121222012
:1010600001F0B6FBFF21242001F0B2FB282125204E
:1010700001F0AEFB0721262001F0AAFB2021312040
:1010800001F0A6FB0E21202001F0A2FB1021074851
:10109000FFF73CFE072001F077FB05462946272095
:1010A00001F096FB0A20FFF7E5FB70BD0010014040
:1010B00010B500214FF0006000F010F84FF4A06070
:1010C00000F002F810BD000002490143024A11601D
:1010D000704700000000FA050CED00E0024A0A40EB
:1010E0000243024B1A60704780FFFF1F08ED00E0CB
:1010F0002DE9F05F06460F4690461C46DDF828A015
:101100004FF0000BE11704EB5171C910A4EBC101C2
:1011100031B92046E11704EB5171C1F3C70506E070
:101120002046E11704EB5171C910491CCDB23D4670
:101130000DE02946304600F00EF8B14603E009F113
:10114000010000F0FF09C145F9DB681CC5B2A542EA
:10115000EFDBBDE8F09F70B504460D4605F1B00128
:10116000C8B2002100F098F8102141EA14100021C3
:1011700000F092F804F00F0141F00100002100F0AE
:101180008BF870BD2DE9F04180460E4615460027CC
:1011900031464046FFF7DFFF00240AE0124A02EB27
:1011A0008511085D012100F077F8781CC7B2601C3A
:1011B000C4B2102CF2DB701CC1B24046FFF7CBFF6B
:1011C00000240CE06900491C074A02EB4111085D4C
:1011D000012100F061F8781CC7B2601CC4B2102C69
:1011E000F0DBBDE8F0810000CC0100202DE9F041EA
:1011F00006460F46904600250024A8F12000C5B2FF
:101200007F2E04DDA6F18000C6B2B81CC7B23946F5
:101210003046FFF7A0FF002408E004EB05110F4A59
:10122000505C012100F038F8601CC4B2082CF4DBDB
:10123000781CC1B23046FFF78EFF002409E004EBB2
:1012400005110831054A505C012100F025F8601CA9
:10125000C4B2082CF3DBBDE8F08100004C2A000882
:101260002DE9F04104460F46154600260EE0AA5D22
:1012700039462046FFF7BAFF04F10800C4B2782CC3
:1012800002DD0024B81CC7B2701CC6B2A85D0028DD
:10129000EDD1BDE8F081000070B504460E4626B1E0
:1012A00001211848FFF732FD03E001211548FFF73F
:1012B0002BFD40211448FFF727FD002517E00821EA
:1012C0001048FFF721FD04F0800020B104210D48F3
:1012D000FFF71CFD03E004210A48FFF715FD082174
:1012E0000848FFF713FD6006040E681CC5B2082D00
:1012F000E5DB40210448FFF709FD01210148FFF724
:1013000005FD70BD00080140000C01407047000061
:1013100029B1064A52690243044B5A6104E0034A68
:1013200052698243014B5A6170470000001002402D
:1013300029B1064A12690243044B1A6104E0034AC8
:1013400012698243014B1A6170470000001002408D
:1013500029B1064A92690243044B9A6104E0034AA8
:1013600092698243014B9A6170470000001002406D
:1013700029B1064AD2680243044BDA6004E0034A0A
:10138000D2688243014BDA607047000000100240CF
:1013900070B500F065F84FF4803000F0B9F800BF88
:1013A000312000F083F80028FAD01020FFF7D6FA99
:1013B0000220FFF701FB002000F09EF8002000F063
:1013C000DFF84FF4806000F0CFF84FF4E0114FF4F5
:1013D000803000F0E7F8012000F0DEF800BF39208F
:1013E00000F064F80028FAD0022000F0E9F800BF0D
:1013F00000F07AF80828FBD1012141F21D00FFF727
:10140000A7FF144800684FF47A72B0FBF2F1B1F113
:10141000807F00D31DE021F07F40401E4FF0E0228E
:10142000506150170F22002807DA13071D0E0A4BD0
:1014300000F00F04241F1D5503E013071C0E074B7B
:101440001C5400BF00204FF0E02290610720106183
:1014500000BF70BD7C01002018ED00E000E400E05A
:101460000F48006840F001000D49086008464068D8
:101470000C4908400A494860084600680A49084083
:10148000074908600846006820F480200860084684
:10149000406820F4FE0048604FF41F0088607047E9
:1014A000001002400000FFF8FFFFF6FE10B50146F5
:1014B0000022002300204A11012A02D1094C23688E
:1014C00006E0022A02D1074C236A01E0054C636A58
:1014D00001F01F02012494401C400CB1012000E0E7
:1014E000002010BD001002400248406800F00C00CF
:1014F000704700000010024001460020034A506877
:1015000020F0F000084350607047000000100240D7
:101510001149096821F480310F4A116011460968A8
:1015200021F480211160B0F5803F03D0B0F5802F09
:101530000ED106E00849096841F48031064A11607D
:1015400007E00549096841F4A021034A116000E061
:1015500000BF00BF70470000001002400149086052
:10156000704700000000424201460020034A5068D4
:1015700020F4E06008435060704700000010024013
:1015800001460020034A506820F4605040EAC10040
:101590005060704700100240014908667047000023
:1015A0000000424202460020044B586820F47C10A0
:1015B00042EA01031843014B586070470010024093
:1015C00001460020034A506820F0030008435060A1
:1015D000704700000010024021B1028842F0400232
:1015E000028004E002884FF6BF731A400280704701
:1015F00010B504461148844208D101218014FFF738
:10160000B7FE0021A014FFF7B3FE16E00C48844299
:1016100008D101210014FFF78BFE00212014FFF7F1
:1016200087FE0AE00748844207D10121C013FFF773
:101630007FFE0021E013FFF77BFE10BD003001406C
:1016400000380040003C00400246002013890B4057
:101650000BB1012000E000207047014688897047E7
:101660008181704710B50022028802F441520B8834
:101670004C8823438C882343CC8823430C89234301
:101680004C8923438C892343CC8923431A4302800A
:10169000838B4FF2FF74234083830B8A038210BD38
:1016A00070B505460C46164610210D48FFF72CFB79
:1016B00029460C48FFF7D4FF01F0A6F806E014F81D
:1016C000011B0848FFF7CCFF01F09EF83000A6F19F
:1016D0000101CEB2F3D110210148FFF717FB70BD15
:1016E0000008014000300140704710B500F002F8DA
:1016F00010BD00000CB50020019000903348006838
:1017000040F480303149086000BF3048006800F480
:10171000003000900198401C0190009818B9019881
:10172000B0F5A06FF1D12948006800F4003010B185
:101730000120009001E0002000900098012843D192
:101740002348006840F010002149086008460068FE
:1017500020F0030008600846006840F002000860BE
:101760001A48406819494860084640684860084679
:10177000406840F4806048600846406820F47C106F
:1017800048600846406840F4E81048600846006831
:1017900040F08070086000BF0C48006800F00070E6
:1017A0000028F9D00948406820F003000749486044
:1017B0000846406840F00200486000BF03484068A7
:1017C00000F00C000828F9D10CBD00000010024008
:1017D0000020024070B504460D4604F00F061020AC
:1017E00000EB241405F1B001C8B200F045F8204622
:1017F00000F042F8304600F03FF870BD70B5044686
:101800000D46201DC4B204F00F06102000EB241476
:1018100005F1B001C8B200F02FF8204600F02CF816
:10182000304600F029F870BD08B501210420FFF70B
:101830008FFD01210820FFF78BFD0720ADF8000088
:1018400010208DF8030003208DF802006946084837
:10185000FFF7C6F9C020ADF8000010208DF8030096
:1018600003208DF8020069460248FFF7B9F908BD68
:1018700000080140000C014070B5044601211948E0
:10188000FFF742FA04211748FFF73EFA40211648B5
:10189000FFF73AFA002619E0254640211248FFF7E3
:1018A00033FA04F08000802804D180210E48FFF72D
:1018B0002DFA03E080210C48FFF726FA40210A4860
:1018C000FFF724FA6806040E701CC6B2082EE3DB8C
:1018D00001210448FFF71AFA04210248FFF716FA1B
:1018E00070BD000000080140000C014070B50446C6
:1018F00001211948FFF708FA04211748FFF706FAF3
:1019000040211648FFF700FA002619E0254640213D
:101910001248FFF7F9F904F08000802804D18021F3
:101920000E48FFF7F3F903E080210C48FFF7ECF9CC
:1019300040210A48FFF7EAF96806040E701CC6B297
:10194000082EE3DB01210448FFF7E0F904210248F7
:10195000FFF7DAF970BD000000080140000C0140FB
:1019600010B506480068401C044908600448006837
:10197000401C0349086000F07BFB10BD24000020E0
:101980002800002010B51348006840F001001149FC
:10199000086008464068104908400E4948600846FB
:1019A00000680E4908400B4908600846006820F4AA
:1019B000802008600846406820F4FE0048604FF42C
:1019C0001F008860FFF791FE4FF000600449086037
:1019D00010BD0000001002400000FFF8FFFFF6FEFF
:1019E00008ED00E000BFFEE700B591B00121084618
:1019F000FFF78EFC01214802FFF7AAFC0120ADF899
:101A0000000000208DF8030069463348FFF7E8F82E
:101A10003248FEF769FE32480190324802900020B9
:101A20000390102004900020059080200690400034
:101A30000790800008902020099000020A90002062
:101A40000B9001A92548FEF7F5FE01212348FEF77A
:101A50003EFE00200C908DF8340001208DF83500FA
:101A60004FF460200E9000200F9001208DF8400070
:101A70000CA91B484C38FEF773FD072301220821EF
:101A800017484C38FEF794FD012115484C38FEF7F5
:101A900047FD012112484C38FEF737FD10484C38FD
:101AA000FEF7E2FD00BF0E484C38FEF74EFD002861
:101AB000F9D10B484C38FEF7E7FD00BF08484C3819
:101AC000FEF739FD0028F9D1012105484C38FEF711
:101AD000D0FD11B000BD0000000C01400800024024
:101AE0004C240140D00D002010B5044611E04FF405
:101AF00080610A48FFF70AF940F6FF0000F0ACF8F1
:101B00004FF480610548FFF7FFF840F6FF0000F052
:101B1000A3F82000A4F10104E9D110BD0010014098
:101B20002DE9F04704468A46914600270025A8463D
:101B300000BF605D0D2802D008F1010831E0B8F166
:101B4000000F09D0B8F1010F08D0B8F1020F08D08A
:101B5000B8F1030F1CD10DE000261AE0681E265CC8
:101B600017E0681E215CA81E205C00EB800001EBE2
:101B700040060EE0E81E205C64214843A91E615C1B
:101B800001EB810100EB4101681E205C0E1800E0B2
:101B900000BF00BFFF2E01DC09F807607F1C4FF07B
:101BA0000008B8F1030F03DC052F01DCFF2E0EDD6A
:101BB0000021052000F050FC4FF4FA60FEF75AFEB9
:101BC000042000F0EDFA6FF00100BDE8F0876D1C15
:101BD0005FEA0A00AAF1010AABD100BF00BFF4E737
:101BE00008B54FF4F850ADF8000048208DF8030018
:101BF00069461648FEF7F4FF4FF47840ADF8000050
:101C000048208DF8030069461148FEF7E9FF4FF4BC
:101C10007070ADF8000048208DF8030069460D484B
:101C2000FEF7DEFF4FF48060ADF8000010208DF865
:101C3000030003208DF8020069460648FEF7D0FF36
:101C40004FF480610348FFF75FF808BD00080140CA
:101C5000000C01400010014000BF0100A0F1010094
:101C6000FBD17047014605E0002001E0421CD0B2E4
:101C70001428FBDD0A00A1F1010399B2F4D17047E9
:101C80000020014908607047BC0100202DE9F05F89
:101C90000646894690464FF00A0B002508E005EB02
:101CA00005102249085CB04200D103E0681CC5B2AF
:101CB0005D45F4DB00BF5D4536DA2D2E01D03A2EAE
:101CC00001D1062704E07C2E01D1082700E0082777
:101CD00041464846FFF792FD00240BE005EB051056
:101CE00012490844401C10F804A05046FFF7FEFDBE
:101CF000601CC4B2BC42F1DB08F10100C1B248462D
:101D0000FFF77CFD00240DE005EB051007490844B2
:101D1000401C04F1080110F801A05046FFF7E6FD51
:101D2000601CC4B2BC42EFDBBDE8F09F3C30000851
:101D30002DE9F047064688461746002512E0307820
:101D400005EB0511204A12F81110884208D170786D
:101D500005EB051102EB41014978884200D103E00F
:101D6000681CC5B2112DEAD300BF39464046FFF7C3
:101D700045FD00240CE005EB0510134901EB400084
:101D8000801C10F804904846FFF7B0FD601CC4B2F8
:101D9000102CF0DB781CC1B24046FFF72FFD002469
:101DA0000EE005EB0510084901EB4000801C04F132
:101DB000100110F801904846FFF798FD601CC4B26E
:101DC000102CEEDBBDE8F087E630000870B5044665
:101DD0000D46002C00DA70BD287848B30C2C27D1B2
:101DE000022000F0DDF9042000F0DAF95A4800681A
:101DF00001280ED159A200210846FFF72BF8002038
:101E0000554908605649086056A20621FFF722F896
:101E10000AE05148006838B953A200210846FFF78C
:101E200019F801204C4908604FF0FF306860D2E794
:101E30002878012845D148480068012842D1092C5A
:101E400002DD801E6860C6E70E2C39D2DFE804F0A0
:101E5000070C11161B20252A2F3031323334E1B202
:101E6000022000F0DFF92CE0E1B2032000F0DAF903
:101E700027E0E1B2042000F0D5F922E0E1B205202C
:101E800000F0D0F91DE0E1B2072000F0CBF918E036
:101E9000E1B2082000F0C6F913E0E1B2092000F039
:101EA000C1F90EE0E1B20A2000F0BCF909E000BF80
:101EB00000BF00BF00BF00BF022000F071F900E0CA
:101EC00000BF46E024480068F0BB022000F068F93B
:101ED000042000F065F90020214908600A2106204D
:101EE00000F0A0F92EE00C2C0FD1022000F058F9E0
:101EF0001DA1002000F06CF9012017490860801E28
:101F0000686000201649086065E7601CB8B10A2CBB
:101F100008DA1348006800EB800004EB4000104929
:101F2000086008E00B2C06D10D4800680A21B0FBC0
:101F3000F1F00B490860E1B2062000F073F900F0FF
:101F400087F804460A2C00E003E0CCD1044800687E
:101F5000686000BF3FE70000080000204E0000005E
:101F6000200000205F000000460000000120014921
:101F700008607047BC01002010B50246002002E056
:101F800013785840521C0B00A1F10101F8D110BD8B
:101F900070B505464FF0FF3600F05AF80446601C55
:101FA00000284FD00C2C01D1304670BD0A2C2AD10C
:101FB00025480068002810DD0D202449224A1268B7
:101FC000885421480068401C1F4908602A4608467A
:101FD00001681E48FFF7A4FD064600201A49086064
:101FE00009E000201949184A126888541648006808
:101FF000401C15490860144800681428F1DB0020D3
:10200000114908601AE00B2C0BD10F48006800281A
:1020100003DD0D480068401E00E000200A4908600A
:102020000CE009480068132808DA0848064A1268D4
:10203000845405480068401C03490860E1B206204A
:1020400000F00AFA3046B0E7C8010020F00D002089
:102050004FF0FF300449096821B1044908680021A4
:10206000014A116070470000C0010020C401002037
:1020700010B5002451E004EB4402294B03EBC202EB
:10208000918804EB440253F83200FEF734FE78BB2B
:10209000012004EB4401224A02EBC101C86004EBB9
:1020A0004400114601EBC0008068401C04EB440171
:1020B00002EBC101886004EB4400114601EBC00053
:1020C0008068322828D904EB440001EBC000006985
:1020D00010B304EB440102EBC101087D00F0A6FA45
:1020E000002004EB44010E4A02EBC101086113E039
:1020F000FFE7002004EB4401094A02EBC1018860BC
:10210000012004EB440102EBC1010861002004EB53
:10211000440102EBC101C860641C0E2CABDB10BD96
:102120002C00002070B506460C460D4800680128BA
:1021300002D10220207001E0012020700220607096
:10214000300AA070E67004212046FFF715FF2071C9
:10215000052502E0002060556D1C202DFADB70BDC6
:1021600008000020FFF714F9FEF7A2FF00F0A4FA20
:10217000FFF736FDFEF742FEFFF736FCFEF7CAFD1D
:102180000BE0FFF765FF0446044844600146204623
:10219000FFF71CFE014881688847F2E71400002021
:1021A00070B504461025002C01DB062C00DD70BD47
:1021B00005E0E1B2EA06100E04A2FFF751F828008C
:1021C000A5F10105F5D100BFF1E7000020000000F6
:1021D00070B505460C46224600212846FFF740F818
:1021E00070BD000038B5044614B1012C12D108E0CE
:1021F0000A4802234822002100903820FEF778FF89
:1022000009E0074802234822002100903820FEF709
:102210006FFF00E000BF00BF38BD00004C0D002084
:102220006C0D002070B505460C46062D02D002202C
:10223000FFF7B6FF0B2D7BD2DFE805F07A062F3AC9
:102240004550C4657B90A500062202210020FEF7C0
:1022500099FF072202211020FEF794FF0822022195
:102260002020FEF78FFF092202213020FEF78AFF8F
:102270000A2202214020FEF785FF0B220221502076
:10228000FEF780FF0C2202216020FEF77BFF0D226B
:1022900002217020FEF776FFD9E01C2202210020E7
:1022A000FEF770FF1D2202211020FEF76BFFCEE02B
:1022B000182202210020FEF765FF192202211020BA
:1022C000FEF760FFC3E01A2202210020FEF75AFF4A
:1022D0001B2202211020FEF755FFB8E01E2202212A
:1022E0000020FEF74FFF1F2202211020FEF74AFFB9
:1022F000222202212020FEF745FF23220221302046
:10230000FEF740FFA3E0202202210020FEF73AFF63
:10231000212202211020FEF735FF22220221202057
:10232000FEF730FF232202213020FEF72BFF8EE044
:102330008CE01E2202210020FEF724FF1F22022132
:102340001020FEF71FFF242202212020FEF71AFF93
:10235000252202213020FEF715FF78E020220221FD
:102360000020FEF70FFF212202211020FEF70AFFB6
:10237000242202212020FEF705FF25220221302001
:10238000FEF700FF63E0282202210020FEF7FAFE9C
:10239000292202211020FEF7F5FE2A220221202008
:1023A000FEF7F0FE2B2202213020FEF7EBFE2C225E
:1023B00002214020FEF7E6FE2D2202215020FEF7EA
:1023C000E1FE44E00A2C07D10020224908705F2278
:1023D0000221FEF70BFF38E00B2C1AD11D490978BA
:1023E000C906080E20220221FEF700FF19480078D6
:1023F000002803DD17480078401E00E00020154942
:1024000008700978C906080E5F220221FEF7EEFE69
:102410001BE00C2C01D00D2C00D170BD04F130005C
:10242000C4B20C490978C906080E22460221FEF7FB
:10243000DDFE08480078401C064908700978C90686
:10244000080E5F220221FEF7D1FE00E000BF00BFB0
:1024500000BFE2E78C0D002070B505460C46062D46
:1024600005D00420FFF79CFE0620FFF799FE082DFB
:102470007DD2DFE805F0D5041E33485D927D002251
:1024800004211046FEF77EFE012204211020FEF7F3
:1024900079FE102204212020FEF774FE022204217E
:1024A0003020FEF76FFE032204214020FEF76AFE73
:1024B000B7E0002204211046FEF764FE0122042149
:1024C0001020FEF75FFE022204212020FEF75AFEB4
:1024D000032204213020FEF755FEA2E00E22042143
:1024E0000020FEF74FFE0F2204211020FEF74AFEC7
:1024F000042211462020FEF745FE0522042130204B
:10250000FEF740FE8DE00E2204210020FEF73AFE89
:102510000F2204211020FEF735FE02220421202084
:10252000FEF730FE032204213020FEF72BFE78E078
:102530000B2204210020FEF725FE0C22042110208E
:10254000FEF720FE122204212020FEF71BFE13229C
:1025500004213020FEF716FE142204214020FEF74D
:1025600011FE152204215020FEF70CFE59E057E021
:10257000262204210020FEF705FE27220421102038
:10258000FEF700FE0E2204212020FEF7FBFD0F22A5
:1025900004213020FEF7F6FD43E00A2C03D1002091
:1025A000214908703BE00B2C1AD11F490978C90654
:1025B000080E20220421FEF719FE1B48007800288F
:1025C00003DD19480078401E00E00020164908701D
:1025D0000978C906080E5F220421FEF707FE1EE0F7
:1025E0000D2C01D13A2001E004F13000C4B20E48B4
:1025F0000078132813DA0C490978C906080E224618
:102600000421FEF7F3FD08480078401C06490870D5
:102610000978C906080E5F220421FEF7E7FD00E0F5
:1026200000BF00BF70BD00008D0D002010B5044636
:102630000548006838B10548046001200449086075
:102640006420FFF751FA10BDBC010020C401002036
:10265000C001002010B50346002109E0064C34F803
:102660001120FF2A02DD4FF0FF3010BD5A54491CE3
:102670000529F3D30020F8E70080000870B505466F
:1026800000240120FEF76AFFFEF7A2F93420FEF7CE
:1026900015F90848FEF718F906E0295D054A02EB2E
:1026A0004400FEF769F9641C052CF6D3FEF74CF9DB
:1026B00070BD00000080000800B587B042202E49A0
:1026C000C877E020ADF8180018208DF81B00032013
:1026D0008DF81A0006A92948FEF782FA1020ADF8F5
:1026E00018008DF81B0003208DF81A0006A9244855
:1026F000FEF776FA1020ADF818008DF81B000320C5
:102700008DF81A0006A91D48FEF76AFA10211B4829
:10271000FEF7FCFA2020ADF8180048208DF81B00C9
:1027200006A91748FEF75CFA0020ADF804004FF444
:102730008270ADF806000020ADF80800ADF80A0080
:10274000ADF80C004FF40070ADF80E003820ADF875
:1027500010000020ADF812000720ADF81400094861
:10276000FEF746FF01A90748FEF77CFF0121054857
:10277000FEF732FF07B000BD9A01002000080140BB
:10278000001001400030014010B5044610210E48F1
:10279000FEF7BAFA21460D48FEF762FF00F034F862
:1027A00000210A48FEF75CFF00BF01210748FEF741
:1027B0004BFF0028F9D010210348FEF7A7FA034881
:1027C000FEF74BFFC0B210BD0008014000300140D1
:1027D00070B504460D4610210948FEF795FA2146CA
:1027E0000848FEF73DFF00F00FF829460548FEF7C0
:1027F00037FF00F009F810210148FEF787FA70BD95
:10280000000801400030014010B500BF022104481B
:10281000FEF71AFF0028F9D00320FEF72BF810BDB1
:10282000003001400000000000000000002F000008
:1028300000000700070000147F147F1400242A7F83
:102840002A12006264081323003649552250000002
:102850000503000000001C224100000041221C0072
:102860000014083E08140008083E0808000000A0F4
:1028700060000008080808080000606000000020F0
:1028800010080402003E5149453E0000427F4000CE
:10289000004261514946002141454B310018141254
:1028A0007F10002745454539003C4A494930000121
:1028B0007109050300364949493600064949291E70
:1028C00000003636000000005636000000081422D2
:1028D00041000014141414140000412214080002D2
:1028E0000151090600324959513E007C1211127CF7
:1028F000007F49494936003E41414122007F414124
:10290000221C007F49494941007F09090901003E15
:102910004149497A007F0808087F0000417F410053
:10292000002040413F01007F08142241007F4040C9
:102930004040007F020C027F007F0408107F003EB1
:102940004141413E007F09090906003E4151215E97
:10295000007F091929460046494949310001017F94
:102960000101003F4040403F001F2040201F003F2A
:102970004038403F006314081463000708700807DC
:1029800000615149454300007F41410000552A55EF
:102990002A55000041417F0000040201020400406A
:1029A000404040400000010204000020545454788C
:1029B000007F4844443800384444442000384444AC
:1029C000487F00385454541800087E09010200184A
:1029D000A4A4A47C007F080404780000447D400087
:1029E000004080847D00007F102844000000417F6B
:1029F0004000007C04180478007C08040478003847
:102A00004444443800FC242424180018242418FCCE
:102A1000007C0804040800485454542000043F4437
:102A20004020003C4040207C001C2040201C003CFA
:102A30004030403C004428102844001CA0A0A07C4A
:102A4000004464544C441414141414140000000082
:102A5000000000000000000000000000000000F87E
:102A600000000000000000333000000000100C06E1
:102A7000100C0600000000000000000040C078407C
:102A8000C0784000043F04043F040400007088FC48
:102A900008300000001820FF211E0000F008F000A0
:102AA000E018000000211C031E211E0000F0088811
:102AB000700000001E2123241927211010160E007B
:102AC000000000000000000000000000000000E026
:102AD000180402000000000718204000000204183B
:102AE000E00000000040201807000000404080F097
:102AF000804040000202010F01020200000000F0CD
:102B0000000000000101011F0101010000000000A0
:102B10000000000080B07000000000000000000015
:102B2000000000000001010101010101000000009E
:102B30000000000000303000000000000000000035
:102B400080601804006018060100000000E0100812
:102B50000810E000000F102020100F00001010F8E7
:102B6000000000000020203F202000000070080826
:102B700008887000003028242221300000300888A6
:102B8000884830000018202020110E000000C020CE
:102B900010F8000000070424243F240000F80888EF
:102BA000880808000019212020110E0000E010887C
:102BB00088180000000F112020110E0000380808AE
:102BC000C83808000000003F0000000000708808BE
:102BD00008887000001C222121221C0000E010083F
:102BE0000810E0000000312222110F00000000C098
:102BF000C000000000000030300000000000008035
:102C00000000000000008060000000000000804024
:102C1000201008000001020408102000404040403D
:102C20004040400004040404040404000008102090
:102C300040800000002010080402010000704808D5
:102C40000808F0000000003036010000C030C8283D
:102C5000E810E0000718272423140B000000C038F8
:102C6000E0000000203C23020227382008F8888872
:102C700088700000203F202020110E00C03008087E
:102C800008083800071820202010080008F8080855
:102C90000810E000203F202020100F0008F888884E
:102CA000E8081000203F20202320180008F888881A
:102CB000E8081000203F200003000000C030080892
:102CC0000838000007182020221E020008F808001B
:102CD0000008F808203F210101213F20000808F8E2
:102CE000080800000020203F202000000000080805
:102CF000F8080800C08080807F00000008F888C0C5
:102D000028180800203F20012638200008F8080075
:102D100000000000203F20202020300008F8F800AC
:102D2000F8F80800203F003F003F200008F830C0BE
:102D30000008F808203F200007183F00E0100808AE
:102D40000810E0000F10202020100F0008F80808DD
:102D50000808F000203F210101010000E0100808F0
:102D60000810E0000F18242438504F0008F8888815
:102D700088887000203F2000030C302000708808F5
:102D8000080838000038202121221C00180808F803
:102D9000080818000000203F2000000008F8080084
:102DA0000008F808001F202020201F000878880055
:102DB00000C83808000007380E010000F80800F8C5
:102DC0000008F800033C0700073C0300081868806F
:102DD0008068180820302C03032C30200838C800E5
:102DE000C83808000000203F200000001008080834
:102DF000C83808002038262120201800000000FED6
:102E0000020202000000007F40404000000C30C081
:102E100000000000000000010638C00000020202AD
:102E2000FE000000004040407F000000000004025F
:102E3000020204000000000000000000000000008A
:102E4000000000008080808080808080000202047A
:102E50000000000000000000000000000000808072
:102E6000808000000019242222223F2008F80080E0
:102E700080000000003F112020110E0000000080A3
:102E800080800000000E1120202011000000008032
:102E90008088F800000E112020103F200000808064
:102EA00080800000001F222222221300008080F078
:102EB000888888180020203F2020000000008080A3
:102EC00080808000006B94949493600008F80080E8
:102ED00080800000203F210000203F200080989843
:102EE000000000000020203F2020000000000080A3
:102EF0009898000000C08080807F000008F80000E3
:102F000080808000203F24022D302000000808F837
:102F1000000000000020203F2020000080808080F2
:102F200080808000203F20003F20003F8080008084
:102F300080800000203F210000203F200000808092
:102F400080800000001F202020201F008080008043
:102F50008000000080FFA12020110E0000000080F2
:102F600080808000000E112020A0FF8080808000E3
:102F70008080800020203F21200001000000808010
:102F8000808080000033242424241900008080E005
:102F9000808000000000001F2020000080800000D2
:102FA00000808000001F202020103F2080808000B3
:102FB0000080808000010E300806010080800080C3
:102FC000008080800F300C030C300F0000808000E8
:102FD000808080000020312E0E3120008080800013
:102FE0000080808080818E701806010000808080C3
:102FF000808080000021302C222130000000000061
:10300000807C020200000000003F40400000000001
:10301000FF00000000000000FF0000000002027C32
:10302000800000000040403F000000000006010159
:10303000020204040000000000000000310000084B
:1030400008FC000000000004040704040032000033
:10305000080484443800000006050404040033001A
:103060000008044444B800000002040404030034CF
:103070000000806018FC0000000001010507050049
:103080003500007C4444448400000002040404032E
:1030900000360000F04844448000000003040404AB
:1030A00003003700000C0484641C000000000601CB
:1030B000000000380000B8444444B8000000030495
:1030C0000404030039000038444444F800000000C0
:1030D0000404020100300000F8040404F8000000B9
:1030E000030404040300CAC70000007F494949499A
:1030F0004949497F000000008141211D214181FF94
:103100008989898989818100B7F1000282824222FE
:1031100012FA0622224242820000010100FC4444CD
:103120004445444444FC00000100CAB94020F8076B
:1031300004F4141414FF141414F604000000FF0027
:10314000804345291917212141C34000D3C3000002
:10315000FE22222222FE22222222FF020000806082
:103160001F020202027F020242827F000000BADADE
:103170000000FE8A92B282FE82A29A92FF020000B2
:10318000088A6A0A2ACA0A0F2ACA0A2A4ACA0800E8
:10319000B0D70000F8080C0A090808080808FC085D
:1031A000000000007F2121212121212121217F00F8
:1031B0000000B5E30000C04040407F48484848E870
:1031C0004C0800008040370414640414246404177D
:1031D00020C00000D5F300FE225A860484E49F84B8
:1031E000F484C486040000FF0408070808080808DF
:1031F000FF08080C0800D2BA1022640C8004C43402
:1032000005C6BC2424E604000404FE010201FF42BA
:103210002116081523602000BEA700000000FF490A
:1032200049494949FF000080000000FF49494949D8
:10323000FF00FF49494949FF0100C6C10000FE12D5
:103240009292B2D292D2B292DF82000040201F044A
:1032500084443F040404FF0404060400CFD40000A7
:1032600000FE92929292929292FF020000004042DF
:10327000444D407F4040407F404944664000CABEC4
:1032800040404242424242C24242424342604000C7
:10329000001008040640807F000002040C180000A3
:1032A000BABA1022640C80047484040404C43E047A
:1032B000000004047E01804020110A040B1060C04D
:1032C0004000D7D600100C2424242526A46424040E
:1032D000140C0000020202020242827F0202020279
:1032E00002030200B2E210226C0080FC04F404FE2F
:1032F00004F800FE00000404FE014027100F1067D0
:103300000047807F0000CAD44042CC0010909090CB
:103310009090FF101214100000007F201020603FDA
:103320001010013E4080700000000000000000000E
:103330000000000000000000000000F80000000095
:10334000000000333000000000100C06100C0600D6
:10335000000000000000000040C07840C07840003D
:10336000043F04043F040400007088FC083000009F
:10337000001820FF211E0000F008F000E0180000F7
:1033800000211C031E211E0000F0088870000000B0
:103390001E2123241927211010160E000000000002
:1033A0000000000000000000000000E0180402001F
:1033B000000000071820400000020418E000000090
:1033C0000040201807000000404080F0804040008E
:1033D0000202010F01020200000000F000000000E4
:1033E0000101011F010101000000000000000000B8
:1033F00080B070000000000000000000000000002D
:1034000000010101010101010000000000000000B5
:103410000030300000000000000000008060180450
:10342000006018060100000000E010080810E0002D
:10343000000F102020100F00001010F800000000F6
:103440000020203F2020000000700808088870003D
:1034500000302824222130000030088888483000BD
:103460000018202020110E000000C02010F80000DD
:1034700000070424243F240000F808888808080076
:103480000019212020110E0000E01088881800008B
:10349000000F112020110E0000380808C83808005D
:1034A0000000003F000000000070880808887000DD
:1034B000001C222121221C0000E010080810E0005E
:1034C0000000312222110F00000000C0C0000000E7
:1034D000000000303000000000000080000000000C
:1034E0000000806000000000000080402010080004
:1034F00000010204081020004040404040404000CD
:1035000004040404040404000008102040800000A7
:103510000020100804020100007048080808F000AC
:103520000000003036010000C030C828E810E0007C
:103530000718272423140B000000C038E000000007
:10354000203C23020227382008F888888870000071
:10355000203F202020110E00C03008080808380045
:10356000071820202010080008F808080810E000BC
:10357000203F202020100F0008F88888E80810005D
:10358000203F20202320180008F88888E808100031
:10359000203F200003000000C03008080838000069
:1035A00007182020221E020008F808000008F8086A
:1035B000203F210101213F20000808F808080000F1
:1035C0000020203F2020000000000808F808080024
:1035D000C08080807F00000008F888C0281808009C
:1035E000203F20012638200008F8080000000000D5
:1035F000203F20202020300008F8F800F8F80800CC
:10360000203F003F003F200008F830C00008F808C5
:10361000203F200007183F00E01008080810E000D5
:103620000F10202020100F0008F808080808F000EC
:10363000203F210101010000E01008080810E0000F
:103640000F18242438504F0008F8888888887000A4
:10365000203F2000030C3020007088080808380044
:103660000038202121221C00180808F8080818003A
:103670000000203F2000000008F808000008F808BB
:10368000001F202020201F000878880000C838086C
:10369000000007380E010000F80800F80008F800E4
:1036A000033C0700073C030008186880806818087E
:1036B00020302C03032C30200838C800C8380800FC
:1036C0000000203F2000000010080808C83808004B
:1036D0002038262120201800000000FE02020200EF
:1036E0000000007F40404000000C30C0000000009F
:1036F000000000010638C00000020202FE000000C7
:10370000004040407F00000000000402020204006C
:1037100000000000000000000000000000000000A9
:103720008080808080808080000202040000000091
:103730000000000000000000000080808080000089
:103740000019242222223F2008F800808000000077
:10375000003F112020110E0000000080808000003A
:10376000000E112020201100000000808088F80049
:10377000000E112020103F2000008080808000007B
:10378000001F222222221300008080F088888818DF
:103790000020203F202000000000808080808000EA
:1037A000006B94949493600008F80080808000007F
:1037B000203F210000203F2000809898000000005A
:1037C0000020203F2020000000000080989800008A
:1037D00000C08080807F000008F8000080808000AA
:1037E000203F24022D302000000808F800000000CF
:1037F0000020203F2020000080808080808080008A
:10380000203F20003F20003F80800080808000001B
:10381000203F210000203F200000808080800000A9
:10382000001F202020201F008080008080000000DA
:1038300080FFA12020110E00000000808080800009
:10384000000E112020A0FF808080800080808000FA
:1038500020203F2120000100000080808080800027
:103860000033242424241900008080E0808000009C
:103870000000001F202000008080000000808000E9
:10388000001F202020103F2080808000008080804A
:1038900000010E30080601008080008000808080DA
:1038A0000F300C030C300F000080800080808000FF
:1038B0000020312E0E31200080808000008080802A
:1038C00080818E70180601000080808080808000DA
:1038D0000021302C2221300000000000807C0202F8
:1038E00000000000003F404000000000FF0000001A
:1038F00000000000FF0000000002027C80000000C9
:103900000040403F000000000006010102020404E4
:1039100000000000000000000000000000000000A7
:103920000000000000000000000000F8000000009F
:10393000000000333000000000100C06100C0600E0
:10394000000000000000000040C07840C078400047
:10395000043F04043F040400007088FC08300000A9
:10396000001820FF211E0000F008F000E018000001
:1039700000211C031E211E0000F0088870000000BA
:103980001E2123241927211010160E00000000000C
:103990000000000000000000000000E01804020029
:1039A000000000071820400000020418E00000009A
:1039B0000040201807000000404080F08040400098
:1039C0000202010F01020200000000F000000000EE
:1039D0000101011F010101000000000000000000C2
:1039E00080B0700000000000000000000000000037
:1039F00000010101010101010000000000000000C0
:103A0000003030000000000000000000806018045A
:103A1000006018060100000000E010080810E00037
:103A2000000F102020100F00001010F80000000000
:103A30000020203F20200000007008080888700047
:103A400000302824222130000030088888483000C7
:103A50000018202020110E000000C02010F80000E7
:103A600000070424243F240000F808888808080080
:103A70000019212020110E0000E010888818000095
:103A8000000F112020110E0000380808C838080067
:103A90000000003F000000000070880808887000E7
:103AA000001C222121221C0000E010080810E00068
:103AB0000000312222110F00000000C0C0000000F1
:103AC0000000003030000000000000800000000016
:103AD000000080600000000000008040201008000E
:103AE00000010204081020004040404040404000D7
:103AF00004040404040404000008102040800000B2
:103B00000020100804020100007048080808F000B6
:103B10000000003036010000C030C828E810E00086
:103B20000718272423140B000000C038E000000011
:103B3000203C23020227382008F88888887000007B
:103B4000203F202020110E00C0300808080838004F
:103B5000071820202010080008F808080810E000C6
:103B6000203F202020100F0008F88888E808100067
:103B7000203F20202320180008F88888E80810003B
:103B8000203F200003000000C03008080838000073
:103B900007182020221E020008F808000008F80874
:103BA000203F210101213F20000808F808080000FB
:103BB0000020203F2020000000000808F80808002E
:103BC000C08080807F00000008F888C028180800A6
:103BD000203F20012638200008F8080000000000DF
:103BE000203F20202020300008F8F800F8F80800D6
:103BF000203F003F003F200008F830C00008F808D0
:103C0000203F200007183F00E01008080810E000DF
:103C10000F10202020100F0008F808080808F000F6
:103C2000203F210101010000E01008080810E00019
:103C30000F18242438504F0008F8888888887000AE
:103C4000203F2000030C302000708808080838004E
:103C50000038202121221C00180808F80808180044
:103C60000000203F2000000008F808000008F808C5
:103C7000001F202020201F000878880000C8380876
:103C8000000007380E010000F80800F80008F800EE
:103C9000033C0700073C0300081868808068180888
:103CA00020302C03032C30200838C800C838080006
:103CB0000000203F2000000010080808C838080055
:103CC0002038262120201800000000FE02020200F9
:103CD0000000007F40404000000C30C000000000A9
:103CE000000000010638C00000020202FE000000D1
:103CF000004040407F000000000004020202040077
:103D000000000000000000000000000000000000B3
:103D1000808080808080808000020204000000009B
:103D20000000000000000000000080808080000093
:103D30000019242222223F2008F800808000000081
:103D4000003F112020110E00000000808080000044
:103D5000000E112020201100000000808088F80053
:103D6000000E112020103F20000080808080000085
:103D7000001F222222221300008080F088888818E9
:103D80000020203F202000000000808080808000F4
:103D9000006B94949493600008F800808080000089
:103DA000203F210000203F20008098980000000064
:103DB0000020203F20200000000000809898000094
:103DC00000C08080807F000008F8000080808000B4
:103DD000203F24022D302000000808F800000000D9
:103DE0000020203F20200000808080808080800094
:103DF000203F20003F20003F808000808080000026
:103E0000203F210000203F200000808080800000B3
:103E1000001F202020201F008080008080000000E4
:103E200080FFA12020110E00000000808080800013
:103E3000000E112020A0FF80808080008080800004
:103E400020203F2120000100000080808080800031
:103E50000033242424241900008080E080800000A6
:103E60000000001F202000008080000000808000F3
:103E7000001F202020103F20808080000080808054
:103E800000010E30080601008080008000808080E4
:103E90000F300C030C300F00008080008080800009
:103EA0000020312E0E312000808080000080808034
:103EB00080818E70180601000080808080808000E4
:103EC0000021302C2221300000000000807C020202
:103ED00000000000003F404000000000FF00000024
:103EE00000000000FF0000000002027C80000000D3
:103EF0000040403F000000000006010102020404EF
:103F00000000000000000000283F00080000002022
:103F1000D00D00006C010008E8440008D00D00201E
:103F200098060000C80100088132012D34431010AA
:103F300008411AFF01136D0AD208B510014040294B
:103F40002C5A0218DA80185A0518390D9918395167
:103F5000291839398918510A1008306A0B18D930D4
:103F60006A0918CA04186A061899BA29186A03183F
:103F7000CA1018420D0A100C306A0C18D930399F3B
:103F80002918CA201839872918CA40186A0718CA78
:103F90008018420A7BA24ABE380E010203040607BB
:103FA0000809344310100105022137398C311AFFFA
:103FB000014115404042CC780A0444645C47F44413
:103FC00044445BA11D40201F201A2C44447F05015E
:103FD00011980F101010FF1050445465C6446454DB
:103FE00044C9710010130444827F0182824A56231F
:103FF00022524E82021BF888010009110808FF08AE
:10400000090AC8081480601F000C1110201F80408E
:104010002116182641F81D080808F80429860412FC
:104020001010F0000F131030101F088848300E01D8
:104030004080403F3C40301EC42901011300101253
:1040400081814121110D0301030D1121418181184D
:104050000AFE02FA02FE4020D8177F0911422F8083
:1040600047300F1067BF06110816214080080F1057
:1040700088681FC80810C85452D1129408D040163E
:10408000091909FF0515FF1292FF04175F807F05CC
:104090001701E21CE037804020100C030E10030CC7
:1040A0003040808011158060F807080A100424242D
:1040B0002526242424045B2132FF2BF949010A110F
:1040C000F93F4D8080BEA2011ABE0C0114000A14F3
:1040D00006050404044484443C171010D0FF9010DB
:1040E0000614FE020202FE1B0403803483601F05D7
:1040F000113F404078080F11202020FF202080F839
:104100008040FF2010F0602E30100F08083C0D1684
:104110005F42444340111AF8E70C15404040402DDF
:1041200048407F40030912210121031E3636000D4D
:1041300013181610D0B897909090929410000F1109
:1041400020108C83804146281028444380801540ED
:104150004042CC080A1088898E88F8888C8B882089
:1041600011080D1240201F2040504846414244583B
:10417000C01A02011F8242F20E4282090112261069
:104180000804020132FF041201020C100908CC4A93
:1041900049484ACC1807127F88888482E027FF129A
:1041A0001252927F0A147E20080D111010D0FF9039
:1041B000201018A744A4145F111B04037C080911E4
:1041C0000502FD44444445FDA12C10109001000956
:1041D000121010FF101011161010082060203F1050
:1041E00010100711030C102040F8380A4030EF245B
:1041F0006448487F48040211401601017F21112BB9
:10420000FF49010213FF244042CC2C809E920103FF
:10421000149E80080E137F2094844424140F1424C9
:1042200044848421395D041449497F280A8141214D
:104230001D214181FF890103128181000E1202823A
:1042400082422212FA0622224242821301011EFCFD
:1042500044444445041AFC0E0111080F11808040AB
:1042600020504844C3444850204080C11B40403B3C
:104270002B447F0503124040172030AC6320181DEB
:10428000040404FC040112180822672212121240CE
:10429000012A7F0501111809101012D2525F52F243
:1042A000040514D2121010000A159F5232121F1268
:1042B00032529F14F801022D0202F202010213FE93
:1042C00022FF14080403071401020C40807F080B2E
:1042D000121011161010F0101014137E001011811E
:1042E00081414121110D030D112141418181138033
:1042F000701CFF2010FB2B04FC0509102026601801
:1043000007083009157D199D3808884828180FE8D6
:1043100008010113000E122011090541817F0101DE
:104320000509112038080202E22222FE22040413A9
:10433000E20202000C13FF4844434040404344441F
:10434000FF080F1004E4242464A4243F24A464245C
:1043500024E4C01112FF1E080909097F040A13484A
:10436000C31A200129590D11FF402010C02E2060D2
:10437000201010201A3F840B114078811F04F49400
:1043800094949F040B11F4047F19354B7F4A011A52
:104390007F0C0112151088C4331E40424242C204F1
:1043A0000910201B0201C229480913BD211A080166
:1043B0002C88780F0729010910C01D1048464101BB
:1043C0002A7F05091180080F10C8B88FE888884037
:1043D0004848E85F484848201D081808FFD80008EA
:1043E00013020B1222D20A0628090202C20202029A
:1043F000FE820102120219F429F829042901091187
:10440000C008091488C8380C0B0808E8C01302015A
:104410008BFF40C101132A24010F13FC2222222307
:10442000229F19013C42827F080A1002A1000F124C
:104430004044C4444444401010FF101010F0080FD2
:1044400011103C131014B840300E014080403F2042
:10445000193A080C109020984828090E2848A818E6
:10446000801442817F1F40404242427E040910C0B6
:10447000200C40504E4848FF48484840F80214FF7E
:1044800010083E0202FF12221E0D120F40807FE034
:10449000000D12FE929292FE0206FC040404FC0837
:1044A000101008180F080804FF048440271827403C
:1044B00080C01560020CC0000813E22C203F2028A9
:1044C000E61D04047C03990E1109090949897F71CD
:1044D00013F0F04AFFBD490A4903091D200E428826
:0844E00050205088420000004A
:0400000508000131BD
:00000001FF
