:020000040800F2
:100000006814002015020008DD0F0008410D0008EB
:10001000D90F000893060008F1190008000000003D
:10002000000000000000000000000000F5160008BD
:100030007108000800000000191300086D1900087D
:100040002F0200082F0200082F0200082F020008CC
:100050002F0200082F0200088D0800082F02000858
:100060002F0200082F0200082F0200082F020008AC
:100070002F0200082F0200082F0200082F0200089C
:100080002F0200082F0200082F0200082F0200088C
:100090002F0200082F0200082F020008A308000802
:1000A0002F0200082F0200082F0200082F0200086C
:1000B0002F0200082F0200082F0200082F0200085C
:1000C0002F0200082F0200082F0200082F0200084C
:1000D0002F0200082F0200082F0200082F0200083C
:1000E000970800082F0200082F0200082F020008BE
:1000F0002F0200082F0200082F0200082F0200081C
:100100002F0200082F0200082F0200082F0200080B
:100110002F0200082F0200082F0200082F020008FB
:100120002F0200082F0200082F0200082F020008EB
:1001300000F002F800F05FF80AA090E8000C82449A
:100140008344AAF10107DA4501D100F054F8AFF277
:10015000090EBAE80F0013F0010F18BFFB1A43F0A5
:1001600001031847C4430000E44300000A444FF071
:10017000000C10F8013B13F0070408BF10F8014B06
:100180001D1108BF10F8015B641E05D010F8016B4B
:10019000641E01F8016BF9D113F0080F1EBF10F8AF
:1001A000014BAD1C0C1B09D16D1E58BF01F801CBD2
:1001B000FAD505E014F8016B01F8016B6D1EF9D555
:1001C0009142D6D37047000000230024002500266A
:1001D000103A28BF78C1FBD8520728BF30C148BFAA
:1001E0000B607047642900F07D80002070471FB5C8
:1001F0001FBD10B510BD00F052F91146FFF7F7FF13
:1002000002F0CCF900F070F903B4FFF7F2FF03BC81
:1002100000F074F90948804709480047FEE7FEE707
:10022000FEE7FEE7FEE7FEE7FEE7FEE7FEE7FEE7A6
:1002300004480549054A064B70470000911900081B
:1002400031010008680E00206814002068100020AA
:10025000681000200FB41CB5074B06AA7B44694602
:100260000090059800F003F90020694600F012F9AB
:100270001CBC5DF814FB0000350200002DE9F041C4
:100280000E460446002020622046E168884730B3CD
:10029000252805D0D4E901219047206A401CF2E7C7
:1002A000E168204600278847050018D0A5F14100E5
:1002B000192802D820354FF40067324629462046D7
:1002C0002760FFF78FFF40B1012804D0F61D26F00C
:1002D00007060836D8E7361DD6E72846DAE7206A4B
:1002E000BDE8F0812DE9F04106460024106875292B
:1002F000314616A510D0AFF30080002802DA404244
:1003000013A507E031688A0701D512A502E0490765
:1003100004D511A5012401E0AFF3008000210A22D9
:1003200006F1240709E0B0FBF2FCB0FBF2F302FB9C
:100330001C00303078541846491C0028F3D123465D
:100340002A463046BDE8F04100F032B80000000017
:100350002D0000002B000000200000004FF00002E4
:1003600000B5134694469646203922BFA0E80C50AB
:10037000A0E80C50B1F12001BFF4F7AF090728BF86
:10038000A0E80C5048BF0CC05DF804EB890028BF02
:1003900040F8042B08BF704748BF20F8022B11F02B
:1003A000804F18BF00F8012B7047704770477047A7
:1003B0002DE9F0470D4699469246044600F124087F
:1003C0000168880604D5E06921F01001216000E091
:1003D0000120A84201DD471B00E00027A1697A192E
:1003E00002EB0900081AA0612078C00602D420465A
:1003F000AFF30080002608E0D4E901211AF80600D6
:100400009047206A401C761C20624E45F4DB207821
:10041000C0060AD52046AFF3008006E0D4E90121EA
:1004200030209047206A401C2062381EA7F1010747
:10043000F4DC07E0D4E9012118F805009047206AB0
:10044000401C2062281EA5F10105F3DC2046AFF315
:1004500000802078000602D50220BDE8F087012048
:10046000FBE7000001694A1C02610878704700B58B
:100470008FB0CDE901310021059105497944CDE9DD
:10048000031011466846FFF7F9FE0FB000BD0000EB
:10049000E5FFFFFF0A6802F8010B0A607047754626
:1004A00000F028F8AE4605006946534620F00700E4
:1004B000854618B020B5FFF7BBFEBDE820404FF0E1
:1004C00000064FF000074FF000084FF0000B21F03E
:1004D0000701AC46ACE8C009ACE8C009ACE8C0090B
:1004E000ACE8C0098D4670470446AFF30080204653
:1004F000FFF78AFE00487047080E002001491820C7
:10050000ABBEFEE726000200704721B1826842F0D0
:100510000102826003E0826822F00102826070477B
:1005200021B1826842F48072826003E0826822F422
:10053000807282607047014600208A6802F00402DF
:100540000AB1012000E000207047014600208A68BF
:1005500002F008020AB1012000E00020704700000C
:1005600030B502460020002350680F4C20400D7922
:100570000C6844EA05242043506090680B4C2040EE
:10058000D1E902542C434D7944EA4504204390605C
:10059000D06A20F470000C7C641EE4B2234340EA6D
:1005A0000350D06230BD0000FFFEF0FFFDF7F1FF09
:1005B000F0B504460D4600200021092D11DDE0684C
:1005C000A5F10A0606EB4607072606FA07F1884357
:1005D000A5F10A0606EB460603FA06F10843E060B9
:1005E0000CE0206905EB4507072606FA07F188436A
:1005F00005EB450603FA06F108432061072A0FDAE6
:10060000606B561E06EB86071F2606FA07F1884325
:10061000561E06EB860605FA06F10843606322E0E3
:100620000D2A0FDA206BD61F06EB86071F2606FA67
:1006300007F18843D61F06EB860605FA06F1084344
:10064000206310E0E06AA2F10D0606EB86071F2684
:1006500006FA07F18843A2F10D0606EB860605FAB5
:1006600006F10843E062F0BD816841F00801816055
:10067000704721B1826842F4A002826003E0826880
:1006800022F4A00282607047816841F00401816019
:10069000704700BFFEE770B5002415E004F1B0011B
:1006A000C8B201F0EFF8102001F0ECF8002001F0E2
:1006B000E9F8002504E0002001F01EF9681CC5B22D
:1006C000842DF8DB601CC4B2082CE7DB70BD21B1BF
:1006D000026842F00102026004E002684FF6FE7315
:1006E0001A4002607047000001684FF6FE72114028
:1006F00001600021016041608160C1604B49884216
:1007000008D14A490839496841F00F01474A083A77
:1007100051608AE045491431884208D1434908397B
:10072000496841F0F001414A083A51607DE03F4993
:100730002831884208D13D490839496841F470613F
:100740003A4A083A516070E038493C31884208D151
:1007500036490839496841F47041344A083A5160D1
:1007600063E032495031884208D13049083949683C
:1007700041F470212D4A083A516056E02B4964310A
:10078000884208D129490839496841F47001274A4B
:10079000083A516049E025497831884208D1234917
:1007A0000839496841F07061204A083A51603CE0DC
:1007B0001F49884206D1011F096841F00F01021F3D
:1007C000116032E01A491431884208D11849091FD2
:1007D000096841F0F001164A121F116025E0144922
:1007E0002831884208D11249091F096841F4706113
:1007F0000F4A121F116018E00D493C31884208D1A0
:100800000B49091F096841F47041094A121F116020
:100810000BE007495031884207D10549091F096893
:1008200041F47021024A121F116070470800024013
:100830000804024010B50022026847F6F0739A439C
:100840000C6A8B6823430C6923434C6923438C69EE
:100850002343CC6923434C6A23438C6A23431A43C2
:100860000260CB6843600B6883604B68C36010BD57
:10087000704700000021044A116000BF0249096866
:100880008842FBD8704700002C00002010B50120E2
:1008900000F00EF810BD10B54FF47C4000F008F8E1
:1008A00010BD10B54FF4FC6000F002F810BD000060
:1008B0000149086070470000140401400149C86004
:1008C000704700000020024030B5044604254FF474
:1008D000302000F089F80546042D17D10C48006936
:1008E00040F002000A49086108464461006940F08E
:1008F000400008614FF4302000F076F805460448C7
:10090000006941F6FD71084001490861284630BD83
:100910000020024004200B49C96801F0010109B11F
:1009200001200EE00749C96801F0040109B1022065
:1009300007E00449C96801F0100109B1032000E093
:1009400004207047002002400348006940F0800006
:10095000014908617047000000200240054909680C
:1009600021F01001034A116011460968014311602A
:10097000704700000020024070B504460D46042672
:10098000F00200F031F80646042E11D10948006942
:1009900040F00100074908612580F00200F024F8CA
:1009A00006460448006941F6FE71084001490861A5
:1009B000304670BD0020024001460020034A106806
:1009C00000F038000843106070470000002002402B
:1009D000024803494860034848607047230167455F
:1009E00000200240AB89EFCD00B502460423FFF79B
:1009F00091FF034603E0FFF78DFF0346521E012BD4
:100A000001D1002AF7D102B90523184600BD000024
:100A100010B588B0044620216846FFF79FFC606847
:100A2000401CF8B10021072001F010FD9620FFF7CF
:100A300021FFA18888B2694601F0C0FB01F030F9BE
:100A4000684600F0CDFA20B90021042001F0FEFC38
:100A500006E00021032001F0F9FC034800F01EFB32
:100A600001F0C4FA08B010BD0C00002030B58BB006
:100A70000446202103A8FFF771FC5BA2002105209A
:100A800000F020FA012000F087FA012001F0A4FD17
:100A9000052001F0A1FD554801F0F0FE534801F09A
:100AA000D9FE401C002849D0012001F0DFFB0220C4
:100AB00001F0DCFB032001F0D9FB042001F0D6FBA0
:100AC0004A4800794949C978484A9278CDE90021D5
:100AD000029046484378027845A103A8FFF7BAFB85
:100AE00003AA0121052000F0EDF90522062144A00A
:100AF00000F02EFA0522602142A000F029FA1BE046
:100B000001F0E6FA05460C2D00D116E00D2D13D1AB
:100B1000022001F0ABFB032001F0A8FB042001F050
:100B2000A5FB0021012001F0C3FB00BF2F4801F00D
:100B30006FFA0028FAD100E0E2E712E0012001F0AC
:100B40004BFD052001F048FD062001F045FD002188
:100B5000012001F059FD00BF244801F059FA002896
:100B6000FAD1224800F09AFA03A800F039FAF0B15D
:100B7000012001F07BFB032001F078FB042001F051
:100B800075FB0021012001F061FC17A20021052066
:100B900000F098F9012000F0FFF900202070AFF27A
:100BA0003310A0604FF4FA60FFF764FE1AE00120F2
:100BB00001F05CFB032001F059FB042001F056FB1F
:100BC0000021022001F042FC0FA1002001F066FB91
:100BD000002000F0E1F9012020700C48A0600348DB
:100BE00001F04CFE0BB030BD4E0000000C000020A8
:100BF00025643A25643A25643A25643A2564000060
:100C0000CAC70000B7F1000046000000110A000842
:100C10002DE9F04102460025002600200023002493
:100C2000002791F803C00CF00F0591F803C00CF0F9
:100C3000100CBCF1000F03D091F802C04CEA05057E
:100C400091F800C0BCF1000F31D0146800202BE0F7
:100C50004FF0010C0CFA00F3B1F800C00CEA0306E7
:100C60009E4220D183004FF00F0C0CFA03F7BC43D7
:100C700005FA03FC4CEA040491F803C0BCF1280F08
:100C800006D14FF0010C0CFA00FCC2F814C00AE0C7
:100C900091F803C0BCF1480F05D14FF0010C0CFADC
:100CA00000FCC2F810C0401C0828D1D31460B1F871
:100CB00000C0BCF1FF0F34DD546800202EE000F1CD
:100CC000080C4FF0010808FA0CF3B1F800C00CEA68
:100CD00003069E4221D183004FF00F0C0CFA03F75C
:100CE000BC4305FA03FC4CEA040491F803C0BCF1D0
:100CF000280F05D100F1080C08FA0CF8C2F814808E
:100D000091F803C0BCF1480F07D100F1080C4FF077
:100D1000010808FA0CF8C2F81080401C0828CED34D
:100D20005460BDE8F0810246002093680B400BB18F
:100D3000012000E000207047416170470161704769
:100D400000BFFEE710B500F075FD02211C48FFF75B
:100D5000F3FFC82000F096FF02211948FFF7EEFFCD
:100D6000C82000F08FFFE22000F08CFDA32000F0EF
:100D700089FDA02000F086FDC82000F083FD2C2016
:100D800000F080FD2E2000F07DFD2F2000F07AFD88
:100D9000812000F077FD192000F074FD242000F080
:100DA00071FDAF2000F06EFD402000F06BFD2220B1
:100DB00000F068FD182000F065FDFFF76CFC10BD29
:100DC000000801402DE9F05F06460F4690461C469C
:100DD000DDF828A04FF0000BE11704EB5171C910AA
:100DE000A4EBC10131B92046E11704EB5171C1F305
:100DF000C70506E02046E11704EB5171C910491CF4
:100E0000CDB23D4614E02946304600F0FDFCB14627
:100E10000AE059460BF1010B1AF8010000F06CFDD5
:100E200009F1010000F0FF09C145F2DB681CC5B201
:100E3000A542E8DBBDE8F09F08B50121042000F0E1
:100E40008DFA0121082000F089FA0121102000F01C
:100E500085FA0720ADF8000010208DF8030003206C
:100E60008DF8020069461448FFF7D2FEC020ADF8A5
:100E7000000010208DF8030003208DF80200694661
:100E80000E48FFF7C5FE4FF40060ADF800001020DB
:100E90008DF8030003208DF8020069460848FFF72B
:100EA000B7FE4FF400610648FFF748FF02210248F1
:100EB000FFF744FF08BD000000080140000C01409E
:100EC000001001402DE9F04707460D4690460026E8
:100ED0000024A14634E018F809002038C6B27F2F5C
:100EE00002DD0027681CC5B26806010E384600F016
:100EF00077FC002407E004EB0611144A505C00F074
:100F0000FBFC601CC4B2082CF5DB012000EB4500A3
:100F1000C1B2384600F064FC002408E004EB06117E
:100F200008310A4A505C00F0E7FC601CC4B2082C8F
:100F3000F4DB07F10800C7B209F1010000F0FF0976
:100F400018F809000028C6D1BDE8F087363F000830
:100F50002DE9F04105460E461746002417E0285DAE
:100F6000802808DA285D3A46314600F09FFE06F1F7
:100F70000800C6B209E028193A46314600F0E8FEFA
:100F800006F11000C6B2601CC4B2601CC4B2285D79
:100F90000028E4DCBDE8F08138B5044614B1012C2A
:100FA00012D108E00A48022348220021009038208C
:100FB000FFF708FF09E007480223482200210090BC
:100FC0003820FFF7FFFE00E000BF00BF38BD000083
:100FD000920D0020B20D002000BFFEE77047000018
:100FE0002DE9F04106460027002410212948FFF78B
:100FF000A3FE0021E12001F0EBFC10212648FFF7C1
:101000009BFE20223146A02000F050FB10212248F8
:10101000FFF794FE10211F48FFF790FE0DE0641CBF
:101020000220FFF727FC642C07DD4FF4FA60FFF77E
:1010300021FC4FF0FF30BDE8F08120211548FFF77B
:1010400072FE0128EBD014E0072001F09DFC05465C
:101050002946272001F0BCFC0A20FFF70BFC641C8A
:10106000142C06DD4FF4FA60FFF704FC4FF0FF305C
:10107000E1E720210748FFF756FE0028E4D005F0FD
:10108000200000B1002705F0100008B14FF0FF3735
:101090003846D0E7001001400008014070B5044612
:1010A00010211E48FFF748FE0021E12001F090FCCE
:1010B00005222146302000F0F9FA052221462A2097
:1010C00000F0F4FA0121212001F082FC012122200C
:1010D00001F07EFCFF21242001F07AFC282125204C
:1010E00001F076FC0721262001F072FC202131203E
:1010F00001F06EFC0E21202001F06AFC102107484F
:10110000FFF71CFE072001F03FFC0546294627207B
:1011100001F05EFC0A20FFF7ADFB70BD001001403E
:1011200010B500214FF0006000F010F84FF4A060FF
:1011300000F002F810BD000002490143024A1160AC
:10114000704700000000FA050CED00E0024A0A407A
:101150000243024B1A60704780FFFF1F08ED00E05A
:1011600070B504460D4605F1B001C8B2002100F08B
:1011700099F8102141EA1410002100F093F804F0CE
:101180000F0141F00100002100F08CF870BD00005B
:101190002DE9F04180460E4615460027314640466F
:1011A000FFF7DEFF00240AE0124A02EB8511085D1A
:1011B000012100F077F8781CC7B2601CC4B2102C73
:1011C000F2DB701CC1B24046FFF7CAFF00240CE0FE
:1011D0006900491C074A02EB4111085D012100F03A
:1011E00061F8781CC7B2601CC4B2102CF0DBBDE8FB
:1011F000F0810000D00100202DE9F04106460F46A5
:10120000904600250024A8F12000C5B27F2E04DD01
:10121000A6F18000C6B2B81CC7B239463046FFF707
:101220009FFF002408E004EB05110F4A505C0121E8
:1012300000F038F8601CC4B2082CF4DB781CC1B292
:101240003046FFF78DFF002409E004EB051108315B
:10125000054A505C012100F025F8601CC4B2082C3E
:10126000F3DBBDE8F08100004C2C00082DE9F041D3
:1012700004460F46154600260EE0AA5D3946204674
:10128000FFF7BAFF04F10800C4B2782C02DD002495
:10129000B81CC7B2701CC6B2A85D0028EDD1BDE86D
:1012A000F081000070B504460E4626B101211848B1
:1012B000FFF744FD03E001211548FFF73DFD402104
:1012C0001448FFF739FD002517E008211048FFF703
:1012D00033FD04F0800020B104210D48FFF72EFDFE
:1012E00003E004210A48FFF727FD08210848FFF71B
:1012F00025FD6006040E681CC5B2082DE5DB402103
:101300000448FFF71BFD01210148FFF717FD70BDE1
:1013100000080140000C01407047000029B1064A56
:1013200052690243044B5A6104E0034A5269824302
:10133000014B5A61704700000010024029B1064A73
:1013400012690243044B1A6104E0034A12698243A2
:10135000014B1A61704700000010024029B1064A93
:1013600092690243044B9A6104E0034A9269824302
:10137000014B9A61704700000010024029B1064AF3
:10138000D2680243044BDA6004E0034AD268824325
:10139000014BDA60704700000010024070B500F0A9
:1013A00065F84FF4803000F0B9F800BF312000F04C
:1013B00083F80028FAD01020FFF7D0FA0220FFF7B8
:1013C000FBFA002000F09EF8002000F0DFF84FF458
:1013D000806000F0CFF84FF4E0114FF4803000F05F
:1013E000E7F8012000F0DEF800BF392000F064F8D3
:1013F0000028FAD0022000F0E9F800BF00F07AF8E7
:101400000828FBD1012141F21D00FFF7A7FF144876
:1014100000684FF47A72B0FBF2F1B1F1807F00D333
:101420001DE021F07F40401E4FF0E0225061501738
:101430000F22002807DA13071D0E0A4B00F00F04D5
:10144000241F1D5503E013071C0E074B1C5400BF3F
:1014500000204FF0E02290610720106100BF70BDB6
:101460008001002018ED00E000E400E00F48006873
:1014700040F001000D490860084640680C490840EA
:101480000A494860084600680A4908400749086058
:101490000846006820F4802008600846406820F470
:1014A000FE0048604FF41F00886070470010024043
:1014B0000000FFF8FFFFF6FE10B5014600220023F2
:1014C00000204A11012A02D1094C236806E0022AB1
:1014D00002D1074C236A01E0054C636A01F01F0248
:1014E000012494401C400CB1012000E0002010BDFC
:1014F000001002400248406800F00C0070470000F5
:101500000010024001460020034A506820F0F0001D
:1015100008435060704700000010024011490968FC
:1015200021F480310F4A11601146096821F48021AD
:101530001160B0F5803F03D0B0F5802F0ED106E0EA
:101540000849096841F48031064A116007E00549FD
:10155000096841F4A021034A116000E000BF00BF08
:101560007047000000100240014908607047000009
:101570000000424201460020034A506820F4E06027
:1015800008435060704700000010024001460020F0
:10159000034A506820F4605040EAC1005060704730
:1015A00000100240014908667047000000004242F6
:1015B00002460020044B586820F47C1042EA0103E4
:1015C0001843014B5860704700100240014600204C
:1015D000034A506820F00300084350607047000041
:1015E0000010024021B1028842F04002028004E073
:1015F00002884FF6BF731A400280704710B5044648
:101600001148844208D101218014FFF7B7FE002160
:10161000A014FFF7B3FE16E00C48844208D1012164
:101620000014FFF78BFE00212014FFF787FE0AE06D
:101630000748844207D10121C013FFF77FFE002134
:10164000E013FFF77BFE10BD003001400038004082
:10165000003C00400246002013890B400BB10120E2
:1016600000E00020704701468889704781817047FB
:1016700010B50022028802F441520B884C882343A3
:101680008C882343CC8823430C8923434C892343F0
:101690008C892343CC8923431A430280838B4FF2E6
:1016A000FF74234083830B8A038210BD70B5054607
:1016B0000C46164610210D48FFF73EFB29460C4804
:1016C000FFF7D4FF01F0A0F906E014F8011B084869
:1016D000FFF7CCFF01F098F93000A6F10101CEB27E
:1016E000F3D110210148FFF729FB70BD000801402C
:1016F00000300140704710B500F002F810BD000046
:101700000CB50020019000903348006840F4803010
:101710003149086000BF3048006800F40030009094
:101720000198401C0190009818B90198B0F5A06F7D
:10173000F1D12948006800F4003010B10120009078
:1017400001E0002000900098012843D12348006860
:1017500040F01000214908600846006820F00300AE
:1017600008600846006840F0020008601A484068B7
:10177000194948600846406848600846406840F497
:10178000806048600846406820F47C104860084645
:10179000406840F4E81048600846006840F08070F7
:1017A000086000BF0C48006800F000700028F9D005
:1017B0000948406820F0030007494860084640682F
:1017C00040F00200486000BF0348406800F00C0091
:1017D0000828F9D10CBD0000001002400020024092
:1017E00070B504460D4604F00F06102000EB2414DB
:1017F00005F1B001C8B200F045F8204600F042F80B
:10180000304600F03FF870BD70B504460D46201D0F
:10181000C4B204F00F06102000EB241405F1B0014F
:10182000C8B200F02FF8204600F02CF8304600F047
:1018300029F870BD08B501210420FFF78FFD0121B3
:101840000820FFF78BFD0720ADF8000010208DF871
:10185000030003208DF8020069460848FFF7D8F915
:10186000C020ADF8000010208DF8030003208DF893
:10187000020069460248FFF7CBF908BD00080140A5
:10188000000C014070B5044601211948FFF754FAD5
:1018900004211748FFF750FA40211648FFF74CFA89
:1018A000002619E0254640211248FFF745FA04F0CA
:1018B0008000802804D180210E48FFF73FFA03E022
:1018C00080210C48FFF738FA40210A48FFF736FA22
:1018D0006806040E701CC6B2082EE3DB0121044822
:1018E000FFF72CFA04210248FFF728FA70BD000028
:1018F00000080140000C014070B504460121194860
:10190000FFF71AFA04211748FFF718FA4021164882
:10191000FFF712FA002619E0254640211248FFF78A
:101920000BFA04F08000802804D180210E48FFF7D4
:1019300005FA03E080210C48FFF7FEF940210A4830
:10194000FFF7FCF96806040E701CC6B2082EE3DB34
:1019500001210448FFF7F2F904210248FFF7ECF9EE
:1019600070BD000000080140000C014010B50648A1
:101970000068401C0449086004480068401C034992
:10198000086000F0B5FB10BD280000202C000020EE
:1019900010B51348006840F001001149086008467E
:1019A0004068104908400E494860084600680E49E2
:1019B00008400B4908600846006820F48020086051
:1019C0000846406820F4FE0048604FF41F0088601D
:1019D000FFF791FE4FF000600449086010BD000061
:1019E000001002400000FFF8FFFFF6FE08ED00E0E7
:1019F00000BFFEE700B591B001210846FFF78EFC5D
:101A000001214802FFF7AAFC0120ADF800000020E8
:101A10008DF8030069463348FFF7FAF83248FEF7BD
:101A200063FE32480190324802900020039010205B
:101A300004900020059080200690400007908000D0
:101A400008902020099000020A9000200B9001A924
:101A50002548FEF7EFFE01212348FEF738FE00205F
:101A60000C908DF8340001208DF835004FF4602083
:101A70000E9000200F9001208DF840000CA91B480B
:101A80004C38FEF76DFD07230122082117484C381A
:101A9000FEF78EFD012115484C38FEF741FD01216E
:101AA00012484C38FEF731FD10484C38FEF7DCFD8B
:101AB00000BF0E484C38FEF748FD0028F9D10B480E
:101AC0004C38FEF7E1FD00BF08484C38FEF733FD07
:101AD0000028F9D1012105484C38FEF7CAFD11B0A4
:101AE00000BD0000000C0140080002404C240140F1
:101AF000D40D002010B5044611E04FF480610A486F
:101B0000FFF71CF940F6FF0000F0B6F84FF48061D3
:101B10000548FFF711F940F6FF0000F0ADF820008E
:101B2000A4F10104E9D110BD001001402DE9F047F6
:101B300004468A46914600270025A84600BF605DFE
:101B40000D2802D008F1010831E0B8F1000F09D0EA
:101B5000B8F1010F08D0B8F1020F08D0B8F1030FA7
:101B60001CD10DE000261AE0681E265C17E0681EF6
:101B7000215CA81E205C00EB800001EB40060EE01B
:101B8000E81E205C64214843A91E615C01EB8101D1
:101B900000EB4101681E205C0E1800E000BF00BF92
:101BA000FF2E01DC09F807607F1C4FF00008B8F138
:101BB000030F03DC052F01DCFF2E17DD00210520BC
:101BC00000F044FC4FF4FA60FEF754FE022000F0EF
:101BD0004DFB032000F04AFB042000F047FB0520EA
:101BE00000F044FB6FF00100BDE8F0876D1C5FEA78
:101BF0000A00AAF1010AA2D100BF00BFF4E7000069
:101C000008B54FF4F850ADF8000048208DF80300F7
:101C100069461648FEF7FCFF4FF47840ADF8000027
:101C200048208DF8030069461148FEF7F1FF4FF494
:101C30007070ADF8000048208DF8030069460D482B
:101C4000FEF7E6FF4FF48060ADF8000010208DF83D
:101C5000030003208DF8020069460648FEF7D8FF0E
:101C60004FF480610348FFF767F808BD00080140A2
:101C7000000C01400010014000BF0100A0F1010074
:101C8000FBD17047014605E0002001E0421CD0B2C4
:101C90001428FBDD0A00A1F1010399B2F4D17047C9
:101CA0000020014908607047C00100202DE9F05F65
:101CB0000646894690464FF00C0B002508E005EBE0
:101CC00005102249085CB04200D103E0681CC5B28F
:101CD0005D45F4DB00BF5D4536DA2D2E01D03A2E8E
:101CE00001D1062704E07C2E01D1082700E0082757
:101CF00041464846FFF788FD00240BE005EB051040
:101D000012490844401C10F804A05046FFF7F4FDA7
:101D1000601CC4B2BC42F1DB08F10100C1B248460C
:101D2000FFF772FD00240DE005EB0510074908449C
:101D3000401C04F1080110F801A05046FFF7DCFD3B
:101D4000601CC4B2BC42EFDBBDE8F09F3C3200082F
:101D50002DE9F047064688461746002512E0307800
:101D600005EB0511204A12F81110884208D170784D
:101D700005EB051102EB41014978884200D103E0EF
:101D8000681CC5B22F2DEAD300BF39464046FFF785
:101D90003BFD00240CE005EB0510134901EB40006E
:101DA000801C10F804904846FFF7A6FD601CC4B2E2
:101DB000102CF0DB781CC1B24046FFF725FD002453
:101DC0000EE005EB0510084901EB4000801C04F112
:101DD000100110F801904846FFF78EFD601CC4B258
:101DE000102CEEDBBDE8F0870833000870B5044620
:101DF0000D46002C00DA70BD2878002848D00C2C45
:101E000046D1012000F0E8FB052000F0E5FB724818
:101E1000006801281DD100F029FA022000F026FAFE
:101E2000032000F023FA042000F020FA6BA2002126
:101E30000520FFF747F86AA1002000F02FFA0020E4
:101E400065490860674908600A21062000F030FAF9
:101E50001AE061480068B8B9012000F007FA0220D2
:101E600000F004FA032000F001FA042000F0FEF96B
:101E70005AA200210520FFF725F85BA1002000F001
:101E80000DFA0120544908604FF0FF306860B2E756
:101E90002878012848D150480068012845D1092CEC
:101EA00002DD801E6860A6E70E2C3CD2DFE804F05D
:101EB000070C11161B20252A2F333738393AE1B287
:101EC000022000F0F5F92FE0E1B2032000F0F0F974
:101ED0002AE0E1B2042000F0EBF925E0E1B20520B0
:101EE00000F0E6F920E0E1B2072000F0E1F91BE0A4
:101EF000E1B2082000F0DCF916E0E1B2092000F0C0
:101F0000D7F911E0E1B20A2000F0D2F90CE001208B
:101F100000F0ACF908E0012000F0A8F904E000BFEF
:101F200000BF00BF00E000BF54E02B48006800285D
:101F300050D1012000F09AF9022000F097F9032017
:101F400000F094F9042000F091F900202549086080
:101F50000A21062000F0ACF937E00C2C18D1012042
:101F600000F084F9022000F081F9032000F07EF9EE
:101F7000042000F07BF91CA1002000F08FF9012063
:101F800015490860801E686000201649086032E725
:101F9000601CB8B10A2C08DA1248006800EB800017
:101FA00004EB40000F49086008E00B2C06D10D48F7
:101FB00000680A21B0FBF1F00A490860E1B206208E
:101FC00000F076F900F084F804460A2CC5D10548E3
:101FD0000068686000BF0EE70800002020000000D5
:101FE0004E000000200000204600000001200149B2
:101FF00008607047C001002010B50246002002E0D2
:1020000013785840521C0B00A1F10101F8D110BD0A
:1020100070B505464FF0FF3600F05AF80446601CD4
:1020200000284FD00C2C01D1304670BD0A2C2AD18B
:1020300025480068002810DD0D202449224A126836
:10204000885421480068401C1F4908602A460846F9
:1020500001681E48FFF76AFD064600201A4908601D
:1020600009E000201949184A126888541648006887
:10207000401C15490860144800681428F1DB002052
:10208000114908601AE00B2C0BD10F48006800289A
:1020900003DD0D480068401E00E000200A4908608A
:1020A0000CE009480068132808DA0848064A126854
:1020B000845405480068401C03490860E1B20620CA
:1020C00000F0C4F93046B0E7CC010020F40D002048
:1020D0004FF0FF300449096821B104490868002124
:1020E000014A116070470000C4010020C8010020AF
:1020F00010B500245DE004EB44022F4B03EBC20259
:10210000918804EB440253F83200FEF70CFED8BB72
:1021100004EB4402284B03EBC202918804EB440217
:1021200053F83200FEF7FFFD012004EB4401224A80
:1021300002EBC101C86004EB4400114601EBC00092
:102140008068401C04EB440102EBC101886004EB91
:102150004400114601EBC0008068322828D904EB06
:10216000440001EBC000006910B304EB440102EB32
:10217000C101087D00F05AFB002004EB44010E4A27
:1021800002EBC101086113E0FFE7002004EB44010A
:10219000094A02EBC1018860012004EB440102EB13
:1021A000C1010861002004EB440102EBC101C860D9
:1021B000641C0E2C9FDB10BD3000002070B506465D
:1021C0000C460D480068012802D10220207001E071
:1021D0000120207002206070300AA070E670042197
:1021E0002046FFF709FF2071052502E00020605519
:1021F0006D1C202DFADB70BD080000202DE9F04198
:1022000007460D46904600260024A8F12000C6B2DD
:102210007F2F04DDA7F18000C7B2A81CC5B2681CDF
:10222000C1B23846FFF7F0FA002407E004EB0611CC
:102230000D4A505CFFF760FB601CC4B2082CF5DB54
:10224000681CC1B23846FFF7DFFA002407E004EB50
:102250000611054A505CFFF74FFB601CC4B2082C06
:10226000F5DBBDE8F08100004C2C000870B5044699
:102270001025002C01DB062C00DD70BD05E0E1B26D
:10228000EA06100E04A2FEF71DFE2800A5F10105C6
:10229000F5D100BFF1E700002000000070B5044652
:1022A0000D462A4621460520FEF70CFE70BD0000B3
:1022B00070B505460C46062D02D00120FFF7D6FF6B
:1022C0000B2D6ED2DFE805F087060C12181E3C2499
:1022D0002A3036000222002141A0FEF739FE7BE0C1
:1022E0000222002142A0FEF733FE75E00222002107
:1022F00041A0FEF72DFE6FE00222002140A0FEF774
:1023000027FE69E0022200213FA0FEF721FE63E0E4
:10231000022200213FA0FEF71BFE5DE00222002109
:102320003FA0FEF715FE57E0022200213FA0FEF776
:102330000FFE51E0022200213FA0FEF709FE4BE014
:102340000A2C0BD100204049087008460078C006CE
:10235000010E02225F20FFF7A9FC3BE00B2C1BD1F2
:1023600039480078C006010E02222020FFF79EFCAB
:1023700035480078002803DD33480078401E00E02F
:1023800000203149087008460078C006010E02227C
:102390005F20FFF78BFC1DE00C2C01D00D2C01D130
:1023A00070BD18E004F13000C4B227480078C006C0
:1023B000010E02222046FFF779FC23480078401CDA
:1023C0002149087008460078C006010E02225F20ED
:1023D000FFF76CFC00E000BF00BF00BFE0E70000BB
:1023E000CAE4C8EBD0C5BAC5BBFAB5D8D6B70000A9
:1023F000B9D8B5C600000000C8ABBAEC00000000B8
:10240000BBC6C9C100000000B6ABCEF7D6B1D0D074
:1024100000000000C4CFB1B1D6B1D0D000000000A0
:10242000B6ABCEF7D7F3D7AA00000000C4CFB1B146
:10243000D7F3D7AA00000000CAD6B6AFBFD8D6C619
:10244000C8A1CFFB00000000D20D002070B50546EA
:102450000C46062D05D00220FFF708FF0520FFF7E8
:1024600005FF082D6ED2DFE805F06D040A10161C7A
:1024700028220522002135A0FEF76AFD63E005222F
:10248000002135A0FEF764FD5DE00522002135A0A6
:10249000FEF75EFD57E00522002135A0FEF758FD4E
:1024A00051E00522002135A0FEF752FD4BE0052248
:1024B000002136A0FEF74CFD45E00A2C03D1002098
:1024C000354908703DE00B2C1BD133480078C0061D
:1024D000010E04222020FFF7E9FB2F480078002896
:1024E00003DD2D480078401E00E000202A490870D6
:1024F00008460078C006010E04225F20FFF7D6FBD5
:102500001FE00D2C01D13A2001E004F13000C4B2EB
:1025100021480078132814DA1F480078C006010EFD
:1025200004222046FFF7C2FB1B480078401C1A49D2
:10253000087008460078C006010E04225F20FFF7ED
:10254000B5FB00E000BF00BF70BD0000C1ACBDD353
:10255000B2BBB3C9B9A60000C1ACBDD3B3C9B9A65B
:1025600000000000B7A2CBCDCAA7B0DC000000007D
:10257000B7A2CBCDB3C9B9A600000000B5D8D6B775
:10258000B8F1CABDB4EDCEF300000000D5FDD4DA39
:10259000B7A2CBCD00000000D30D0020FEF7FEFE59
:1025A000FEF7BEFD00F088F9FFF72AFBFEF744FCBA
:1025B000FFF720FAFEF7C6FB0BE0FFF789FD0446A4
:1025C0000448446001462046FFF710FC014881683A
:1025D0008847F2E71400002070B504461025002C4F
:1025E00001DB062C00DD70BD05E0E1B2EA06100E4D
:1025F00004A2FEF73BFE2800A5F10105F5D100BFBE
:10260000F1E700002000000070B505460C46062DDD
:1026100002D00120FFF7E0FF0B2D7BD2DFE805F0B1
:102620007A062F3A4550C4657B90A5000622012109
:102630000020FEF7ADFD072201211020FEF7A8FDC6
:10264000082201212020FEF7A3FD092201213020CC
:10265000FEF79EFD0A2201214020FEF799FD0B2284
:1026600001215020FEF794FD0C2201216020FEF78D
:102670008FFD0D2201217020FEF78AFDD1E01C2282
:1026800001210020FEF784FD1D2201211020FEF70C
:102690007FFDC6E0182201210020FEF779FD1922F6
:1026A00001211020FEF774FDBBE01A220121002059
:1026B000FEF76EFD1B2201211020FEF769FDB0E040
:1026C0001E2201210020FEF763FD1F2201211020A0
:1026D000FEF75EFD222201212020FEF759FD232274
:1026E00001213020FEF754FD9BE020220121002033
:1026F000FEF74EFD212201211020FEF749FD222286
:1027000001212020FEF744FD232201213020FEF785
:102710003FFD86E084E01E2201210020FEF738FD07
:102720001F2201211020FEF733FD24220121202049
:10273000FEF72EFD252201213020FEF729FD70E055
:10274000202201210020FEF723FD2122012110205B
:10275000FEF71EFD242201212020FEF719FD25226F
:1027600001213020FEF714FD5BE02822012100202A
:10277000FEF70EFD292201211020FEF709FD2A2275
:1027800001212020FEF704FD2B2201213020FEF73D
:10279000FFFC2C2201214020FEF7FAFC2D22012112
:1027A0005020FEF7F5FC3CE00A2C03D100201E4926
:1027B000087034E00B2C18D11B490978C80020227E
:1027C0000121FFF71BFD18480078002803DD16489B
:1027D0000078401E00E00020134908700978C80006
:1027E00020220121FFF70AFD19E00C2C01D00D2C4D
:1027F00000D170BD04F13000C4B20B490978C800A3
:1028000020220121FFF7FAFC07480078401C064906
:1028100008700978C80020220121FFF7EFFC00E0D2
:1028200000BF00BF00BFE4E7900D002010B50446D4
:102830000548006838B10548046001200449086073
:102840006420FFF757F910BDC0010020C801002027
:10285000C401002010B50346002109E0064C34F8FD
:102860001120FF2A02DD4FF0FF3010BD5A54491CE1
:102870000529F3D30020F8E70080000870B505466D
:1028800000240120FEF770FEFEF7A2F83420FEF7C8
:1028900015F80848FEF718F806E0295D054A02EB2E
:1028A0004400FEF769F8641C052CF6D3FEF74CF8DB
:1028B00070BD00000080000800B587B042202E499E
:1028C000C877E020ADF8180018208DF81B00032011
:1028D0008DF81A0006A92948FEF79AF91020ADF8DC
:1028E00018008DF81B0003208DF81A0006A9244853
:1028F000FEF78EF91020ADF818008DF81B000320AC
:102900008DF81A0006A91D48FEF782F910211B4810
:10291000FEF714FA2020ADF8180048208DF81B00AF
:1029200006A91748FEF774F90020ADF804004FF42B
:102930008270ADF806000020ADF80800ADF80A007E
:10294000ADF80C004FF40070ADF80E003820ADF873
:1029500010000020ADF812000720ADF8140009485F
:10296000FEF74CFE01A90748FEF782FE012105484B
:10297000FEF738FE07B000BD9E01002000080140B0
:10298000001001400030014010B5044610210E48EF
:10299000FEF7D2F921460D48FEF768FE00F034F844
:1029A00000210A48FEF762FE00BF01210748FEF73A
:1029B00051FE0028F9D010210348FEF7BFF9034863
:1029C000FEF751FEC0B210BD0008014000300140CA
:1029D00070B504460D4610210948FEF7ADF92146B1
:1029E0000848FEF743FE00F00FF829460548FEF7B9
:1029F0003DFE00F009F810210148FEF79FF970BD77
:102A0000000801400030014010B500BF0221044819
:102A1000FEF720FE0028F9D00320FDF72BFF10BDA4
:102A2000003001400000000000000000002F000006
:102A300000000700070000147F147F1400242A7F81
:102A40002A12006264081323003649552250000000
:102A50000503000000001C224100000041221C0070
:102A60000014083E08140008083E0808000000A0F2
:102A700060000008080808080000606000000020EE
:102A800010080402003E5149453E0000427F4000CC
:102A9000004261514946002141454B310018141252
:102AA0007F10002745454539003C4A49493000011F
:102AB0007109050300364949493600064949291E6E
:102AC00000003636000000005636000000081422D0
:102AD00041000014141414140000412214080002D0
:102AE0000151090600324959513E007C1211127CF5
:102AF000007F49494936003E41414122007F414122
:102B0000221C007F49494941007F09090901003E13
:102B10004149497A007F0808087F0000417F410051
:102B2000002040413F01007F08142241007F4040C7
:102B30004040007F020C027F007F0408107F003EAF
:102B40004141413E007F09090906003E4151215E95
:102B5000007F091929460046494949310001017F92
:102B60000101003F4040403F001F2040201F003F28
:102B70004038403F006314081463000708700807DA
:102B800000615149454300007F41410000552A55ED
:102B90002A55000041417F00000402010204004068
:102BA000404040400000010204000020545454788A
:102BB000007F4844443800384444442000384444AA
:102BC000487F00385454541800087E090102001848
:102BD000A4A4A47C007F080404780000447D400085
:102BE000004080847D00007F102844000000417F69
:102BF0004000007C04180478007C08040478003845
:102C00004444443800FC242424180018242418FCCC
:102C1000007C0804040800485454542000043F4435
:102C20004020003C4040207C001C2040201C003CF8
:102C30004030403C004428102844001CA0A0A07C48
:102C4000004464544C441414141414140000000080
:102C5000000000000000000000000000000000F87C
:102C600000000000000000333000000000100C06DF
:102C7000100C0600000000000000000040C078407A
:102C8000C0784000043F04043F040400007088FC46
:102C900008300000001820FF211E0000F008F0009E
:102CA000E018000000211C031E211E0000F008880F
:102CB000700000001E2123241927211010160E0079
:102CC000000000000000000000000000000000E024
:102CD0001804020000000007182040000002041839
:102CE000E00000000040201807000000404080F095
:102CF000804040000202010F01020200000000F0CB
:102D0000000000000101011F01010100000000009E
:102D10000000000080B07000000000000000000013
:102D2000000000000001010101010101000000009C
:102D30000000000000303000000000000000000033
:102D400080601804006018060100000000E0100810
:102D50000810E000000F102020100F00001010F8E5
:102D6000000000000020203F202000000070080824
:102D700008887000003028242221300000300888A4
:102D8000884830000018202020110E000000C020CC
:102D900010F8000000070424243F240000F80888ED
:102DA000880808000019212020110E0000E010887A
:102DB00088180000000F112020110E0000380808AC
:102DC000C83808000000003F0000000000708808BC
:102DD00008887000001C222121221C0000E010083D
:102DE0000810E0000000312222110F00000000C096
:102DF000C000000000000030300000000000008033
:102E00000000000000008060000000000000804022
:102E1000201008000001020408102000404040403B
:102E2000404040000404040404040400000810208E
:102E300040800000002010080402010000704808D3
:102E40000808F0000000003036010000C030C8283B
:102E5000E810E0000718272423140B000000C038F6
:102E6000E0000000203C23020227382008F8888870
:102E700088700000203F202020110E00C03008087C
:102E800008083800071820202010080008F8080853
:102E90000810E000203F202020100F0008F888884C
:102EA000E8081000203F20202320180008F8888818
:102EB000E8081000203F200003000000C030080890
:102EC0000838000007182020221E020008F8080019
:102ED0000008F808203F210101213F20000808F8E0
:102EE000080800000020203F202000000000080803
:102EF000F8080800C08080807F00000008F888C0C3
:102F000028180800203F20012638200008F8080073
:102F100000000000203F20202020300008F8F800AA
:102F2000F8F80800203F003F003F200008F830C0BC
:102F30000008F808203F200007183F00E0100808AC
:102F40000810E0000F10202020100F0008F80808DB
:102F50000808F000203F210101010000E0100808EE
:102F60000810E0000F18242438504F0008F8888813
:102F700088887000203F2000030C302000708808F3
:102F8000080838000038202121221C00180808F801
:102F9000080818000000203F2000000008F8080082
:102FA0000008F808001F202020201F000878880053
:102FB00000C83808000007380E010000F80800F8C3
:102FC0000008F800033C0700073C0300081868806D
:102FD0008068180820302C03032C30200838C800E3
:102FE000C83808000000203F200000001008080832
:102FF000C83808002038262120201800000000FED4
:10300000020202000000007F40404000000C30C07F
:1030100000000000000000010638C00000020202AB
:10302000FE000000004040407F000000000004025D
:103030000202040000000000000000000000000088
:103040000000000080808080808080800002020478
:103050000000000000000000000000000000808070
:10306000808000000019242222223F2008F80080DE
:1030700080000000003F112020110E0000000080A1
:1030800080800000000E1120202011000000008030
:103090008088F800000E112020103F200000808062
:1030A00080800000001F222222221300008080F076
:1030B000888888180020203F2020000000008080A1
:1030C00080808000006B94949493600008F80080E6
:1030D00080800000203F210000203F200080989841
:1030E000000000000020203F2020000000000080A1
:1030F0009898000000C08080807F000008F80000E1
:1031000080808000203F24022D302000000808F835
:10311000000000000020203F2020000080808080F0
:1031200080808000203F20003F20003F8080008082
:1031300080800000203F210000203F200000808090
:1031400080800000001F202020201F008080008041
:103150008000000080FFA12020110E0000000080F0
:1031600080808000000E112020A0FF8080808000E1
:103170008080800020203F2120000100000080800E
:10318000808080000033242424241900008080E003
:10319000808000000000001F2020000080800000D0
:1031A00000808000001F202020103F2080808000B1
:1031B0000080808000010E300806010080800080C1
:1031C000008080800F300C030C300F0000808000E6
:1031D000808080000020312E0E3120008080800011
:1031E0000080808080818E701806010000808080C1
:1031F000808080000021302C22213000000000005F
:10320000807C020200000000003F404000000000FF
:10321000FF00000000000000FF0000000002027C30
:10322000800000000040403F000000000006010157
:103230000202040400000000000000003100000849
:1032400008FC000000000004040704040032000031
:103250000804844438000000060504040400330018
:103260000008044444B800000002040404030034CD
:103270000000806018FC0000000001010507050047
:103280003500007C4444448400000002040404032C
:1032900000360000F04844448000000003040404A9
:1032A00003003700000C0484641C000000000601C9
:1032B000000000380000B8444444B8000000030493
:1032C0000404030039000038444444F800000000BE
:1032D0000404020100300000F8040404F8000000B7
:1032E0000304040403005F000000000000000080ED
:1032F000808080808080803A000000C0C000000094
:103300000000003030000000CAC70000007F4949BB
:1033100049494949497F000000008141211D21415F
:1033200081FF8989898989818100B7F100028282C0
:10333000422212FA0622224242820000010100FCCF
:1033400044444445444444FC00000100C1AC4040B6
:1033500042CC000444645C47F4444444040000400C
:10336000201F2044444444447F4444444400BDD38B
:10337000101010FF1050445465C64464544440007B
:103380000444827F0182824A562322524E820200E6
:10339000B3C90000F8888888880808FF08090AC8A7
:1033A000080080601F0010201F8040211618264151
:1033B000F800B9A6080808F80808081010FF10104F
:1033C00010F000001030101F088848300E014080B7
:1033D000403F0000B2BB00020202028242F20E42F3
:1033E00082020202000010080402010000FF000037
:1033F0000001020C0000B7A20000181610D0B89708
:1034000090909092941000000020108C8380414690
:103410002810284443808000CBCD404042CC008817
:10342000898E88F8888C8B8880000040201F20407F
:1034300050484641424458404000CAA70040301E10
:10344000101010FF101010101000000000000000FD
:103450000000000000000000000000008181412108
:10346000110D0301030D11214181810000000000B5
:103470000000000000000000000000000000B0DCC0
:1034800000FE02FA02FE4020D8171010F0101000C3
:103490008047300F106780402116081621408000B9
:1034A000D5FD000202C2020202FE828282828202F4
:1034B00000004040407F4040407F4040404040400E
:1034C0004000D4DA080888C8380C0B0808E8080857
:1034D00008080800020100FF40414141417F41418D
:1034E00041414000C8AB80804020504844C344481C
:1034F000502040808000004040444444447F444485
:10350000444440400000BAEC2030AC632018000472
:103510000404FC040404000022672212121240403A
:1035200040407F4040404000BBC6101012D2525F66
:1035300052F2525F52D2121010000000009F52321D
:10354000121F1232529F00000000C9C100F8010290
:10355000000202F20202020202FE000000FF00006E
:103560000804030001020C40807F0000B9D800006D
:103570001011161010F010101413100000008181AB
:10358000414121110D030D11214141818100B5C639
:10359000807000FF201004040404FC0404040400F0
:1035A000806018070830000040807F0000000000A5
:1035B000B6AB0008884828180FE80808080808086B
:1035C0000000002011090541817F0101050911203A
:1035D0000000CEF70202E22222FE222222FE222256
:1035E000E20202000000FF4844434040404344449C
:1035F000FF000000C4CF04E4242464A4243F24A4D6
:10360000642424E4040000FF00080909097F090973
:103610000948807F0000B1B10020202020FF000079
:1036200000FF4020100800002060201010FF000064
:10363000003F404040407800D6B1000404F4949428
:10364000949F949494F4040400004040407F4A4ABC
:103650004A4A4A4A4A7F40404000D0D0001088C4BD
:10366000330040424242C24242424000020100FF57
:103670000000000040807F0000000000D7F3080831
:10368000080888780F0808080808080808002010AB
:103690004846414141417F41414141404000D7AA14
:1036A000C8B88FE88888404848E85F4848484000E4
:1036B000081808FF040400020B1222D20A060000B8
:1036C000D5FD000202C2020202FE828282828202D2
:1036D00000004040407F4040407F404040404040EC
:1036E0004000D4DA080888C8380C0B0808E8080835
:1036F00008080800020100FF40414141417F41416B
:1037000041414000CAD600002424242424FC222263
:10371000222322000000020202020242827F0202F1
:10372000020202020200B6AF4044C44444444010C6
:1037300010FF101010F00000103C131014B84030AF
:103740000E014080403F0000BFD8101010FF9020B5
:10375000984828090E2848A818000242817F004096
:10376000404242427E4242424000D6C640504E480D
:1037700048FF48484840F80000FF000000003E02B3
:1037800002FF12221E000F40807F0000C8A102022B
:10379000FE929292FE0206FC040404FC000008184B
:1037A0000F080804FF048440271827408000CFFB3F
:1037B0001060020CC000E22C203F2028E600000030
:1037C00004047C030000FF09090949897F00000007
:1037D000CAE488681FC80810C85452D1129408D08F
:1037E0001000091909FF0500FF1292FF005F807F9A
:1037F0000000C8EB000000000001E21CE000000037
:1038000000000000804020100C03000000030C307A
:1038100040808000D0C5008060F807000424242583
:10382000262424240400010000FF000000F9494977
:10383000494949F90000BAC5808080BEA2A2A2A26F
:10384000A2A2A2BE8080800000000006050404043D
:103850004484443C00000000BBFA1010D0FF9010DC
:1038600000FE020202FE00000000040300FF0083CD
:10387000601F0000003F40407800B5D8202020FFA6
:10388000202080F88040FF2010F000001030100F42
:103890000808003F40405F4244437800D6B72020EC
:1038A00020FF202000F80000FF40404000001030C2
:1038B000100F0848407F40407F4040404000B8F132
:1038C0001010D0FF90201018A744A4140C00000082
:1038D000040300FF000502FD44444445FD020200CC
:1038E000CABD101090909090901010FF10101116FB
:1038F0001000002060203F10101000030C1020402A
:10390000F800B4ED4030EF246448487F4848487FD1
:103910004848400001017F211100FF4949494949B8
:10392000FF000000CEF34042CC0000809E929292B5
:1039300092929E80000000007F2094844424140F03
:1039400014244484840000000000000000000000F3
:10395000000000000000000000F80000000000006F
:1039600000333000000000100C06100C06000000B0
:1039700000000000000040C07840C0784000043FD4
:1039800004043F040400007088FC083000000018A4
:1039900020FF211E0000F008F000E01800000021C8
:1039A0001C031E211E0000F00888700000001E216C
:1039B00023241927211010160E000000000000001B
:1039C000000000000000000000E0180402000000F9
:1039D00000071820400000020418E000000000402A
:1039E000201807000000404080F0804040000202A4
:1039F000010F01020200000000F0000000000101C0
:103A0000011F01010100000000000000000080B063
:103A10007000000000000000000000000000000135
:103A20000101010101010000000000000000003060
:103A300030000000000000000000806018040060FA
:103A400018060100000000E010080810E000000F58
:103A5000102020100F00001010F8000000000020BF
:103A6000203F202000000070080808887000003007
:103A700028242221300000300888884830000018AF
:103A8000202020110E000000C02010F800000007C8
:103A90000424243F240000F808888808080000193E
:103AA000212020110E0000E0108888180000000F6F
:103AB000112020110E0000380808C8380800000046
:103AC000003F000000000070880808887000001C9B
:103AD000222121221C0000E010080810E000000054
:103AE000312222110F00000000C0C00000000000C1
:103AF00000303000000000000080000000000000E6
:103B000080600000000000008040201008000001DC
:103B1000020408102000404040404040400004049F
:103B20000404040404000008102040800000002069
:103B3000100804020100007048080808F0000000A6
:103B4000003036010000C030C828E810E000071837
:103B5000272423140B000000C038E0000000203CA4
:103B600023020227382008F8888888700000203F48
:103B7000202020110E00C03008080808380007185F
:103B800020202010080008F808080810E000203F56
:103B9000202020100F0008F88888E8081000203F37
:103BA00020202320180008F88888E8081000203F0B
:103BB000200003000000C030080808380000071883
:103BC0002020221E020008F808000008F808203F04
:103BD000210101213F20000808F80808000000200A
:103BE000203F2020000000000808F8080800C080DE
:103BF00080807F00000008F888C028180800203F57
:103C000020012638200008F8080000000000203FAE
:103C100020202020300008F8F800F8F80800203FA5
:103C2000003F003F200008F830C00008F808203F9F
:103C3000200007183F00E01008080810E0000F10EF
:103C4000202020100F0008F808080808F000203F86
:103C5000210101010000E01008080810E0000F1821
:103C6000242438504F0008F8888888887000203F46
:103C70002000030C30200070880808083800003845
:103C8000202121221C00180808F80808180000004C
:103C9000203F2000000008F808000008F808001F76
:103CA000202020201F000878880000C83808000065
:103CB00007380E010000F80800F80008F800033C7F
:103CC0000700073C03000818688080681808203047
:103CD0002C03032C30200838C800C8380800000026
:103CE000203F2000000010080808C83808002038CD
:103CF000262120201800000000FE02020200000021
:103D0000007F40404000000C30C000000000000078
:103D100000010638C00000020202FE000000004060
:103D200040407F0000000000040202020400000086
:103D30000000000000000000000000000000808083
:103D4000808080808080000202040000000000006B
:103D5000000000000000000080808080000000194A
:103D6000242222223F2008F8008080000000003F2B
:103D7000112020110E000000008080800000000E45
:103D8000112020201100000000808088F800000E23
:103D9000112020103F200000808080800000001F44
:103DA000222222221300008080F0888888180020B8
:103DB000203F202000000000808080808000006B79
:103DC00094949493600008F8008080800000203F65
:103DD000210000203F200080989800000000002073
:103DE000203F20200000000000809898000000C0C4
:103DF0008080807F000008F8000080808000203FE5
:103E000024022D302000000808F8000000000020E7
:103E1000203F202000008080808080808000203F24
:103E200020003F20003F8080008080800000203FF5
:103E3000210000203F200000808080800000001FC3
:103E4000202020201F00808000808000000080FF54
:103E5000A12020110E000000008080808000000E54
:103E6000112020A0FF8080808000808080002020A2
:103E70003F2120000100000080808080800000330E
:103E8000242424241900008080E0808000000000A9
:103E9000001F202000008080000000808000001FA4
:103EA000202020103F208080800000808080000142
:103EB0000E300806010080800080008080800F3076
:103EC0000C030C300F0000808000808080000020F8
:103ED000312E0E3120008080800000808080808123
:103EE0008E70180601000080808080808000002194
:103EF000302C2221300000000000807C02020000F3
:103F00000000003F404000000000FF0000000000F3
:103F10000000FF0000000002027C80000000004062
:103F2000403F0000000000060101020204040000FE
:103F30000000000000000000000000000000000081
:103F4000000000000000000000F800000000000079
:103F500000333000000000100C06100C06000000BA
:103F600000000000000040C07840C0784000043FDE
:103F700004043F040400007088FC083000000018AE
:103F800020FF211E0000F008F000E01800000021D2
:103F90001C031E211E0000F00888700000001E2176
:103FA00023241927211010160E0000000000000025
:103FB000000000000000000000E018040200000003
:103FC00000071820400000020418E0000000004034
:103FD000201807000000404080F0804040000202AE
:103FE000010F01020200000000F0000000000101CA
:103FF000011F01010100000000000000000080B06E
:10400000700000000000000000000000000000013F
:10401000010101010101000000000000000000306A
:104020003000000000000000000080601804006004
:1040300018060100000000E010080810E000000F62
:10404000102020100F00001010F8000000000020C9
:10405000203F202000000070080808887000003011
:1040600028242221300000300888884830000018B9
:10407000202020110E000000C02010F800000007D2
:104080000424243F240000F8088888080800001948
:10409000212020110E0000E0108888180000000F79
:1040A000112020110E0000380808C8380800000050
:1040B000003F000000000070880808887000001CA5
:1040C000222121221C0000E010080810E00000005E
:1040D000312222110F00000000C0C00000000000CB
:1040E00000303000000000000080000000000000F0
:1040F00080600000000000008040201008000001E7
:1041000002040810200040404040404040000404A9
:104110000404040404000008102040800000002073
:10412000100804020100007048080808F0000000B0
:10413000003036010000C030C828E810E000071841
:10414000272423140B000000C038E0000000203CAE
:1041500023020227382008F8888888700000203F52
:10416000202020110E00C030080808083800071869
:1041700020202010080008F808080810E000203F60
:10418000202020100F0008F88888E8081000203F41
:1041900020202320180008F88888E8081000203F15
:1041A000200003000000C03008080838000007188D
:1041B0002020221E020008F808000008F808203F0E
:1041C000210101213F20000808F808080000002014
:1041D000203F2020000000000808F8080800C080E8
:1041E00080807F00000008F888C028180800203F61
:1041F00020012638200008F8080000000000203FB9
:1042000020202020300008F8F800F8F80800203FAF
:10421000003F003F200008F830C00008F808203FA9
:10422000200007183F00E01008080810E0000F10F9
:10423000202020100F0008F808080808F000203F90
:10424000210101010000E01008080810E0000F182B
:10425000242438504F0008F8888888887000203F50
:104260002000030C3020007088080808380000384F
:10427000202121221C00180808F808081800000056
:10428000203F2000000008F808000008F808001F80
:10429000202020201F000878880000C8380800006F
:1042A00007380E010000F80800F80008F800033C89
:1042B0000700073C03000818688080681808203051
:1042C0002C03032C30200838C800C8380800000030
:1042D000203F2000000010080808C83808002038D7
:1042E000262120201800000000FE0202020000002B
:1042F000007F40404000000C30C000000000000083
:1043000000010638C00000020202FE00000000406A
:1043100040407F0000000000040202020400000090
:10432000000000000000000000000000000080808D
:104330008080808080800002020400000000000075
:104340000000000000000000808080800000001954
:10435000242222223F2008F8008080000000003F35
:10436000112020110E000000008080800000000E4F
:10437000112020201100000000808088F800000E2D
:10438000112020103F200000808080800000001F4E
:10439000222222221300008080F0888888180020C2
:1043A000203F202000000000808080808000006B83
:1043B00094949493600008F8008080800000203F6F
:1043C000210000203F20008098980000000000207D
:1043D000203F20200000000000809898000000C0CE
:1043E0008080807F000008F8000080808000203FEF
:1043F00024022D302000000808F8000000000020F2
:10440000203F202000008080808080808000203F2E
:1044100020003F20003F8080008080800000203FFF
:10442000210000203F200000808080800000001FCD
:10443000202020201F00808000808000000080FF5E
:10444000A12020110E000000008080808000000E5E
:10445000112020A0FF8080808000808080002020AC
:104460003F21200001000000808080808000003318
:10447000242424241900008080E0808000000000B3
:10448000001F202000008080000000808000001FAE
:10449000202020103F20808080000080808000014C
:1044A0000E300806010080800080008080800F3080
:1044B0000C030C300F000080800080808000002002
:1044C000312E0E312000808080000080808080812D
:1044D0008E7018060100008080808080800000219E
:1044E000302C2221300000000000807C02020000FD
:1044F0000000003F404000000000FF0000000000FE
:104500000000FF0000000002027C8000000000406C
:10451000403F000000000006010102020404000008
:1045200000000000000000004845000800000020D6
:10453000D40D00006C010008084B0008D40D0020C9
:1045400094060000C80100088132012D3443101088
:1045500008411AFF01136D0A021108B5100140400D
:1045600029305A0218DA80185A0518390D99183965
:1045700055291839398918511A0818997629186A4D
:104580000B18CA04186A0918D9486A0618D9786A33
:104590000318CA1018420D0A100C786A0C18D9308A
:1045A00039572918CA2018399F2918CA40186A078C
:1045B00018CA8018420A7BA24AD6380E01020304A8
:1045C0000607080934431010010502213769E31A70
:1045D000FF014115404042CC780A0444645C47F432
:1045E0004444445BA11D40201F201A2C44447F05F5
:1045F0000111980F101010FF1050445465C6446408
:104600005444C9710010130444827F0182824A56C7
:104610002322524E82021BF888010009110808FF6C
:1046200008090AC8081480601F000C1110201F80A0
:10463000402116182641F81D080808F804298604A8
:10464000121010F0000F131030101F088848300EA1
:10465000014080403F3C40301EC42901011300103E
:104660001281814121110D0301030D11214181812D
:10467000180AFE02FA02FE4020D8177F0911422FC5
:104680008047300F1067BF06110816214080080FC1
:104690001088681FC80810C85452D1129408D0401E
:1046A00016091909FF0515FF1292FF04175F807F95
:1046B000051701E21CE037804020100C030E1003A8
:1046C0000C3040808011158060F807080A1004241F
:1046D000242526242424045B2132FF2BF949010AD6
:1046E00011F93F4D8080BEA2011ABE0C0114000AD0
:1046F0001406050404044484443C171010D0FF90B1
:10470000100614FE020202FE1B0403803483601FA5
:1047100005113F404078080F11202020FF20208005
:10472000F88040FF2010F0602E30100F08083C0D7C
:10473000165F42444340111AF8E70C1540404040D0
:104740002D48407F40030912210121031E36360007
:104750000D13181610D0B897909090929410000FE7
:104760001120108C838041462810284443808015F6
:10477000404042CC080A1088898E88F8888C8B8843
:104780002011080D1240201F20405048464142444D
:1047900058C01A02011F8242F20E428209011226FB
:1047A000100804020132FF041201020C100908CCA7
:1047B0004A49484ACC1807127F88888482E027FF3C
:1047C000121252927F0A147E20080D111010D0FF91
:1047D00090201018A744A4145F111B04037C08093F
:1047E000110502FD44444445FDA12C101090010028
:1047F00009121010FF101011161010082060203F31
:104800001010100711030C102040F8380A4030EF48
:10481000246448487F48040211401601017F211199
:104820002BFF49010213FF244042CC2C809E9201B1
:1048300003149E80080E137F2094844424140F14C4
:104840002444848421395D041449497F280A814124
:10485000211D214181FF890103128181000E120275
:104860008282422212FA0622224242821301011E51
:10487000FC44444445041AFC0E0111080F118080C9
:104880004020504844C3444850204080C11B404011
:104890003B2B447F0503124040172030AC632018A7
:1048A0001D040404FC0401121808226722121212CB
:1048B00040012A7F0501111809101012D2525F52CF
:1048C000F2040514D2121010000A159F5232121F62
:1048D0001232529F14F801022D0202F20201021359
:1048E000FE22FF14080403071401020C40807F0815
:1048F0000B121011161010F0101014137E0010116E
:104900008181414121110D030D112141418181130B
:1049100080701CFF2010FB2B04FC05091020266072
:104920001807083009157D199D3808884828180F80
:10493000E808010113000E122011090541817F01D1
:10494000010509112038080202E22222FE22040495
:1049500013E20202000C13FF48444340404043442A
:1049600044FF080F1004E4242464A4243F24A46416
:104970002424E4C01112FF1E080909097F040A1348
:1049800048C31A200129590D11FF402010C02E20C4
:1049900060201010201A3F840B114078811F04F40E
:1049A0009494949F040B11F4047F19354B7F4A01B2
:1049B0001A7F0C0112151088C4331E40424242C2B5
:1049C000040910201B0201C229480913BD211A083D
:1049D000012C88780F0729010910C01D1048464195
:1049E000012A7F05091180080F10C8B88FE8888850
:1049F000404848E85F484848201D081808FFD8008C
:104A00000813020B1222D20A0628090202C202026D
:104A100002FE820102120219F429F829042901096F
:104A200011C008091488C8380C0B0808E8C0130224
:104A3000018BFF40C101132A24010F13FC22222203
:104A400023229F19013C42827F080A1002A1000F15
:104A5000124044C4444444401010FF101010F008A9
:104A60000F11103C131014B840300E014080403F2D
:104A700020193A080C109020984828090E2848A8B8
:104A800018801442817F1F40404242427E04091038
:104A9000C0200C40504E4848FF48484840F8021497
:104AA000FF10083E0202FF12221E0D120F40807FEF
:104AB000E0000D12FE929292FE0206FC040404FC39
:104AC00008101008180F080804FF0484402718274E
:104AD0004080C01560020CC0000813E22C203F206B
:104AE00028E61D04047C03990E1109090949897FF0
:104AF0007113F0F04AFFBD490A4903091D200E4217
:084B000088502050884200009B
:0400000508000131BD
:00000001FF
